:020000040800F2
:10000000A022002049010008ED310008592700080E
:1000100000000000000000000000000000000000E0
:10002000000000000000000000000000CD330008C8
:10003000000000000000000007010008E93300088C
:100040005B010008000000005B0100085B01000884
:100050005B0100085B010008810300085B010008E8
:1000600000000000B9020008C90200088D02000863
:10007000FD0100085B0100085B01000800000000B2
:100080005B0100086D3400085B0100085B0100089B
:100090005B0100085B0100085B0100085D270008A8
:1000A0007D2700085B0100085B010008453C000853
:1000B0005B0100085B0100080448854600F08CF8ED
:1000C00000480047193E0008C046C046A022002054
:1000D000084B19680868203080F30988022080F3F3
:1000E0001488BFF36F8F3FBCAE4608BC04BC62B639
:1000F0001847000020000020EFF3108072B6704710
:1001000080F310887047EFF309800E4B1A6820388F
:100110001060F0C044464D4656465F46F0C008B5F4
:1001200072B604F0A9FC62B60CBC11680868103005
:10013000F0C8A046A946B246BB4680F309882038DD
:10014000F0C81847200000200448804704480047B2
:10015000FEE7FEE7FEE7FEE7FEE7FEE7693400089C
:10016000B900000830B50B460146002020220124CA
:1001700009E00D46D5409D4205D31D469540491BDB
:100180002546954040191546521E002DF1DC30BD24
:1001900003460B439B0703D009E008C9121F08C0A0
:1001A000042AFAD203E00B780370401C491C521E4B
:1001B000F9D27047D2B201E00270401C491EFBD256
:1001C00070470022F6E710B513460A460446194662
:1001D000FFF7F0FF204610BD064C0125064E05E056
:1001E000E36807CC2B430C3C98471034B442F7D358
:1001F000FFF766FFF05300081054000810B50248DE
:1002000000F0DEF910BD0000AC00002003F07AF928
:10021000002201210C4800F02FFE01214904A720F3
:1002200003F0CCF97D24E4000121A02003F0C6F9FD
:10023000204604F095FB0221A02003F0BFF92046E0
:1002400004F08EFBF0E70000000C00500B4C002582
:100250000B4EED43642004F083FB4021204600F068
:1002600003FE2A460749F06804F09FFD0028F1D0FC
:10027000044905A003F008FDECE700000008005069
:1002800000000020A00000202573000010B50648E3
:1002900000F030FC054800F02DFC054800F02AFC79
:1002A000044800F027FC10BD2803002010010020A6
:1002B000C80400202405002010B5024800F01AFCF4
:1002C00010BD00001402002010B5034800F012FC1D
:1002D000024800F00FFC10BD70020020CC0200208C
:1002E00010B50446006C094980088000401860641D
:1002F000207814210838FFF735FF04498031A164C4
:10030000C106C90E01208840E06410BD000802400B
:100310000179084B8906890E8A00D2180265054AC0
:100320004432491E42658A07920F0121914081653E
:1003300070470000FC080240F0B5846CC56C656035
:10034000046D002C02D0446D856D65600B4C6568B2
:10035000066C1C273E400127B7403D43656004689A
:1003600063608368102B036803D099600068C260E3
:10037000F0BD9A600068C160F0BD0000000002405E
:1003800010B5042000F0ACFC10BD72B6FEE770475B
:100390007047704770470000F8B5002706460446CE
:1003A00040360097307D0D4601280FD00120307572
:1003B000206802F0A6FC00280AD0A06D2021084386
:1003C000A0650127002030753846F8BD0220F8BD31
:1003D000686802287ED001222169D207914202D0AA
:1003E000121D914206D120682968826A4903490B8F
:1003F0000A436EE0C206D20E0F20216E9040814368
:100400002868430302D0C3074BD102E04000C00E6E
:1004100048E0830701D5012044E0430701D50220CD
:1004200040E0030701D503203CE0C30601D50420CA
:1004300038E0830601D5052034E0430601D50620C7
:1004400030E0030601D507202CE0C30501D50820C4
:1004500028E0830501D5092024E0430501D50A20C1
:1004600020E0030501D50B201CE0C30401D50C20BE
:1004700018E0830401D50D2014E0430401D50E20BB
:1004800010E0030401D50F200CE0C30301D51020B8
:1004900008E0830301D5112004E0400301D51220B8
:1004A00000E000209040014321666968E269880805
:1004B000401C904210D820682B68826A9C46C9066E
:1004C000C90E0F238B409A4363469B001B0F8B4042
:1004D0001A4300E03BE082622168AB6828684A6901
:1004E0000002824318404001400902434A612868E3
:1004F000002800DB66E72B4A116807239B0519409B
:10050000294B984214D10B0212D4C0020143104669
:1005100002F003FC264825490068FFF723FE0C2162
:10052000401C484300E0401E00900028FBD149E7F2
:10053000204B984203D1CB0101D4800205E01E4B31
:100540009842D7D14802D5D45802014325E0012171
:100550002069C907884202D0091D884206D1206857
:100560002968826A4903490B8A4382622868002805
:10057000C0DA0C4A116807239B0519400A4B9842C0
:1005800001D1C00208E00B4B984201D1800203E088
:10059000094B9842AED140028143104602F0BDFBA8
:1005A00010E7000008270140001000B0400D0300D4
:1005B0001C000020004000B8002000B470477047C5
:1005C000F8B50446006806684568B0070FD5A80767
:1005D0000DD5A06DC00604D4A06D0121C902084349
:1005E000A0652046FFF7D4FE216802200860474F2F
:1005F000700701D5680703D4300728D5280726D50A
:10060000A06DC00604D4A06D012149020843A06575
:10061000206802F07AFB002813D0A07E002810D1B9
:100620002068016809070CD502F06BFB0146012028
:10063000002960D0A16D20221143A165E16D014325
:10064000E1652046FFF7BAFF21680C2008603006FC
:100650000CD528060AD5A06D012109040843A06520
:10066000204600F065F9216880200860F0050BD570
:10067000E80509D5A06D012149040843A06520467D
:10068000FFF787FE20680760B0050DD5A8050BD5DC
:10069000A06D012189040843A0652046FFF77AFE7A
:1006A0000120216840020860F00618D5E80616D53A
:1006B000206B002804D02068C0688007800F0BD012
:1006C000A06D012189020843A065E06D0221084365
:1006D000E0652046FFF773FF216810200860B00432
:1006E00008D5A80406D52046FFF751FE0120216851
:1006F00040030860F8BD21684A680C239A434A60A9
:10070000A16DB9430143A1659BE700000001000012
:10071000FEB50027044601973E4602970097002841
:1007200005D02546A06D2035002802D007E0012025
:10073000FEBD204600F0FEF8E66554200655206810
:100740008168C900C90F12D18168724A1140012223
:1007500012071143816071486F490068FFF702FD7D
:100760004000801C00E0401E00900028FBD1206863
:100770008168C900C90F08D1A16D10221143A1657C
:10078000E16D01221143E165174602F0BAFAA16D4D
:10079000C90601D4002804D0A06D10210843A0652B
:1007A000B4E0A06DFF210131884302210843A06518
:1007B000206802F0A2FA00286DD1217EA06889038A
:1007C0000843617ECA03A17E4B031A431043226B88
:1007D000002A01D0012212031043E268104322696B
:1007E000002A02DA5200520801E0012252051043A9
:1007F0002A7B52001043019A10432A78012A09D11A
:10080000002922D0A16D20221143A165E16D0122B2
:100810001143E165616A002906D0FF23C133194005
:10082000A26A0143104608432168CA683C4B1A403B
:100830000243CA606168029A890F8907E06C0A4323
:1008400010432A7F012A04D00CE001210904084347
:10085000E0E7636C226C491C1A43A36C0B431146FE
:100860001943084321680A692E4B1A4002430A6162
:1008700003216068890788420DD0590788420AD051
:100880004900884207D0284A91680F239B04994366
:100890001840014391600021626B206802F044FA25
:1008A0002249A26B206802F03FFA0F202169C04361
:1008B00000291CD00122520591420AD121688A6A7E
:1008C000227F9200121FD206D20E9040226E104359
:1008D000886220684069616B4007400F88420BD1F5
:1008E000E665A06D80088000401CA0650FE02168CF
:1008F0008A6A02438A62ECE7A06D022188431021D4
:100900000843A065E06D01210843E06501273846F2
:10091000FEBD0000E8FFFF7F400D03001C0000202B
:100920000102FEFF02FCFF1F0027014004FFFF073A
:100930007047000070B58EB00646142107A8FFF777
:1009400040FC1C216846FFF73CFC27493068884280
:1009500048D101200025800305950090684600F0ED
:1009600009FD002801D0FFF710FD20480268012191
:1009700009050A430260006808400C901B48403893
:10098000416B012211434163406B07A910400C9059
:100990000D2007900320089005200995000700F01E
:1009A000B5F9144C12482060A5600520E560606030
:1009B00080202061400060618000A06120202562CD
:1009C000E061204600F0F2F8002801D0FFF7DDFCDE
:1009D0003465002203210C20A66200F0A1FC0C204B
:1009E00000F092FC0EB070BD0024014040100240A7
:1009F0005800024010010020F0B5002808D0014640
:100A000020314A79022A05D00422C26300200871ED
:100A10000120F0BD026813680E24A3431360426CEA
:100A20001468FF2301339C4314600268146864084F
:100A3000640014600C4A5568066C1C24264001248E
:100A40002746B7403D435560826CC56C5560026DCA
:100A5000002A05D015689D431560826D406D426087
:100A60004C7100200871F0BD00000240F8B5002470
:100A7000024620325179022903D00421C1630124A6
:100A80002DE001680B680E25AB430B6001680B6815
:100A90005B085B000B60416C0B68FF250135AB43C5
:100AA0000B6010494D68066C1C231E4001231F4635
:100AB000B7403D434D60816CC56C4D60016D0029B0
:100AC00006D00E681D02AE430E60416D856D4D600F
:100AD000537100211171816B002900D08847204695
:100AE000F8BD000000000240C06B70472030407924
:100AF00070470000F0B42C490C6802681368056C5C
:100B00001C273D400426AE40264211D05E070FD57B
:100B100013689B0603D4146804239C4314604B6839
:100B2000046C04223C40A24013434B60016B1CE068
:100B30000227AF40064627402036002F19D09F07D6
:100B400017D513689B0605D413680A24A3431360C2
:100B5000012272714B68046C1C2214400222A240D4
:100B600013434B6000213171C16A00291AD0F0BCD7
:100B700008470827AF40274214D01B0712D5136837
:100B80000E24A34313604B68046C1C221440012202
:100B90001546A5402B434B60C26372710021317131
:100BA000416BE2E7F0BC70470000024070B5040002
:100BB0003FD02548256814212818FFF7D3FA800074
:100BC0002064022026462036707128681F4908409C
:100BD0002860E168A06862690843216911430843FD
:100BE000A1690843E1690843216A084321680A684A
:100BF000104308602046FFF773FB0121A0688903BA
:100C00000025884200D165602079616C8006800EE5
:100C10000860A06CE16C41606068401E03280AD83F
:100C20002046FFF775FB206D0560606DA16D41608A
:100C300004E0012070BD25656565A565E5630120BB
:100C400070713571002070BDF8FFFDBF0F80FFFF90
:100C5000F8B504468C4620300179002501290BD0D7
:100C60000126067141790027012907D08021E1631F
:100C7000077101252846F8BD0220F8BD0221417107
:100C8000E763206801684908490001606146204621
:100C9000FFF752FB206B00282068016801D00E226C
:100CA00005E0042291430160206801680A22114393
:100CB0000160606C0168CA03074902D502680A43F3
:100CC0000260206D002802D002680A43026020689A
:100CD000016831430160CDE700010000704700006A
:100CE00070B5084D0446E868204203D0EC60204609
:100CF00000F00AF82869204203D02C612046FFF753
:100D0000EDFF70BD0018024070470000F0B50023F1
:100D100003249AE02A4601259D402A407ED00E7980
:100D2000B607B60F012E01D0022E16D186682746CF
:100D3000B4465E00B646B7406646BE43B446CF688A
:100D40007646B7406646374387604668AE430D79BE
:100D5000ED06ED0F9D40354345600D79ED43AD0740
:100D600008D0C5685F002646BE40B5438E68BE40C9
:100D70002E43C6600D79AD07AD0F022D0ED1DD08F3
:100D8000AD002D18AC462D6A5E07F60E0F27B74052
:100D9000BD430F69B7402F4365462F6205685F006A
:100DA0002646BE40B5430E79B607B60FBE402E4369
:100DB00006604D68AD03AD0F46D09E08264DB600C7
:100DC0007519AC462D6E9E07F60E0F27B740BD4332
:100DD00005273F07B84201D100270FE01F4FB84257
:100DE00001D101270AE01E4FB84201D1022705E0D8
:100DF0001C4FB84201D1032700E00527B7402F431D
:100E0000154D664637662D684E689543F60200D547
:100E10001543114F3D607D68954300E014E04E6836
:100E2000B60200D515437D600B4D80356E684F6866
:100E30009643BF0300D516436E602E684F689643F5
:100E4000FF0300D516432E605B1C0A681546DA4086
:100E500000D05FE7F0BD0000001802400004005021
:100E600000080050000C0050426913460B401B0460
:100E700091430B4383617047002A01D08161704721
:100E800081627047014880687047000010000020B0
:100E900070B5024640325378202B1CD11378012BB9
:100EA00019D00123137024245470046825689D43CD
:100EB0002560046825681E03B5432560046825681D
:100EC0000D432560006801681943016020205070BF
:100ED0000020107070BD022070BD70B50246403217
:100EE0005378202B1BD11378012B18D001241470B8
:100EF0002423537003681D68A5431D6005682B6893
:100F00000F263602B34309021943296000680168BD
:100F100021430160202050700020107070BD02201D
:100F200070BD7047704770B503689A691968D243FD
:100F3000D40508D4CC43240605D4446C01252C43A5
:100F400044642C02DC61530509D4CB431B0606D450
:100F5000436C082423434364E3010468E36192057E
:100F600009D4C943090606D4416C022211434164E5
:100F700011020268D161416C0B22114201D001F0D3
:100F800093FC70BD026891691268436B002B00D01E
:100F9000184770477047000070B5040006D025461A
:100FA000403568780026002802D005E0012070BD99
:100FB0002E70204600F04CF82420687020680168EC
:100FC0004908490001600F216068090688432168CB
:100FD000086121688A680120C00382438A60E16851
:100FE0000129A16808D02122920211432268916050
:100FF000E168022902D005E00143F7E701212268F8
:10100000C902516021684A680F4B1A434A6021683F
:10101000CA688243CA60616920690843A1690902FC
:1010200008432168C860216AE069084321680860B4
:101030002068016801221143016066642020687005
:101040002663AE70002070BD008000027047000073
:10105000F0B58DB0044614216846FFF7B2F81C21A4
:1010600005A8FFF7AEF85C4920685C4E0227002512
:10107000884259D120200590089505A800F07AF9FA
:10108000002801D0FFF781F9706B38437063706BF3
:10109000039538400C90032000020090122001902C
:1010A00006200490029569464D48FFF72FFEF16B2C
:1010B000012040050143F163F16B4B4E014049486B
:1010C0000C913060B560F5607561B5618027F561A0
:1010D00037610A20356270603046FFF767FD0028EF
:1010E00001D0FFF752F9E663B4623F4E3D485C36EB
:1010F000143030600B207060314610200831A1C1DF
:101100007561B561F56130463562FFF74FFD002826
:1011100001D0FFF73AF9A663002203211720B46239
:1011200000F0FEF8172052E03049884251D1706B30
:1011300038437063706B039538400C900320800235
:1011400000901220019006200490029569462448E0
:10115000FFF7DCFDF16B012080050143F163F16BCA
:10116000214E01401F48B83628300C913060B560E0
:10117000F5607561B5618027F56137610C203562D6
:1011800070603046FFF712FD002801D0FFF7FDF830
:10119000E663B462164E134831463C3030600D2091
:1011A000706010200831A1C17561B561F5613046EC
:1011B0003562FFF7FBFC002801D0FFF7E6F8A663D5
:1011C000002203211820B46200F0AAF8182000F0D1
:1011D0009BF80DB0F0BD000000540040001002402C
:1011E0000004005008000240140200200058004093
:1011F00028030020704770470248816802788918E8
:10120000816070471000002010B508480024016874
:10121000821511430160032000F00AF8002801D074
:10122000012401E000F052F8204610BD00200240E9
:1012300030B505461F4887B0C26B10210A43C26310
:10124000C06B0840009005A901A800F0EFF90498D0
:10125000002815D000F006FA40001749FEF782FF7B
:10126000411E1748154A0260164AC26041600021BB
:1012700001618160816100F0AAFD040003D015E0E6
:1012800000F0F0F9E9E70E4800F0F6FD04000DD19A
:10129000112000F039F8042D07D200222946112030
:1012A00000F03EF80848056000E00124204607B041
:1012B00030BD00000010024040420F00001000400E
:1012C00080050020E70300001400002008B50D4849
:1012D0000168012211430160006810400090094834
:1012E0004038C26B01040A43C263C06B002208404D
:1012F00003210090481F00F013F80320400200F083
:1013000059FD08BD40100240002805DBC106C90E8A
:1013100001208840014908607047000000E100E0BA
:1013200010B502F0CFFC10BD10B50F4C21680322A0
:101330005202914301432160C11FFF39FA390ED196
:101340000A480621006848430949FEF70BFF401C84
:1013500002E0002805D0401E61694905F9D400204B
:1013600010BD032010BD0000007000401C000020D4
:1013700040420F00F8B5044600680026524D800335
:1013800058D5514800274038C06BC00009D44E489A
:101390004038C26B01040A43C263C06B0840012796
:1013A00000904A480168821511430160FFF76AFD09
:1013B000009005E0FFF766FD0099401A022825D845
:1013C00042480068C005F5D5E869032109020840D4
:1013D0000FD0A16981420CD0E86903210902EA69B2
:1013E0008843012109040A43EA61EA698A43EA6100
:1013F000E861C0070FD0FFF745FD009008E0FFF758
:1014000041FD0099411A3248814201D9032609E081
:10141000E8698007F3D5E869032109028843A169D7
:101420000843E861002F05D027484038C16B02040B
:101430009143C1632078C00705D06869616880085E
:101440008000084368612078800705D568690C2111
:101450008843A168084368612078800606D56869DA
:10146000032109038843E168084368612088400438
:1014700011D56869616980008008084368610121AD
:1014800060698907884206D10F484038C168012247
:1014900012041143C1602088000512D56869032138
:1014A0008903884321690843686101212069890310
:1014B000884206D104484038C16801221204114311
:1014C000C1603046F8BD000040100240007000408E
:1014D00088130000F8B50F46060043D04D4D28682C
:1014E0004007400FB84213D22868C008C0003843F4
:1014F0002860FFF7C7FC044605E0FFF7C3FC011BAB
:101500004548814261D828684007400FB842F4D16D
:101510003068424C81070DD5400704D5A0680721EB
:1015200009030843A060A0680F2109028843B1683D
:101530000843A0603078C00732D0706801280AD014
:1015400002280BD000280FD03449403103280ED098
:10155000C969890704E02168890301E021688901DC
:10156000002906DB0120F8BD21684905F8E7096A72
:10157000EFE7A168C908C9000143A160FFF782FC39
:10158000009006E0FFF77EFC0099411A2248814254
:101590001BD8A068382108407168C9008842F1D181
:1015A00028684007400FB84217D91A480168C9088F
:1015B000C90039430160FFF765FC054607E0FFF706
:1015C00061FC411B1448814201D90320F8BD114838
:1015D00000684007400FB842F1D13078400706D587
:1015E000A068072109038843F1680843A06000F060
:1015F0004DF8A1683C2289091140094A515CC9068D
:10160000C90EC8400749086007480068FFF710FE88
:10161000F8BD0000002002408813000000100240C6
:101620005C5300081C0000201400002010B50722A5
:1016300002600A4A93685B075B0F436093680F245C
:10164000240223408360926807231B031A40C26070
:10165000034800684007400F086010BD00100240BA
:10166000002002400648074900688968064A490484
:10167000490F8900515CC906C90EC8407047000077
:101680001C000020001002409C53000810B51C4CA8
:10169000A0688006410F1B4815D0A1688906490F34
:1016A00001290FD0A1688906490F022911D0A0682D
:1016B0008006400F04281DD0A0688006400F032834
:1016C0001BD0002010BD216889044A0F01219140E0
:1016D0000DE0E168E1684906490F491CFEF742FD4B
:1016E000E1684904490E4843E168490F491CFEF787
:1016F00039FD10BD0120C00310BD7D20000210BDCA
:10170000001002400024F400F8B504007ED02078D8
:101710003827C007E94D002846D0A868E968384056
:101720008907890F102802D008280BD001E003296F
:1017300008D001206268000482420AD1296801436E
:10174000296015E0286880032ED560680028DDD068
:101750002AE0052301211B0489049A422A6802D148
:101760000A432A60EAE782432A602868884328609F
:10177000606800280CD0FFF785FB064604E0FFF701
:1017800081FB801B642873D828688003F7D50BE0A1
:10179000FFF778FB064604E0FFF774FB801B642824
:1017A000F1D828688003F7D42078800769D5A86825
:1017B000E96838408A070721920FC902102802D031
:1017C000002813D001E0022A10D0E068002846D09B
:1017D000286888432169084328602868FF2101316F
:1017E00008432860FFF74EFB06462CE02A685205A6
:1017F00002D5E268002A89D06A687F231B029A43D7
:1018000063691B021A436A60002800E08DE00ED174
:1018100028688843216908432860286801218004DA
:10182000400F8140A648FEF79DFCA6490860A648E7
:101830000068FFF7FDFC002877D122E0FFF722FBCC
:10184000801B02289FD828684005F7D568687F214B
:1018500009028843616909020843686011E0296848
:10186000FF20013081432960FFF70CFB064605E0AD
:1018700098E0FFF707FB801B022884D82868400502
:10188000F7D42078914E00072ED5A8688006400F27
:1018900003280AD0A0690028306A16D00121084325
:1018A0003062FFF7EFFA07460BE0306A80071BD57E
:1018B000A06900289FD017E0FFF7E4FAC01B0228B8
:1018C00070D8306A8007F7D50EE0400840003062DB
:1018D000FFF7D8FA074604E0FFF7D4FAC01B022846
:1018E00060D8306A8007F7D4207840076CD5A868A4
:1018F00000278006400F042818D0E86BC00008D4E9
:10190000E96B012000070143E963E96B014001270E
:1019100000916F480168C90519D401688215114307
:101920000160FFF7AFFA00900DE083E0F0698007F7
:101930004AD5A06800287DD046E0FFF7A3FA0099B9
:10194000401A02282ED862480068C005F5D5A16863
:10195000012910D004200529F16911D04908490056
:10196000F161F1698143F161A068002816D0FFF7A9
:1019700089FA00900EE0F06901210843F061F3E775
:101980000143F161F7E7FFF77DFA0099411A5148E9
:10199000814265D8F0698007F5D50EE0FFF772FA4D
:1019A000009007E05CE0FFF76DFA0099411A4948A2
:1019B000814255D8F0698007F5D4002F04D0E96B37
:1019C000012000078143E963E069002873D0A9681A
:1019D0008906490F02294DD00126360602282868BB
:1019E00005D0B0432860FFF74DFA04463AE0B04313
:1019F0002860FFF747FA074604E0FFF743FAC01BE9
:101A000002282DD828688001F7D4616A206AA26A6A
:101A10000843E16A120211430843216B0843E96855
:101A20002D4A11400843E860286830432860E86880
:101A3000012100E03DE009070843E860FFF722FAD2
:101A4000044604E0FFF71EFA001B022808D82868A5
:101A50008001F7D52FE0FFF715FA001B022801D906
:101A60000320F8BD28688001F5D4E8681B490840C8
:101A7000E86020E00128F4D0E868226A8107890F35
:101A8000914216D17021626A0140914211D17F21A9
:101A9000A26A09020140120291420AD11F2149049F
:101AA000E26A0140914204D1400F216B4007884215
:101AB00001D00120F8BD0020F8BD00000010024058
:101AC0000024F4001C0000201400002040100240FC
:101AD00000700040881300008C80C11FFCFFFEEFE7
:101AE000F8B504000CD0606A002500280AD02561F2
:101AF000656126464036A562707F002808D00BE05D
:101B00000120F8BD6168C81FFD38F2D0E561F0E73B
:101B10003577204600F05CF8022272772068016871
:101B20004023994301600723E1681B02994201D9D0
:101B3000002001E0012000030F273F02B94202D03C
:101B4000994200D0A562FF2361680533194021271F
:101B5000A368BF023B40194323691340227D194308
:101B6000D207D20F11430123A2695B021A4011432D
:101B7000E26938231A401143226A80231A40114334
:101B8000A26A9B011A40114322681160A1690422D4
:101B9000090C1140626A10231A401143626B08233A
:101BA0001A4011430F23E2681B021A40114301221D
:101BB000120310400143206841602068C16952103F
:101BC0009143C1612566012070770020F8BD0000B7
:101BD00030B587B0044614216846FEF7F2FA1A4978
:101BE000206888422ED11948026881140A43026095
:101BF00000680840059015484038416B01221143A8
:101C00004163416B11400591416B022529434163BA
:101C1000406B0024284005900320C002009005205E
:101C2000029403946946019504940007FFF76EF847
:101C30000820009002940394694601950494044896
:101C4000FFF764F807B030BD00300140401002409B
:101C500000040050FFB5054604464035287F0027A4
:101C600081B01646012809D001202877FFF70AF92C
:101C70000090687F012804D0022795E0022005B07B
:101C8000F0BD0298002872D0002E70D00320687733
:101C9000002020660299A163A687E6872064A880B9
:101CA000E8802065E0640122A068D20340219042D0
:101CB00008D1206802688A430260206802680B022B
:101CC0001A43026020680268520602D402680A437E
:101CD00002600721E06809028842606826D900286E
:101CE00001D0012E1ED1A06B21680088C86006E0DB
:101CF00020688168890709D5A16B0988C160A06B3C
:101D0000801CA063E08F401EE0870BE0FFF7BAF86D
:101D10000099411A0498814202D3401C02D039E054
:101D2000002837D0E08F0028E2D126E0002801D03B
:101D3000012E1FD1A06B21680078087306E020688F
:101D40008168890709D5A16B09780173A06B401CD4
:101D5000A063E08F401EE0870CE0FFF793F8009946
:101D6000411A0498814203D3401C03D012E01AE0C8
:101D700000280FD0E08F0028E1D12046009A049976
:101D800001F035FA002801D020202066A068002844
:101D900002D005E0032707E02068C1688068009052
:101DA000206E002800D001270120687700202877C6
:101DB000384664E703490A6803235B029A430243F7
:101DC0000A6070470000014070477047704770B567
:101DD000040005D025462035687F002802D006E0A3
:101DE000012070BD00202877204600F017F802205F
:101DF0006877211D206801F041FB012240342272E6
:101E0000AA77EA7722706270A270E2702271627122
:101E1000A271E2716A77002070BD000010B586B033
:101E2000044614216846FEF7CCF910492068884220
:101E30001AD10F480268C9130A43026000680840BB
:101E40000B49059040394A6B022002434A63496BB3
:101E500000900140019000200591029003900490B1
:101E600069460448FEF752FF06B010BD002000404E
:101E70004010024000040050014620314A7F012AF0
:101E800001D00120704702224A770168CB68012205
:101E90001343CB6000680B49884205D00A49884249
:101EA00002D00A49884207D18168094B19400629A6
:101EB00005D0DB1F994202D0016811430160002068
:101EC00070470000002C0140000400400040014029
:101ED000070001007047000070B504460068016902
:101EE0000025C9438907002915DBC168C943890753
:101EF00011D4E91E016101202077206880698007E4
:101F0000204602D0FFF7E6FF04E000F0A7F82046E5
:101F100000F0A5F8257720680169C943490717D45F
:101F2000C168C943490713D40421C9430161022090
:101F30002077206880698005800F204602D0FFF757
:101F4000C9FF04E000F08AF8204600F088F8257701
:101F500020680169C943090716D4C168C943090744
:101F600012D40821C9430161042020772068C06988
:101F70008007204602D0FFF7ADFF04E000F06EF8C6
:101F8000204600F06CF8257720680169C943C9062E
:101F900017D4C168C943C90613D41021C9430161CC
:101FA000082020772068C0698005800F204602D075
:101FB000FFF790FF04E000F051F8204600F04FF8E2
:101FC000257720680169C943C90708D1C168C94399
:101FD000C90704D1891E0161204600F041F820683C
:101FE0000169C943090609D4C168C943090605D472
:101FF0008021C94301612046FFF7E7FE206801699F
:10200000C943C90508D4C168C943090604D41249A3
:1020100001612046FFF7D8FE20680169C9434906DF
:1020200009D4C168C943490605D44021C9430161A7
:10203000204600F01FF820680169C943890609D4C9
:10204000C168C943890605D42021C94301612046DE
:10205000FFF7BCFE70BD0000FFFEFFFF704770473A
:1020600010B500680249884201D1FFF7C5F810BDDC
:1020700000100040704710B5014680310A79012AEE
:1020800015D001220A7124228A600268136814683C
:1020900064086400146001225207934300224266E0
:1020A00000680360202088600A71104610BD02207D
:1020B00010BD7047704770B50446054680342079DE
:1020C00001281AD0012020712420A0602868066809
:1020D00002685208520002602868826807235B0683
:1020E0009A430A438260284601F08AFA286806600B
:1020F0002020A0600020207170BD022070BD70B54E
:102100000446054680342079012819D00120207129
:102110002420A06028680668026852085200026005
:1021200028688268D200D2080A438260284601F0FB
:1021300067FA286806602020A0600020207170BD2A
:10214000022070BD70477047F8B5054604468035DB
:10215000A868EE6821688A6810271206002A1BDA30
:10216000212819D1EFF31080012282F310888A68A8
:1021700080239A438A6080F31088E06F002808D09B
:10218000FEF73AFC002804D0E06FFEF7ADFC2028F3
:1021900024D0204601F0B0FB2168886840061BD59A
:1021A000222E19D1EFF31080012282F310888A6861
:1021B00040239A438A6080F310882868002808D05A
:1021C000FEF71AFC002804D02868FEF78DFC2028B2
:1021D00004D0204601F05EFB0020F8BD2F610320F3
:1021E000F8BD7047F8B503680446D96918689A685D
:1021F000B44D0E462E4025468035002E75D0B24E89
:10220000B24F1640074037436ED0CF0706D0C70500
:1022100004D501271F622B693B432B618B0708D52F
:10222000D30706D0276802233B622B6904273B4370
:102230002B614B0708D5D30706D0276804233B62E0
:102240002B6902273B432B610B0709D52023034051
:10225000334305D02668082333622E691E432E615E
:102260000B0509D5430107D501232668DB0233623C
:102270002B69202633432B612B69002B42D0890622
:102280000AD520210840C9050A40104304D0616FD7
:10229000002901D0204688472869216889684906B5
:1022A00002D42821084232D0204601F0F3FA2168F6
:1022B0008868400627D5EFF31080012282F310884A
:1022C0008B68402293438B6080F310882868002835
:1022D00019D07F4981632868FEF7C8FB002811D018
:1022E0002868816B0DE000E017E08E0615D5012708
:1022F00020263F07064017403E430ED0616FB5E0F1
:1023000020468847F8BD2046FFF76BFFF8BD204602
:10231000FFF767FF00202861F8BDE66E012E7DD132
:10232000CE067BD5C60679D510221A622368986836
:10233000264640064036002849DA29680868406881
:102340000004000CE8D0B78B8742E5D9F083086819
:102350000068800634D4EFF31080012181F31088E7
:1023600019681701B943196080F31088EFF31080E2
:10237000012181F3108821688B685B085B008B600A
:1023800080F31088EFF31080012181F31088216819
:102390008B684027BB438B6080F310882020E86067
:1023A0000020E066EFF31080012181F3108821689E
:1023B0000B6893430B6080F310882868FEF71CFBC2
:1023C00002202067B08BF18B401A81B235E0B08BD0
:1023D000F18B401A81B2F08B00289DD000299BD050
:1023E000EFF31080012686F310881E68FF2721373F
:1023F000BE431E6080F31088EFF31080012383F347
:10240000108823689E68304FFF433E409E6080F3F3
:1024100010882020E8600020E06600E011E060679E
:10242000EFF31080012383F3108823681D68954320
:102430001D6080F31088022020672046FFF739FED8
:10244000F8BDCE0208D5560206D501200005186257
:102450002046FFF778FEF8BD0E060BD50127802633
:10246000FF0506403A40164304D0A16F002900D072
:1024700046E7F8BD4A0614D5420612D52046EFF3CA
:102480001081012282F310881A684024A2431A6046
:1024900081F310882021A9600021816700F05BF999
:1024A000F8BD0A0205D5420003D52046FFF74AFED3
:1024B000F8BDC901FCD50028FADA2046FFF7FAFD7D
:1024C000F8BD00000F08000001000010200100040A
:1024D0007537000870B5040005D025468035A8681A
:1024E000002802D006E0012070BD0020287120469F
:1024F00000F026F82420A8602068016849084900F7
:102500000160204601F016FA0128EDD0A06A0028EB
:1025100002D0204601F096F8206841680922D202D4
:1025200091434160206881682A229143816020683C
:102530000168012211430160204601F0E9F870BDF5
:10254000F0B58DB0064614216846FDF73AFE1C2111
:1025500005A8FDF736FE3149306888425CD101207C
:1025600000240590069405A8FEF704FF002801D07A
:10257000FDF70BFF2A480268012189030A43026024
:10258000006808400C9026484038426B02210A43FC
:102590004263406B6A4608400C90C02013C203940B
:1025A000694620480494FEF7B1FB204D1E48286080
:1025B00033206860294610208027083191C16C6162
:1025C000AC61EC6128462C62FEF7F0FA002801D0DD
:1025D000FDF7DBFEF567AE621348144D14305C3531
:1025E0002860AC60EC606C61AC61EC612F61322002
:1025F0002C6268602846FEF7D9FA002801D0FDF762
:10260000C4FE80208551002203211B20AE62FEF70C
:1026100087FE1B20FEF778FE0DB0F0BD00380140AC
:1026200040100240000400506C000240C80400202A
:1026300070B58C231B58202B01D0022070BD0029BF
:102640000BD0002A09D0012483682403A34206D1B9
:102650000369002B03D1CB0701D0012070BD0023FB
:10266000C366046863681B020BD5EFF31083012572
:1026700085F3108825680126B6063543256083F367
:10268000108801F01FFA70BD70477047FFB507460C
:1026900004468037B86883B00D46202802D0022057
:1026A00007B0F0BD002D0CD00598002809D00120FE
:1026B000A1680003814206D12069002803D1E80700
:1026C00001D00120ECE7002038612120B860FEF73E
:1026D000D9FB0190264640360598B0820598F082D5
:1026E0000120A1680003814202D12069002802D0A4
:1026F0000295002515E00020029012E000228021C2
:10270000204601F035FA002818D10298002817D089
:102710002168007888620298401C0290F08A401E6E
:10272000F082F08A019B002806980090E6D10022F2
:102730004021204601F01CFA002808D00320AFE712
:1027400028882168C005C00D8862AD1CE6E72020FE
:10275000B8600020A4E77047FEE7000010B5064807
:10276000006880694005400F034802D0FEF7DBFB9C
:1027700010BDFEF707FC10BD6C01002010B5064827
:10278000006880694005400F034802D0FEF7CBFB8C
:1027900010BDFEF7F7FB10BDC001002010B5806A28
:1027A0000021826B002A00D09163C26B002A00D006
:1027B000916300F08FFA10BDF0B504460022CE07F9
:1027C00040342823B025002E05D0667842221F46CB
:1027D000B74300D0F2228E0705D5442664783243F1
:1027E000A34300D02A43CB0B01D0B8231A431029AE
:1027F00008D0202907D0402905D0006801689143FE
:102800000160F0BD90210A43F7E701688A69D2436D
:10281000920701D400228A6200688169C943C9070E
:1028200003D081690122114381617047F8B50546E3
:1028300004464035687828218143206804D0082167
:10284000C16100202870F8BD8169C903CF0F81697B
:10285000FE230E0C81681E408A05C168920D194046
:102860008C46E168022916D10621D3090E400B409F
:102870009E420FD1A16C491CA164A16C0229E2D136
:102880000021A1640823C361297039462046FEF760
:1028900049FBF8BD66460121C9032046FFF78CFFBE
:1028A000002028703246F0E7F8B50546044640356A
:1028B00068780026AE70334AE2626685626C0A432D
:1028C000626428281ED029281CD02A281AD02E4914
:1028D0002046FFF771FF6878602801D020206870DB
:1028E0006663206BA16B294F002903D0112812D0F9
:1028F000212810D0E16B002925D0122827D02228CA
:1029000025D020E003212046FFF756FF28206870DD
:102910001F486063E5E720680168490404D5016841
:102920000122920391430160A06BFEF7DFF80128BA
:1029300009D0A06B87632E70A06BFEF797F8002874
:1029400004D0A06B1AE0204600F0C4F9F8BD20685E
:102950000168090404D501680122D2039143016092
:10296000E06BFEF7C3F80128EDD0E06B87632E70B3
:10297000E06BFEF77BF80028E8D0E06B816B8847BE
:10298000F8BD00000000FFFF038000009D27000845
:10299000A52B000870B504461648E06200252563A3
:1029A000202220464030064642708570C843656349
:1029B000400712D42068406A616A0870606A401C4F
:1029C0006062208D002808D0401E2085608D401E4A
:1029D0006085606C04210843606407492046FFF766
:1029E000EBFE21681020C86135702046FEF72EFBF3
:1029F00070BD00000000FFFF03800000F8B5026812
:102A0000044616680546403568780F462021D16196
:102A1000212806D0292804D0222808D02A2806D028
:102A20000CE042492046FFF7C7FE212005E03F4960
:102A30002046491CFFF7C0FE222020632068416821
:102A40000122D2031143416020684168384A114095
:102A500041602046FFF7D9FEF043410407D42068C7
:102A600001680122920391430160A06B08E0000419
:102A70000BD4206802680121C9038A430260E06B1D
:102A8000002802D0006840686085F84340070421B0
:102A900000280FDB20688F43406A626A1070606A0A
:102AA000401C6062208D002804D0401E2085608D6F
:102AB000401E6085608D002802D0606C0843606411
:102AC0000026AE706663606C00280BD0616C2046F7
:102AD000FFF7EAFE6878282803D139462046FFF739
:102AE00059FFF8BDE06A134FB8420BD0204600F002
:102AF00023F8E7622020687026632E702046FEF7D8
:102B0000A5FAF8BD6878222807D0202068702663CF
:102B10002E702046FEF76FFBF8BD202068702663FC
:102B20002E702046FEF766FBF8BD00000180000015
:102B300000E800FE0000FFFF70B505460068016870
:102B400000262C464034A670C9434A0403D40168C9
:102B50000122920304E0090404D401680122D20393
:102B6000914301606178282029290ED061782A29B3
:102B70000AD160702220286302212846FFF71CFE3C
:102B800026702846FEF736FB70BD60702120286352
:102B900001212846FFF710FE26702846FEF72BFB82
:102BA00070BD0000FEB5C56A044606464036019178
:102BB0003078012828D0012030700198D743C043D5
:102BC00000908006002805DBB80603D42046019952
:102BD000FFF714FF00983D493D4AC00630D4F8067F
:102BE0002ED4638D1020002B10D02168C861606C3A
:102BF000042108436064002D01D0954262D1616CCC
:102C00002046FFF751FE5DE00220FEBD7278282AC3
:102C100008D101225206954204D120460199FFF7BE
:102C2000B9FE4FE07278292A07D18D4205D021687C
:102C3000C8612046FFF7E9FD41E02168C86141E035
:102C40000098400717D4780715D4608D00280CD061
:102C50002068406A626A1070606A401C6062208D61
:102C6000401E2085608D401E6085608D002829D122
:102C70008D4224D126E00098000706D4380704D4FA
:102C800020460199FFF7D2FD1CE00098800719D477
:102C9000B80717D4608D00280DD0606A21680078CD
:102CA0008862606A401C6062608D401E6085208D75
:102CB000401E208506E0954201D0002D02D120461D
:102CC000FFF73AFF00203070FEBD00000000FFFF5C
:102CD0000000000110B5014640314B780022602B06
:102CE00004D002630A70FEF755F910BD20234B7023
:102CF00002630A70FEF715F910BD8068C007C00FA7
:102D0000704780684007C00F7047C0680005800F9B
:102D100001D00020704701207047026807239B05FF
:102D20009A430A430260704710B543690424214066
:102D300007248C40A3438A401343436110BD000025
:102D4000FEB50024274800940194254902940160AF
:102D5000012149058460416008264661C460016123
:102D60000476012544768576446203218462C1613C
:102D7000014620310D7344632A03846302630D7797
:102D80001C21016484648021C4644164FDF7C0FC9B
:102D9000002801D0FDF7F9FA019469461148009521
:102DA0000294FDF7F9FA002801D0FDF7EEFA0E487B
:102DB00000900420019069460A48FDF7EDFA0028CA
:102DC00001D0FDF7E2FA09480090694601960548EE
:102DD000FDF7E2FA002801D0FDF7D7FAFEBD0000AA
:102DE00000240140AC000020040000080800000C92
:102DF00008B51048816B012211438163806B032168
:102E00001040009000220920FEF78AFA0920FEF700
:102E10007BFA002203210A20FEF782FA0A20FEF73D
:102E200073FA002203210B20FEF77AFA0B20FEF73B
:102E30006BFA08BD0010024010B50E4A0A2110209E
:102E400001F038F80C4C0B4AE0606C3A00210B485A
:102E500001F065F8074A2060483A0021084801F06F
:102E60005EF8044A6060243A0021064801F057F8F1
:102E7000A06010BD1C530008000000200D020008D7
:102E8000D13300084D020008F0B587B01421684620
:102E9000FDF797F96948416B042739434163416B5A
:102EA00039400591426B20210A434263426B0A403C
:102EB0000592416B012529434163416B29400591EE
:102EC000416B022631434163416B31400591426BB6
:102ED00008210A434263406B0022084005908902A2
:102EE0005748FDF7C9FF0521002249035548FDF762
:102EF000C3FF0520002269020007FDF7BDFF012284
:102F0000C0214F48FDF7B8FF212105200122890289
:102F10000007FDF7B1FF012209214B48FDF7ACFF87
:102F20008320800100240090029469460195039457
:102F30004348FDF7EBFE10206A4651C20520694662
:102F40000007FDF7E3FE40200090032003900520DA
:102F500004900196029469460007FDF7D7FE802091
:102F6000009005200490029401960394694600079E
:102F7000FDF7CCFE0294009569463248019604950F
:102F80000394FDF7C3FE21200004019069460097D9
:102F900002942C48FDF7BAFE0520400300900294ED
:102FA0006946019503942748FDF7B0FEA8030090F9
:102FB0000194694602942348FDF7A8FE2802009078
:102FC00005200194694602940007FDF79FFE432007
:102FD0004002009005200294694601950394000781
:102FE000FDF794FE09200090029469460195039430
:102FF0001548FDF78BFE11252D04694612480096F1
:1030000001950294FDF782FE019469460E480097EF
:103010000294FDF77BFE30200090694601950294F2
:103020000848FDF773FE002203210620FEF778F919
:103030000620FEF769F907B0F0BD0000001002405D
:103040000008005000040050000C005010B5134858
:1030500011490160124941600021816001614161B3
:1030600081610122C161C2600162FDF795FF002804
:1030700001D0FDF78AF900210848FDF709FF002873
:1030800001D0FDF782F900210448FDF726FF002852
:1030900001D0FDF77AF910BD005400406C0100200A
:1030A000BC7D701010B51348114901601249416090
:1030B000002181600161416181610122C161C260C1
:1030C0000162FDF769FF002801D0FDF75EF90021DC
:1030D0000848FDF7DDFE002801D0FDF756F9002174
:1030E0000448FDF7FAFE002801D0FDF74EF910BDA7
:1030F00000580040C0010020BC7D701010B5114880
:103100000F490160FF210531416007221202C260B0
:103110000021816002220261012242615202826129
:10312000016218224162C261816207220163C262A8
:103130004163FEF7D5FC002801D0FDF726F910BD4C
:10314000003001408403002010B5094807490160A0
:10315000002141608160074A0161C2608161FEF720
:1031600036FE002801D0FDF710F910BD0020004008
:10317000E8030020FFFF000010B51B4C1948206039
:10318000E120400260600020A060E0602061A0615A
:10319000E06120620C2160626161A0622046FFF75D
:1031A00099F9002801D0FDF7F0F800210E48FEF74C
:1031B000A6FF002801D0FDF7E8F800210A48FEF735
:1031C0007AFF002801D0FDF7E0F80748FEF753FF2B
:1031D000002801D0FDF7D9F82068016810221143BA
:1031E000016010BD0038014034040020FEE7F8B54E
:1031F0000F460B4615460092032104460022C902E1
:1032000000F01CF82026002812D13B460022802125
:103210002046009500F07EF8002809D103213B46A6
:10322000002249022046009500F008F8002803D04B
:10323000206E304320660320F8BD0000FFB585B046
:103240000E460446002069460E9D17460871FDF79C
:1032500019FE411B0898451AFDF714FE03902068DB
:1032600023210C3002902A4800684843000D68432F
:1032700046E003204002864206D1002F04D1029886
:1032800001786846017100790898401C39D0FDF733
:10329000F9FD0399401AA84205D2002D03D00098E9
:1032A00000282BD02BE020684168E0229143416048
:1032B0006068C11FFD390CD10121A068C903884293
:1032C00002D04911884204D120680168402291430C
:1032D00001600120A16A4003814207D121680A6888
:1032E00082430A6021680A6802430A600120403470
:1032F000607700202077032009B0F0BD0025401E34
:103300000090206880683040B842B2D10020F3E7D6
:103310001C000020FFB581B01E4604460A9DFDF743
:10332000B1FD401B351AFDF7ADFD07462648006884
:103330004001000D684339E0701C38D0FDF7A2FD54
:10334000C01BA84205D2002D03D0009800282BD026
:103350002BE020684168E022914341606068C11F12
:10336000FD390CD10121A068C903884202D049115E
:10337000884204D120680168402291430160012005
:10338000A16A4003814207D121680A6882430A602A
:1033900021680A6802430A600120403460770020F7
:1033A0002077032005B0F0BD0025401E0090206866
:1033B00081680298884305D0002103988142BBD1DF
:1033C0000020EFE70121F8E71C0000207047000013
:1033D000044C322001F0C4FA80212046FDF744FD60
:1033E000F7E700000008005010B50448006901F03C
:1033F000D7FD012801D001F083FB10BD00E000E003
:1034000030B591B034216846FCF7DBFE0024012082
:103410000D940E940F9440021094FDF785FF012047
:103420000090000401900320089008200A90800377
:1034300002250B90079500030C9009946846FEF74F
:1034400063F9002801D072B6FEE707200D900F94B3
:1034500002210E9510940DA8FEF73CF8002801D02B
:1034600072B6FEE711B030BD7047000010B50248DB
:10347000FEF732FD10BD000080050020F0B50268A7
:103480001A4B1B4C984201D0A04203D17025AA438D
:103490004D682A43174D184E184F98420AD0A04243
:1034A00008D0174CA04205D0A84203D0B04201D0AA
:1034B000B84205D11446032212029443CA6822433B
:1034C0008024A2434C69224302608A68C2620A686F
:1034D0008262984205D0A84203D0B04201D0B842DF
:1034E00001D10969016301214161F0BD002C014056
:1034F00000040040004001400044014000480140F9
:103500000020004010B5C82001F02AFA01218120D6
:1035100000F054F82349EC2000F050F80121090391
:10352000902000F04BF80A21912000F047F8042188
:10353000802000F043F8FF21F531932000F03EF8A1
:103540001949F02000F03AF811210903A42000F0F5
:1035500035F815210903A52000F030F81349A620FD
:1035600000F02CF812480168A72000F027F8114954
:10357000A82000F023F80121C903AA2000F01EF8BA
:103580000A21AB2000F01AF80021AC2000F016F858
:103590000949B42000F012F80021A02000F00EF834
:1035A00010BD0000C3000300C8010700FF8F010029
:1035B00098000020FF1F00005F0700007CB56A46EE
:1035C0001070080E5070080C9070080AD0701171BD
:1035D00001240525E4032D07002221462846FDF796
:1035E0004BFC6423052269460448FEF733FB0122A5
:1035F00021462846FDF740FC7CBD000084030020E6
:10360000F8B50446416E4034002915D00068816841
:10361000806809014D0F0A4E400F3746315C083F64
:10362000385CC000FCF79EFD6085785D715DC00070
:10363000FCF798FD2085F8BD01206085FAE70000C1
:103640005453000810B5018DC90707D001684A68B6
:1036500001235B049A43C36A1A434A60018D8907B8
:1036600007D501684A6801231B049A43036B1A4378
:103670004A60018D490707D501684A6801239B0408
:103680009A43436B1A434A60018D090707D50168C5
:103690004A680123DB039A43836B1A434A60018D16
:1036A000C90607D50268916801231B039943C36BC0
:1036B00019439160018D890607D501688A68012345
:1036C0005B039A43036C1A438A60018D490612D545
:1036D00003685A6801210905446C8A4322435A60F1
:1036E000426C8A4207D10268516803235B05994303
:1036F000836C19435160018D090607D501684A683A
:103700000123DB04C06C9A4302434A6010BD0000F1
:10371000FEB506460025803604463561FDF7B2FB4E
:10372000019020680068124F000709D50121009719
:10373000002249052046019B00F01AFA00280DD10D
:103740002068006840070BD50121009700228905F9
:103750002046019B00F00CFA002801D00320FEBD9A
:103760002020B060F060E566256735710020FEBD61
:10377000FFFFFF0110B5806A002201464031CA8375
:10378000CA82FEF72EFD10BDF8B5846A204680304F
:1037900081680546C6682068806800270006002802
:1037A00006DA212904D156200753204600F0A4F858
:1037B00020688068400606D5222E04D15E2007537B
:1037C000204600F067F82869102108432861204648
:1037D000FEF707FDF8BD70B501460968806A096803
:1037E00000228906002938DB5E210A52EFF310819E
:1037F000012383F3108803681C68FF250135AC435F
:103800001C6081F31088EFF31081012383F310888B
:1038100003689C68640864009C6081F31088EFF37F
:103820001081012383F3108803689C684025AC4312
:103830009C6081F3108820238C210B50C16E0129DC
:103840000BD1EFF31081012383F3108803681C6808
:103850001025AC431C6081F310880267C16E0129FA
:1038600002D0FEF711FF70BD5C21095AFEF721FC62
:1038700070BD10B5806A01210167C16E012902D0B7
:10388000FEF703FF10BD5C21095A4908FEF711FC41
:1038900010BD000010B5EFF31081012282F31088F3
:1038A00002681368FF242134A343136081F3108856
:1038B000EFF31081012282F31088026893680D4CA7
:1038C0002340936081F31088C16E01290BD1EFF37F
:1038D0001081012282F31088026813681024A34328
:1038E000136081F3108820228C210A500021C166C8
:1038F000416710BDFEFFFFEF10B5EFF3108101220D
:1039000082F3108802681368C024A343136081F314
:103910001088EFF31081012282F310880268936807
:103920000124E405A343936081F3108820218030B3
:10393000816010BDF8B5044680682169E2690843DA
:10394000616900251143226808431168534B1940EF
:103950000143116021684868032212039043E26822
:1039600010434860A169206A2268084391684C4B63
:103970001940014391602068C16A626A090909011E
:103980001143C162474A2068474990420AD14869B9
:103990008007800F20D0012814D0022810D00328DF
:1039A0001CD111E0414A904210D148690C210840D5
:1039B00012D0042806D0082802D00C280ED103E02B
:1039C00002210CE004210AE0082108E0384988427D
:1039D00002D03849884201D1002100E010210122A3
:1039E000E369D2033448354E354F934227D100293D
:1039F00006D002290BD0042905D008293DD11CE0AE
:103A0000FDF730FE01E0FDF741FE00283CD0616A81
:103A10004900715AFCF7A6FB616840004A0880180B
:103A2000FCF7A0FB01461039B94226D82449491CAD
:103A300001400007400F084324E01046E7E7002953
:103A400006D002290BD0042905D0082915D116E08B
:103A5000FDF708FE01E0FDF719FE002814D0616AA9
:103A60004900715AFCF77EFB61684A088018FCF730
:103A700079FB01461039B94203D9012504E010460B
:103A8000EDE780B22168C8602046012140304185C1
:103A9000018500206067A0672846F8BDF369FFCF65
:103AA000FFF4FF1100380140401002400044004084
:103AB00000480040004C00400024F400345300084B
:103AC000EFFF000070B5044681654030828300201E
:103AD0002546803528612221E9602968002919D00E
:103AE000204BCB622B68204919632B681F4959630F
:103AF000296813468863A66D2168324624312868F8
:103B0000FDF7A6F8002805D0102028612020E860E5
:103B1000012070BD206900280CD0EFF31080012136
:103B200081F3108821680A68FF2301331A430A6071
:103B300080F31088EFF31080012181F31088226850
:103B400093680B43936080F31088EFF3108081F348
:103B5000108821688A6840231A438A6080F310889D
:103B6000002070BDD7370008733800088937000877
:103B7000FFB581B005461746044680350A9E54E0DD
:103B8000701C52D0FDF77EF90499401AB0422FD82C
:103B9000002E2DD020680168490746D5C069C04372
:103BA000000542D401202168C0020862EFF31080B2
:103BB000012181F3108821680B68FF22A132934311
:103BC0000B6080F31088EFF31080012181F31088DF
:103BD00021688A68520852008A6080F31088202089
:103BE000A860E860286100202871032005B0F0BDBE
:103BF000EFF31080012181F3108821680A68FF2308
:103C0000A1339A430A6080F31088EFF310800121FA
:103C100081F3108821688A68520852008A6080F314
:103C200010882020A860E860DDE72068C16902985C
:103C3000884304D00020B842A2D00020D6E701205B
:103C4000F9E7000010B50D480068C169C90610D534
:103C5000102101620948FEF777FA0A4800231A4644
:103C60000749006801F05AF80A2205490348FEF79F
:103C7000DFFC0248FEF7B6FA10BD00003404002055
:103C8000A00000200C0000200FB410B503A9044BC5
:103C9000044A029800F047F810BC08BC04B018476A
:103CA000F93D00089C00002030B47446641E25785D
:103CB000641CAB4200D21D46635D5B00E31830BC60
:103CC000184700008307FF22DB0E9A408907090E80
:103CD0009940002808DB830809489B001B181868D6
:103CE00090430843186070470007000F08388308A6
:103CF00004489B001B18D86990430843D86170475B
:103D000000E400E000ED00E002E008C8121F08C176
:103D1000002AFAD170477047002001E001C1121F4C
:103D2000002AFBD17047FFB581B00546002706E0A9
:103D300025280AD0049A039990476D1C7F1C287887
:103D40000028F5D1384605B0F0BD002269786D1C19
:103D500010462E2913D1697804226D1C2A2909D115
:103D600002996D1C01C9029109E00A2358433038B9
:103D700008186D1C29780B46303B092BF5D92B7898
:103D8000002BDFD0632B07D0732B10D0049A18467A
:103D9000039990477F1C2DE002996C460B782370A5
:103DA000091D0291002161706E46012104E0029913
:103DB00040C902910021C94352070AD5002400E0FE
:103DC000641C84420DDA8C42FADB325D002AF7D1A2
:103DD00007E0002400E0641C8C42FCDB305D00281E
:103DE000F9D13F1904E03078049A761C0399904782
:103DF000641EF8D26D1CA2E738B50446684604700C
:103E0000034B012269460348FEF740FC204638BDBB
:103E1000FFFF000034040020FDF7F6F9FFF7F0FA89
:103E2000FFF732F8FEF7E4FFFEF78AFFFFF70EF91F
:103E3000FFF738F9FFF762F9FFF79EF9FFF784F90A
:103E400000F006F8FEF7F8FF00F016F8FEE70000B5
:103E5000EFF30580002802D00520C04370470548D5
:103E60000168002902D00020C04370470121016091
:103E7000002070477000002010B5EFF30580002887
:103E800002D00520C04310BD08480168012902D0B6
:103E90000020C04310BD0649CA691202120ACA6155
:103EA0000221016000F0ACFD002010BD7000002078
:103EB00000ED00E0F8B514460025EFF30582002A76
:103EC0002BD1002829D0002927D0002C19D0A36895
:103ED000E268002B0DD0502A1FD32269002A1CD083
:103EE000074666694F43BE4217D3009500F034FE83
:103EF0000AE0002A11D12269002A0ED16269002A43
:103F00000BD1002200F00EFE050006D0002C01D0DF
:103F1000216800E0002100F0EFFC2846F8BDF0B574
:103F20008C4685B000210391EFF3058100293FD134
:103F300000283DD0802518210024002A2CD01368A9
:103F4000002B00D01C469369002B03D019465B1E42
:103F5000382B02D21379DB0702D0002005B0F0BD68
:103F60005669002E00D0B5089768D368002F0ED090
:103F70005C2B1DD31269002A1AD0002E18D06E4671
:103F800086C663462A46214600F0E7FF0FE0002B75
:103F90000ED11269002A0BD103AA01920091AAB294
:103FA0006346214600F0B0FF012801D000200390B5
:103FB0000398D3E7F8B5134C0F46E668054620682A
:103FC000001D00F0DFFB681C07D1002F05D0216821
:103FD0000D48091D00F026FCF8BD206875194560E4
:103FE0002168B54204D2A06B091D00F003FCF8BDA6
:103FF000606B091D00F0FEFBA06A8542F7D2A56246
:10400000F8BD000020000020BC0A0020F8B50546DD
:1040100000F014FC294CA068401CA0602068284FC8
:10402000002803D06069002825D02AE02560A06818
:10403000012826D1002614207043C01900F0CCFBC3
:10404000761C382EF7D31F4800F0C6FB1D481430ED
:1040500000F0C2FB1B48283000F0BEFB19483C3082
:1040600000F0BAFB1748503000F0B6FB154860630B
:104070001430A06305E02068E96AC06A884200D86D
:104080002560606A401C60626864E86A2169884251
:1040900000D9206114214843C019291D00F0C2FB3A
:1040A00000F0D8FB6069002806D02068E96AC06A81
:1040B000884201D200F014FCF8BD0000200000206E
:1040C0000C0600206C0A002038B500F0B7FB114C3C
:1040D000206800281AD1104800F07EFB0E481430EA
:1040E00000F07AFB0C48E06014300B4B206100209C
:1040F000F03B1A460090503210210A2000F02CFDAF
:104100002060002802D005A100F0F6FB00F0A2FB21
:1041100038BD00005C000020C00B0020546D7251BF
:104120000000000010B5026C0C46002A0CD0C168DB
:104130008B18C36081688B4201D2194601E0016887
:10414000C1602046FCF724F810BDF8B5856B174612
:1041500004460026026C002A11D0002F19D0E06816
:10416000FCF716F8E168206C091AE16022689142B8
:1041700002D2A168081AE060022F17D019E0206867
:10418000002816D1A06800F07FFF06460020A0603E
:104190000FE06068FBF7FCFF216C6068401860600E
:1041A000A168884205D32068606002E0002D00D03D
:1041B0006D1E6D1CA5633046F8BD10B50446403039
:1041C000407E002805D0012806D0022807D072B60C
:1041D000FEE7206B00F04CFB204600F049FB10BDD1
:1041E00003210E488902420705D0C01DC0080B4AB2
:1041F000C000821A891A0A4A0023411809C20839E4
:10420000C908C900203A11604B600B600B1A0AC044
:1042100093600120C007536050617047A0120020D6
:104220008C0000200F4E104C104F11E000F006FBE8
:10423000F068C568281D00F0A5FAA068401EA060BF
:104240006068401E606000F005FB2846FFF7B5FF80
:1042500060680028EAD138680128F9D900F040FBED
:10426000F6E70000A80A0020200000200C0600202D
:1042700070B5049C1D46002909D022602164E063CA
:104280000121204600F088FC4034257370BD246075
:10429000F4E7FFB581B097000C9C0D460A9EA5225D
:1042A0003946206BFBF786FF206B3F1FC019C00803
:1042B000C0000090400701D072B6FEE727464037A5
:1042C0000021002D0CD0002023182A5C20331A7501
:1042D0002A5C002A02D0401C1028F5D3F97001E0B6
:1042E00034200155382E00D33726E662E6640D46A9
:1042F000201D216500F07BFA2046183000F077FA87
:1043000024613820801B6462A06165653D76049A53
:104310000199009800F026FA20600B98002800D040
:10432000046005B0F0BD000030B5114900E0114651
:104330000A688242FBD34B685C18844203D1406810
:1043400018184860084643681C18944209D1084C64
:10435000183C2468A24209D052689A1842600A6840
:1043600012680260814200D0086030BD0460F9E745
:104370008C00002070B5002441600B4D006191421B
:1043800006D8D11A8269914206D2011D286907E038
:104390009A4203D2994201D3012403E0011DE86847
:1043A00000F028FA204670BD5C00002010B50446DD
:1043B00000F044FAA06B002804D0002400F04AFA70
:1043C000204610BD0124F9E7F0B587B00125374E2E
:1043D00063E00198002806DA029A0499039890474E
:1043E0000198002859DB039C6069002802D0201D39
:1043F00000F0C8F905A800F0BFF8024601980300D4
:10440000FFF752FC0A060606282E3F0606282E4B0A
:1044100027462037387A284338720298A169034624
:1044200041182046FFF7A6FF002836D0216A204613
:104430008847387A400730D5002000900298A1695B
:10444000002342181946204600F008FF002824D116
:1044500072B6FEE72034207A4008400020721CE04B
:1044600020462030017A294301720298A061002879
:1044700005D0811813462046FFF77CFF0DE072B689
:10448000FEE720462030017A8A0703D4204600F058
:10449000EFF902E0490849000172002201A93068E1
:1044A00000F083FC002894D107B0F0BD5C00002030
:1044B000FEB50E46044600F0D7FA01A800F05CF8FD
:1044C00005460198002802D000F044FEFEBD214FB1
:1044D000002E10D038690068002838D00026611BF3
:1044E0003246386800F01AFA00F034FE0028EDD1A8
:1044F00000F0F6F9FEBDAC42F1D800F02BFEF868F2
:104500002E46C068C568281D00F03CF929462031B8
:10451000087A420714D5A86923460119324628466D
:10452000FFF728FF00280ED0002003460146009028
:104530002246284600F092FE002804D172B6FEE71B
:10454000400840000872296A28468847FEBD0126B7
:10455000C5E700005C0000200648416B096800299F
:1045600005D0416BC968C9684968816270470021FC
:10457000C943FAE72000002070B5054600F020FD91
:10458000064E0446B068844203D200F009F80120C8
:1045900000E0002028602046B46070BD5C00002070
:1045A000F8B5174D21E0C068C4680668201D00F00A
:1045B000E9F8216A204688472820005D400714D585
:1045C000A0698019B04206D924616060211DE868A5
:1045D00000F010F909E00020034601460090324641
:1045E000204600F03BFE002807D0E868016800295B
:1045F000D9D12969E9602861F8BD72B6FEE70000EB
:104600005C00002003480068401C72B600D0FEE742
:10461000FEE7000094000020074CE06801680029D4
:1046200007D0C06800210068FFF742FFFFF7CCFE0B
:10463000F3E701210020F7E75C000020F8B504460D
:1046400000F0FCF8254640350526AE5727462437AE
:104650000BE0606A00280AD0384600F049FD0028C7
:1046600001D000F09DF9761E76B2002EF1DC002715
:10467000FF436F7100F0EEF800F0E0F80426AE574B
:104680002046103000900BE0206900280AD00098E6
:1046900000F02EFD002801D000F082F9761E76B2DF
:1046A000002EF1DC2F7100F0D5F8F8BDF8B5054605
:1046B000002700F0D9F92A4E3068002801D1FFF711
:1046C0008FFD7069054242D1002D40D00835680742
:1046D00008D06807400F0821081A4519680701D05B
:1046E00072B6FEE7002D32D0706885422FD81C4884
:1046F000183001460C6801E020460C466168A9426A
:1047000002D221680029F7D131688C421FD0076896
:104710002168016060680837411B102908D96019B9
:10472000420701D072B6FEE741606560FFF7FCFD0D
:1047300061687068401A7060B268904200D2B060E0
:1047400070690143002003C4F068401CF06000F071
:1047500001FD780701D072B6FEE73846F8BD0000CB
:104760007400002010B50124031F24061C601B1FC9
:104770001960191F024B0B60143940380A6010BDD4
:10478000054600084368826801699A608368426848
:104790005A604A68824201D182684A6000220261FE
:1047A0000868401E0860086870470000034B0360FB
:1047B00018465C300860802010607047E80B0020CD
:1047C000044B036018465C300860FF200130106025
:1047D00070470000440E002001460831002241606D
:1047E000D243C160826001610021016070470021F5
:1047F0000161704730B50B685A1C02D0024608327E
:1048000002E0026904E02246546825689D42FAD914
:1048100053684B6099608A60516008610168491C67
:10482000016030BD42684A6093688B60936859604C
:10483000916008610168491C0160704772B60448C4
:104840000168491C0160BFF34F8FBFF36F8F704742
:104850009400002005490868002804D0401E086024
:1048600000D162B6704772B6FEE7000094000020E7
:1048700070B500281DD004460E4D083C606869697B
:10488000084201D172B6FEE72268002A01D072B652
:10489000FEE78843606000F0E7F8606869684018E8
:1048A00068602046FFF740FD2869401C286100F041
:1048B00051FC70BD7400002010B5074C0020206131
:1048C000A06106487D21C9000068FBF74BFC401E33
:1048D00060610720206110BD00E000E01C000020A6
:1048E0000120044900074860BFF34F8FBFF36F8F6B
:1048F0007047000000ED00E010B5074B0022D40027
:104900001C59002C03D0521C082AF8D310BDD20029
:104910009950D118486010BDCC05002070B51546DF
:104920000E460446FFF78AFF204640300422825696
:104930000021521C00D1017105228256521C00D167
:104940004171FFF787FFA06B002805D120462A465A
:104950003146243000F03CF82046FFF76FFE70BD72
:1049600010B502000FD00948006B002801D072B6C4
:10497000FEE700F079F800211046FFF71BFB00F07E
:10498000E9FB002801D1FFF7ABFF10BD200000209C
:1049900002490A6A0260C96841607047200000202D
:1049A00001490120C86170472000002010B50C4665
:1049B000002809D0054909681831FFF71BFF0121BC
:1049C0002046FFF7F7FA10BD72B6FEE72000002080
:1049D00070B514460D4600280DD0084909681831F5
:1049E000FFF720FF002C01D00025ED43214628468B
:1049F000FFF7E0FA70BD72B6FEE70000200000206D
:104A000030B587B00024039405AA04A903A8049430
:104A1000FFF7CCFE049903980094019102900023C3
:104A20000DA10F48059A00F098FA0E4D0028E86293
:104A300010D000F0E7FB012803D0401C0AD172B669
:104A4000FEE772B60020C043A86201206861EC60F6
:104A500000F03EF807B030BD49444C45000000006E
:104A600025420008200000200248016B491C016318
:104A7000704700002000002010B51348016B00298A
:104A800002D00121C16110BD0021C16101690F4A3D
:104A900002E0002915D0491E14234B43D358002BA4
:104AA000F7D014234B439A18536814465B680834B4
:104AB0005360A34201D15B685360DA680260016110
:104AC00010BD72B6FEE70000200000200C0600209A
:104AD00010B50948016AFF22120411430162016AFC
:104AE000120211430162FFF7E7FE0449002008604B
:104AF000FBF7EEFA002010BD00ED00E0940000206E
:104B000010B5FBF7F9FA044600F060FA002803D06C
:104B100001200349000748602046FBF7F1FA10BD69
:104B200000ED00E0F8B517460E46050012D07043C0
:104B30005030FFF7BBFD04000AD00021462001558C
:104B4000224650323B46314628460094FFF790FB00
:104B50002046F8BD72B6FEE7F8B5069D002806D0DF
:104B6000002B06D0002A08D0002904D009E072B634
:104B7000FEE772B6FEE772B6FEE7002901D072B614
:104B8000FEE750241C46012640339E712B460094BC
:104B9000FFF76EFB2046F8BD70B50D46040025D02A
:104BA000FFF74CFE216CE06B484321684118A1607F
:104BB0000021A16321686160E06B216C401E4843C5
:104BC00021684118E1600021C9432046403001714D
:104BD00041713038002D0BD0FFF7FEFD2046243008
:104BE000FFF7FAFDFFF736FE012070BD72B6FEE753
:104BF00021690029F6D000F07BFA0028F2D0FFF7F7
:104C00006FFEEFE7FFB5002683B01D46040003D01A
:104C10000498002802D006E072B6FEE7206C002857
:104C200001D072B6FEE7022D04D1E06B012801D05D
:104C300072B6FEE700F0B4F90027002804D1059809
:104C4000002801D072B6FEE7FFF7F8FDA06BE16B1C
:104C5000884207D3022D05D00598002817D0002ED2
:104C600018D01BE02A4620460499FFF76EFA616AC5
:104C7000002903D02046243000F03AFA002801D061
:104C8000FFF72EFEFFF7E6FD012007B0F0BDFFF7AE
:104C9000E1FD22E06846FFF77BFE0126FFF7DAFD23
:104CA000FFF7E2FEFFF7CAFD2046403004214156DF
:104CB000491C00D1077105214156491C00D147719B
:104CC000FFF7C8FD05A9684600F0F0F8002806D0F7
:104CD0002046FFF7B3FC00F03DFA0020D5E7FFF7D0
:104CE000ADFDA06BE16B884210D1FFF7B3FD20460C
:104CF00010300599FFF75AFE2046FFF79FFC00F0A1
:104D000029FA0028A0D1FFF7EBFD9DE7FFF7A2FDF0
:104D10002046FFF793FC00F01DFA95E7FFB581B040
:104D20001E46040003D00298002802D006E072B6A6
:104D3000FEE7206C002801D072B6FEE7022E04D1F7
:104D4000E06B012801D072B6FEE7FBF7D5F90090C1
:104D5000A06BE16B884208D3022E06D00024009895
:104D6000FBF7CEF9204605B0F0BD204640300525C2
:104D700045570746A06B324620460299FFF7E5F9F2
:104D8000681C03D06D1C7D710124E8E7606A00286F
:104D9000FAD02046243000F0ABF90028F4D0039874
:104DA0000028F1D001210160EEE7F7B5002582B0BF
:104DB000040003D00398002802D006E072B6FEE794
:104DC000206C002801D072B6FEE700F0E9F800265A
:104DD000002804D10498002801D072B6FEE7FFF73E
:104DE0002DFDA76B002F15D020460399FFF79AF9E8
:104DF0007F1EA7632069002807D02046103000F0EE
:104E000077F9002801D0FFF76BFDFFF723FD0120A4
:104E100005B0F0BD0498002802D0002D03D006E0B4
:104E2000FFF718FD27E06846FFF7B2FD0125FFF701
:104E300011FDFFF719FEFFF701FD20464030042168
:104E40004156491C00D1067105214156491C00D12B
:104E50004671FFF7FFFC04A9684600F027F8002818
:104E600020460AD0FFF7EAFB00F074F92046FFF76E
:104E70009DFA0028B3D00020CAE7FFF797FA002870
:104E80000ED0204624300499FFF790FD2046FFF70E
:104E9000D5FB00F05FF90028A1D1FFF721FD9EE7C7
:104EA0002046FFF7CBFB00F055F998E7F8B50C4624
:104EB000050012D0002C12D0FFF7C0FC114BDA68AD
:104EC0006E682068911B471C0BD02F681B6A9F429D
:104ED0000CD096420AD8012404E072B6FEE772B6FE
:104EE000FEE70024FFF7B6FC2046F8BD884205D94E
:104EF000401A20602846FFF74BFDF2E700202060B3
:104F0000E9E7000020000020FFB585B016469000BC
:104F10000F9FFFF7CBFB05001CD05C20FFF7C6FB03
:104F2000040014D000205921256308550E990091E2
:104F30000390019702943246089B06990598FFF763
:104F4000A8F92046FFF762F8012009B0F0BD284615
:104F5000FFF78EFC0020C043F7E7F0B585B00746A9
:104F60000B9D0C9C0A98002D15D0002C15D05C26AA
:104F70002563022559263555002504AE009001967B
:104F8000039502943846FFF784F92046FFF73EF870
:104F9000049805B0F0BD72B6FEE772B6FEE70000F9
:104FA00006484169002904D0006B002803D0002086
:104FB0007047012070470220704700002000002049
:104FC0000148C0687047000020000020F8B52C4C54
:104FD0000027206B002804D0A069401CA06138463F
:104FE000F8BDE668761CE6600ED1606B00680028AC
:104FF00001D072B6FEE7606BA16B6163A063206AAB
:10500000401C2062FFF7A8FAA06A86420AD3606BB0
:105010000068002814D0606BC068C5686868864264
:1050200011D2A06220681421C06A4843154908586B
:10503000012800D90127E0690028D0D00127CEE758
:105040000020C043EDE7281DFFF79CFBA86A00285D
:1050500003D028461830FFF795FBE86A216988429B
:1050600000D920611421484306494018291DFFF743
:10507000D9FBE86A2168C96A8842C8D30127C6E714
:10508000200000200C06002070B5002104460028F6
:1050900028D0154D2868844201D072B6FEE7206DF5
:1050A000002808D0401E2065E36CE26A9A4219D0BD
:1050B000002802D016E072B6FEE7201DFFF762FB63
:1050C000E06C3821E062081AA061E06A2969884230
:1050D00000D928611421484304494018211DFFF7D5
:1050E000A1FB0121084670BD200000200C06002015
:1050F00070B5C068C468002C0BD020461830064636
:10510000FFF740FB104D286B002804D031460F48B4
:105110000EE072B6FEE7201DFFF734FBE06A296956
:10512000884200D928611421484309494018211DAB
:10513000FFF778FBE06A2968C96A884202D9012032
:10514000E86170BD002070BD20000020940A00209E
:105150000C060020F8B5284C0025206B2E460028B0
:1051600008D0FFF76BFB206B401E2063206B0028EC
:1051700002D03CE072B6FEE7A168204F00291CD1A6
:1051800035E0F868C56828461830FFF7FBFA281D97
:10519000FFF7F8FAE86A2169884200D920611421F2
:1051A000484317494018291DFFF73CFBE86A21686E
:1051B000C96A884201D30120E06138680028E0D143
:1051C000002D01D0FFF7C8F9A569002D09D00127EE
:1051D000FFF7FCFE002800D0E7616D1EF8D100202B
:1051E000A061E069002802D00126FFF779FBFFF7F4
:1051F00031FB3046F8BD000020000020940A00205A
:105200000C06002010B586B0FEF75EFF0F4C20683C
:10521000002819D000200390049005AA04A903A82F
:10522000FFF7CEFA0220039A0499009002920191AE
:10523000002307A10848059AFFF78FFE6060002849
:1052400002D0012006B010BD72B6FEE75C0000205F
:10525000546D72205376630019460008F0B51D4660
:1052600085B0034600200A9E002B13D00F4C276800
:10527000002F0DD068460EC0062910DAFFF790FE09
:10528000022809D000231A4669462068FFF7BAFCB5
:1052900005B0F0BD72B6FEE700233246F4E7002306
:1052A0002A4669463846FFF739FDF1E75C000020E1
:1052B000D4530008000000000000000000000000BF
:1052C00000000000080200001800000000000000BC
:1052D00000000000BC5300080000000000000000B7
:1052E000000000000000000008020000180000009C
:1052F0000000000000000000E05300080000000073
:10530000000000000000000000000000200300007A
:10531000180000000000000000000000C853000852
:10532000000000000000000000000000000000007D
:1053300000000000010002000400060008000A004E
:105340000C0010002000400080000001010101035A
:105350000701000008040204080101010000000028
:10536000000000000000000000000000000000003D
:10537000000000000000000000000000010000002C
:10538000020000000300000004000000060000000E
:1053900007000000080000000900000000000000F5
:1053A00000000000000000000000000001000000FC
:1053B0000200000003000000040000006D79546149
:1053C000736B303200000000646174615175657563
:1053D000650000004D6F746F5F5461736B000000D7
:1053E000556172745F50726F6365737354617300BB
:1053F0001054000800000020A0000000083D000834
:10540000B0540008A000002000220000183D000851
:10541000000000000000000000000000000000008C
:105420000100000004000000000000000024F4005F
:10543000000000000000000000000000000000006C
:10544000000000000000000000000000000000005C
:10545000000000000000000000000000000000004C
:10546000000000000000000000000000000000003C
:10547000000000000000000000000000000000002C
:10548000000000000000000000000000000000001C
:10549000000000000000000000000000000000000C
:1054A00000000000AAAAAAAA0060000000000000F4
:04000005080000B936
:00000001FF
