:020000040800F2
:100000007024002049010008015A00083544000806
:1000100000000000000000000000000000000000E0
:10002000000000000000000000000000055E000865
:1000300000000000000000000701000869600008DF
:100040005B010008000000005B0100084D12000881
:10005000895B0008251200082F12000839120008D9
:10006000000000005D1100086D110008311100084A
:10007000990A00085B0100085B010008000000000D
:100080005B0100080D6100081D610008ED600008BB
:100090005B010008FD6000085B0100087144000876
:1000A000914400088D5B00085B0100087D6B00082F
:1000B0005B0100085B0100080448854600F0A6FCCF
:1000C00000480047FD750008C046C0467024002067
:1000D000084B19680868203080F30988022080F3F3
:1000E0001488BFF36F8F3FBCAE4608BC04BC62B639
:1000F000184700004C000020EFF3108072B67047E4
:1001000080F310887047EFF309800E4B1A6820388F
:100110001060F0C044464D4656465F46F0C008B5F4
:1001200072B608F02BFA62B60CBC11680868103081
:10013000F0C8A046A946B246BB4680F309882038DD
:10014000F0C818474C000020044880470448004786
:10015000FEE7FEE7FEE7FEE7FEE7FEE7E9600008F0
:10016000B900000830B50B460146002020220124CA
:1001700009E00D46D5409D4205D31D469540491BDB
:100180002546954040191546521E002DF1DC30BD24
:1001900070B500242546002801DA012440420029D8
:1001A00001DA01254942FFF7DDFFAC4200D04042B1
:1001B000002C00D0494270BD03460B439B0703D07F
:1001C00009E008C9121F08C0042AFAD203E00B781C
:1001D0000370401C491C521EF9D27047D2B201E094
:1001E0000270401C491EFBD270470022F6E710B592
:1001F00013460A4604461946FFF7F0FF204610BD95
:10020000F8B502464A40D40F42004B0052085B0842
:100210009A4202D20246084611464A0023D0C30D34
:100220004A00DDB2120EAD1A202D35DA4902012640
:10023000490AF6058A19002C00D0524220214F1B92
:100240001146B9402A411018C20D9A4221D0002C03
:1002500017D0012D08DCDA05801AD20F8019D207D9
:10026000DBB200F073F9F8BDDA05801A0123400013
:100270001B06C01880185A428018CA0F1043490044
:1002800007E04908C2071143DA05801A80194008BF
:10029000801800F053F9F8BD61000122511A001BCB
:1002A000F7E70122D2075140AAE70122D2075040C6
:1002B000A6E7024670B54A40D30FDB0740002DD0B9
:1002C0004A002AD0010E140E000212020919400A37
:1002D000520A8418E50104465443000A120A2E0407
:1002E0005043A4194219200CC543AA18120C012529
:1002F000AD03521C521912047F39240400D0521C41
:10030000104301D44000491EC2B20C06C009201897
:10031000401C4008802A02D003E0002070BD400845
:100320004000002900DA0020184370BD70B5024675
:100330004A40D50F40004A00ED0740085208002807
:1003400014D0002A12D0C40DD30D41020120C005E3
:100350005202490A520AE41A091812187D349142CD
:1003600001D3641C00E04900002C01DA002070BDBC
:100370000023914201D3891A034340084900002811
:10038000F7D100290AD0914202D10121C90705E025
:10039000914201D2012101E00121C943E005C018C9
:1003A000401900F0CBF870BD70B54B005B080343FB
:1003B0000BD04B005C0D002633466542B341D41789
:1003C000AD1AA34102DB0020014670BD12053018B2
:1003D000514170BD10B500229623114600F0B6F8C9
:1003E00010BD00000EB5C217C10F5040CA0740181B
:1003F0000021054B0293019200910A460B4600F042
:10040000EBF803B000BD000033040000C20F410050
:1004100040020123400ADB05D207090EC0187F29DC
:1004200001DA00207047962903DC9623591AC84048
:1004300001E096398840002AF4D0404270474100DC
:1004400040020122400AD205090E80187F2901DAF4
:1004500000207047962903DC9622511AC840704745
:10046000963988407047C20FD207400040080BD031
:10047000C10D0723DB01C91840020905400A1143D9
:10048000C208400711437047002001467047CB0F58
:10049000DB07490010B5490802460A4307D00A0D98
:1004A00007240903E401090B121B002A01DC0020C8
:1004B00010BDC900440F0C43C100E018D2058018DC
:1004C00000F03CF810BD00000122D207002800DB3C
:1004D000101A002900DB511A88427047F0B51FB48A
:1004E0000646002082B005464024019100901BE0A2
:1004F000019922460F46304600F0AAFA049A059B5D
:10050000801A994110D310461946224600F090FAFD
:10051000361A8F410197224601200021009F00F0EA
:1005200087FA38184D4100902046641E0028DFDC11
:10053000019B00982946324607B0F0BD002904DA35
:10054000401C490001D140084000704770B40024AD
:10055000050C05D11024000402D1002921D011245A
:10056000050E01D100020834050F01D10001241D40
:10057000850F01D18000A41C002801DB4000641C11
:10058000002908D020252E1B0D46F540A14000D0A3
:1005900001212943084301061B1B000ADB1D02D56C
:1005A000002070BC7047DB05181880180029F8DAA5
:1005B000401C4900F5D170BC40084000704710B5A0
:1005C000002B08DA0024401C614192185B411A4359
:1005D00001D14008400010BDF0B51FB482B00546FF
:1005E0000C0003D0084606F031FB02E006F02EFBBB
:1005F0002030024600902146284600F019FA049B5C
:10060000059A04460F4618431143084314D0184670
:1006100010431BD0009840210A1A1846059900F093
:1006200017FA05460E46009A0599049800F000FA5C
:10063000084305D0012004E02046394607B0F0BD4C
:100640000020C11705430E432C43374300990E98F1
:100650006305401A7905E40A00220C43FD0A0A30BA
:1006600002D500200146E9E70105101969410C9CFB
:100670000D9D00196941FFF7A2FFDFE7F0B50746BE
:100680000846584087B0C00F049048000E465900F5
:1006900040084908BC1A884105D2384631461E46F2
:1006A00017460B4602465800400810434DD0300D07
:1006B000039040055900400D490D0590401A0290E5
:1006C000402873DA18030121000B09050843019043
:1006D00004980092002806D01146019A4942002051
:1006E000904100910190029840210A1A01990098C6
:1006F00000F09EF905460C466B4607CB00F0B9F9B1
:10070000C0197141039A0E0D0023D71756401A469F
:100710007A40164344D0049A002A2DD0029A012A26
:10072000039A15DC1205C01A914101263605001CFA
:100730007141D20F059ED2070093019202962A467C
:100740002346FFF749FF07B0F0BD38463146FAE7C8
:100750001605234A0F46B218C01AB74101210905F0
:10076000001C4F4100187F41114618187941E20FD3
:1007700010436D19644113E0E2076D0815436408E6
:10078000C2071443039A01261205C01A9141360587
:10079000001C7141CE07400830434908C018514140
:1007A0002A462346FFF70BFFCDE7FFE70498012217
:1007B0004000C117121A00238B4104983146C41718
:1007C000381AA141EEE730B40124E407634030BC9D
:1007D00054E730B40124E407614030BC4EE7000028
:1007E0000000E0FFF0B51FB488B00B990998002411
:1007F00048400999C00F490049080991C0070B9961
:100800000090490049080B9109990898A6460843A9
:100810001CD00B990A98084318D00998012440006D
:10082000420D4800410D099824050003000B2043A8
:1008300009900B980003000B20430B9050181C49A3
:100840004018002201901446104605E000200146A1
:100850000DB0F0BD032801DA034600E003239C46F7
:10086000C11A0AAE0AE05F0008ADED5B4F00F75B0E
:100870007D430027AA187C41491C5B1E6145F2DDBF
:10088000410004AB5A522104120C0A43240C401CB0
:100890000828DFDB019802900099704601910090D2
:1008A000059B049A07990698FFF796FED0E700008B
:1008B0000DFCFFFFF0B50C465C4085B0E40FE4078B
:1008C00003944C00002664085900944649080246E7
:1008D0000296224321D062460A431ED06200570D81
:1008E0004A000E032303550D012402462C4924051A
:1008F000781B1B0B360B40182343264361460090A0
:100900001C46501AB44103D30098401C009002E0EA
:10091000921800985B41002803DA0020014605B0D8
:10092000F0BD0020012109050746864611E0644616
:100930001D46141BB54106D36546521BB341744690
:1009400007430C43A646CD074008490828439218A0
:100950005B4105460D43EAD11046184313D060466B
:10096000194650407140084306D06046101AB34102
:1009700006D20122002306E000220123DB0702E069
:100980000122D2435310009874460105381C61417E
:10099000029C039D00196941FFF711FEBFE70000AB
:1009A000FD0300004A0009030123090B1B0519433D
:1009B0000A4B10B5520D9A4202DA0020014610BDD2
:1009C000064B34339A4203DC9A1A00F041F810BD0A
:1009D000034BD21800F02CF810BD0000FF030000FC
:1009E000CDFBFFFF10B5002904DB0124E4074042E2
:1009F0008C412146002B04DB1C460123DB075242BD
:100A0000A341994200D1904210BD0000064C01253F
:100A1000064E05E0E36807CC2B430C3C98471034A6
:100A2000B442F7D3FFF74CFB5491000874910008CF
:100A300010B5202A04DB0146203A9140002010BD69
:100A4000914020239C1A0346E3401943904010BD77
:100A500010B5202A04DB0846203AD040002110BD02
:100A60000B46D340D0402024A21A91400843194697
:100A700010BD10B5202A06DBCB170846203A1041DE
:100A8000C1170B4306E00B461341D0402024A21AA5
:100A900091400843194610BD10B5024800F002FD10
:100AA00010BD00002001002008B564260927114C64
:100AB0000A25002300961A460B21A06A07F000FEC3
:100AC00038420AD0810708D440210B4801F037FA98
:100AD000206A07F055FB142009E0C143890702D0C2
:100AE00029468143E5D1206A07F04AFBC82007F078
:100AF0006DFCDEE7040000200008005010B504F093
:100B000085FA10BD70B50125052604466D0236072D
:100B100000222946304601F01AFA04F037FB200A79
:100B20004000A030C0B204F0F3FA04F08BFBE0B256
:100B300004F0EEFA04F086FB04F028FBA12004F098
:100B4000E7FA04F07FFB002004F0A6FA044604F064
:100B50004BFB01222946304601F0F9F9204670BDD1
:100B6000F8B5012505260F4604466D02360700221A
:100B70002946304601F0EBF904F008FB200A40005A
:100B8000A030C0B204F0C4FA04F05CFBE0B204F0A0
:100B9000BFFA04F057FB384604F0BAFA04F052FBEF
:100BA00004F022FB0A2007F011FC012229463046FE
:100BB00001F0CDF9F8BD000008B505F077FC03F0B1
:100BC000EFFB04F0A9FE314D314C64260023009662
:100BD0001A460E21A06A07F073FD0107890F05D0A0
:100BE000810703D4C82007F0F1FBEFE74107890F25
:100BF000032911D00A2181430ED0410701D50107F5
:100C0000E4D48007E2D4234807F0E0FB0122114638
:100C1000214801F09CF9D9E7C82007F0D7FB03F081
:100C2000C7FB1E49A060884207DB2078002804D15A
:100C30001B4802F091FD012020702078012802D08D
:100C4000022814D107E01749286809684018A168EC
:100C500004F0A0FE08E00121C903A72005F0B4FCC0
:100C60000221A02005F0B0FC0A2007F0AFFBA0682D
:100C70002968401A00D500200549002360601A4603
:100C8000091D606A07F01CFEA0E70000E4000020D8
:100C90000400002088130000000C0050706408005D
:100CA0005C040020CC00002000F068F800F0A8F8F8
:100CB000FFF724FF084C094D094800F079F804F0CB
:100CC000EDFE054800F0ACF9E088297805F00AF956
:100CD000C82007F07BFBEFE762200020E90000203E
:100CE0004C20002008B51F480068C168012252024C
:100CF0001143C1601C4D6426002300961A460F2143
:100D0000A86A07F0DDFC0446C00705D0174804F0C8
:100D100003FF0A2007F05AFB600707D5A00705D597
:100D2000134804F0D3FE0A2007F050FB20070ED52D
:100D3000104804F0F1FE0A2007F048FBA00706D592
:100D40000C48401C04F0C2FE0A2007F03FFB64225E
:100D50000949E86907F087FE0028CDD0064806F06B
:100D600037FDC9E7F404002004000020020300005E
:100D700002070000030C00000801002010B500224B
:100D800008210A4801F0E3F87D21022000F022F852
:100D90001E21032000F01EF81021052000F01AF893
:100DA0008D21072000F016F810BD0000000C005047
:100DB0001CB507494A78202AFCD100901421044828
:100DC000019101230022D421403801F0B1F91CBD6A
:100DD000200200201CB5084B5A78202AFCD1074A73
:100DE000117000920121024603480B460191D42163
:100DF000403801F01BFA1CBD20020020E800002052
:100E0000F8B50020FFF77EFE55287DD00124E403CD
:100E10002146002000F074F92146002000F070F90E
:100E20001321002000F06CF9C82007F0CFFA7A49AE
:100E3000062000F03DF9012007F0C8FA774D6878E8
:100E40002028FCD1744C113C607CC0067ED500216A
:100E5000612000F03FF952213E2000F03BF90021D3
:100E60003F2000F037F9012007F0B0FA6946602012
:100E700000F01EF968782028FCD168460078FF272A
:100E800065493E1A08394A2000F012F962494B20A0
:100E9000093900F00DF960494C20891F00F008F96C
:100EA0005D494D20C91F00F003F95B495020091F1F
:100EB00000F0FEF858495120491F00F0F9F8564952
:100EC0005B20891E00F0F4F853495C20C91E00F035
:100ED000EFF868782028FCD1607A2178884203D125
:100EE000217A6278914279D0217A711A081AA17A0E
:100EF000401AE17A401A217B401A617B401AA17B9B
:100F0000401AE17B461A00E083E0012007F05EFA18
:100F100021784A2000F0DEF861784B2000F0DAF802
:100F2000A1784C2000F0D6F8E1784D2000F0D2F8FE
:100F30002179502000F0CEF86179512000F0CAF8F4
:100F4000A1795B2000F0C6F8E17900E044E05C2084
:100F500000F0C0F86078217830184018E178401827
:100F6000A17840186179401821794018E17940183A
:100F7000A1794018C0B23E1A3146602000F0AAF8AC
:100F8000642007F023FA52213E2000F0A3F800214C
:100F90003F2000F09FF8012007F018FA1E4960205A
:100FA000491E00F085F868782028FCD1207CB042EA
:100FB00012D14221002000F0A3F8012007F006FA28
:100FC0001549062000F074F8012007F0FFF9607C55
:100FD000C006EED413E001E00020F8BD422100205D
:100FE00000F08EF8012007F0F1F90B49062000F01F
:100FF0005FF8012007F0EAF9607CC006EED42021FA
:10100000002000F07DF855210020FFF7A9FD012008
:10101000F8BD0220F8BD0000FB00002020020020E7
:101020007CB5224D044668782028FCD11F48022652
:1010300001230422AA2140380196009401F078F897
:1010400068782028FCD1A01C0090184801230222B7
:10105000AA210196403801F06BF868782028FCD16D
:10106000201D0090114801231022AA21019640382A
:1010700001F05EF868782028FCD1A01D00900B4894
:1010800001231C22AA210196403801F051F868780A
:101090002028FCD10548083401230E22AA2140381B
:1010A0000196009401F044F87CBD0000200200206D
:1010B0001CB5074B5A78202AFCD101221346019215
:1010C000024603480091AA21403801F031F81CBDC6
:1010D000200200201CB5084B5A78202AFCD1074A70
:1010E000117000920121024603480B460191AA218A
:1010F000403801F09BF81CBD20020020FC000020BD
:101100001CB5094B5A78202AFCD1084B02461970AD
:10111000090A597002210448009301910123AA2170
:10112000403801F083F81CBD20020020FC000020A4
:1011300010B5064800F04EFC054800F04BFC054891
:1011400000F048FC044800F045FC10BD9C03002062
:1011500084010020300600204005002010B5024820
:1011600000F038FC10BD00008802002010B50348D4
:1011700000F030FC024800F02DFC10BDE40200201D
:101180004003002010B50446006C09498008800027
:1011900040186064207814210838FEF7E3FF044902
:1011A0008031A164C106C90E01208840E06410BDF1
:1011B000000802400179084B8906890E8A00D2187E
:1011C0000265054A4432491E42658A07920F012191
:1011D0009140816570470000FC080240F0B5846CC6
:1011E000C56C6560046D002C02D0446D856D656032
:1011F0000B4C6568066C1C273E400127B7403D43F9
:101200006560046863608368102B036803D099608D
:101210000068C260F0BD9A600068C160F0BD000067
:101220000000024010B5022000F0C0FD10BD10B556
:10123000042000F0BBFD10BD10B5102000F0B6FD7D
:10124000202000F0B3FD10BD72B6FEE710B500F02F
:10125000B7FC10BD044A5069044BC9001840014353
:1012600003480143516170470020024007E0FFFF3F
:10127000020001007047704770477047F8B50027BB
:101280000646044640360097307D0D4601280FD0B3
:1012900001203075206804F00FF800280AD0A06DF6
:1012A00020210843A0650127002030753846F8BD8D
:1012B0000220F8BD686802287ED001222169D20789
:1012C000914202D0121D914206D120682968826A9B
:1012D0004903490B0A436EE0C206D20E0F20216E6D
:1012E000904081432868430302D0C3074BD102E0FA
:1012F0004000C00E48E0830701D5012044E04307C9
:1013000001D5022040E0030701D503203CE0C306DD
:1013100001D5042038E0830601D5052034E04306DA
:1013200001D5062030E0030601D507202CE0C305D7
:1013300001D5082028E0830501D5092024E04305D4
:1013400001D50A2020E0030501D50B201CE0C304D1
:1013500001D50C2018E0830401D50D2014E04304CE
:1013600001D50E2010E0030401D50F200CE0C303CB
:1013700001D5102008E0830301D5112004E04003CB
:1013800001D5122000E000209040014321666968E9
:10139000E2698808401C904210D820682B68826A55
:1013A0009C46C906C90E0F238B409A4363469B0097
:1013B0001B0F8B401A4300E03BE082622168AB6860
:1013C00028684A69000282431840400140090243EC
:1013D0004A612868002800DB66E72B4A116807236A
:1013E0009B051940294B984214D10B0212D4C0021C
:1013F0000143104603F06CFF264825490068FEF7BC
:10140000B1FE0C21401C484300E0401E0090002823
:10141000FBD149E7204B984203D1CB0101D4800294
:1014200005E01E4B9842D7D14802D5D4580201435B
:1014300025E001212069C907884202D0091D8842A0
:1014400006D120682968826A4903490B8A4382626F
:1014500028680028C0DA0C4A116807239B05194048
:101460000A4B984201D1C00208E00B4B984201D1CF
:10147000800203E0094B9842AED1400281431046FE
:1014800003F026FF10E7000008270140001000B01D
:10149000400D030048000020004000B8002000B4C8
:1014A00070477047F8B50446006806684568B0079D
:1014B0000FD5A8070DD5A06DC00604D4A06D0121DD
:1014C000C9020843A0652046FFF7D5FE2168022027
:1014D0000860474F700701D5680703D4300728D547
:1014E000280726D5A06DC00604D4A06D01214902AD
:1014F0000843A065206803F0E3FE002813D0A07E17
:10150000002810D12068016809070CD503F0D4FE2B
:1015100001460120002960D0A16D20221143A16560
:10152000E16D0143E1652046FFF7BAFF21680C2019
:10153000086030060CD528060AD5A06D01210904E3
:101540000843A065204600F065F921688020086006
:10155000F0050BD5E80509D5A06D01214904084324
:10156000A0652046FFF788FE20680760B0050DD50E
:10157000A8050BD5A06D012189040843A06520466C
:10158000FFF77BFE0120216840020860F00618D5B5
:10159000E80616D5206B002804D02068C0688007B4
:1015A000800F0BD0A06D012189020843A065E06D7A
:1015B00002210843E0652046FFF773FF21681020F1
:1015C0000860B00408D5A80406D52046FFF752FEEF
:1015D0000120216840030860F8BD21684A680C2397
:1015E0009A434A60A16DB9430143A1659BE700009E
:1015F00000010000FEB50027044601973E46029711
:101600000097002805D02546A06D2035002802D07F
:1016100007E00120FEBD204600F0FEF8E6655420FC
:10162000065520688168C900C90F12D18168724AC5
:101630001140012212071143816071486F4900680F
:10164000FEF790FD4000801C00E0401E0090002846
:10165000FBD120688168C900C90F08D1A16D102293
:101660001143A165E16D01221143E165174603F0C5
:1016700023FEA16DC90601D4002804D0A06D10215D
:101680000843A065B4E0A06DFF2101318843022129
:101690000843A065206803F00BFE00286DD1217E71
:1016A000A06889030843617ECA03A17E4B031A43E5
:1016B0001043226B002A01D0012212031043E2687A
:1016C00010432269002A02DA5200520801E0012286
:1016D000520510432A7B52001043019A10432A7886
:1016E000012A09D1002922D0A16D20221143A16530
:1016F000E16D01221143E165616A002906D0FF23F3
:10170000C1331940A26A0143104608432168CA68E0
:101710003C4B1A400243CA606168029A890F8907EC
:10172000E06C0A4310432A7F012A04D00CE0012117
:1017300009040843E0E7636C226C491C1A43A36C5C
:101740000B4311461943084321680A692E4B1A407E
:1017500002430A6103216068890788420DD0590756
:1017600088420AD04900884207D0284A91680F234E
:101770009B0499431840014391600021626B2068EB
:1017800003F0ADFD2249A26B206803F0A8FD0F20F5
:101790002169C04300291CD00122520591420AD17F
:1017A00021688A6A227F9200121FD206D20E9040D0
:1017B000226E1043886220684069616B4007400FC9
:1017C00088420BD1E665A06D80088000401CA065B2
:1017D0000FE021688A6A02438A62ECE7A06D022169
:1017E000884310210843A065E06D01210843E065AE
:1017F00001273846FEBD0000E8FFFF7F400D0300D3
:10180000480000200102FEFF02FCFF1F00270140EC
:1018100004FFFF077047000070B58EB00646142124
:1018200007A8FEF7E2FC1C216846FEF7DEFC27490C
:101830003068884248D1012000258003059500903A
:10184000684600F011FF002801D0FFF7FDFC20489A
:101850000268012109050A430260006808400C90F3
:101860001B484038416B012211434163406B07A97B
:1018700010400C900D20079003200890052009953A
:10188000000700F0A9FA144C12482060A56005205A
:10189000E560606080202061400060618000A061A0
:1018A00020202562E061204600F0F0F8002801D0F9
:1018B000FFF7CAFC3465002203210C20A66200F069
:1018C000A9FE0C2000F09AFE0EB070BD002401406D
:1018D000401002405800024084010020F0B500286A
:1018E00008D0014620314A79022A05D00422C26379
:1018F000002008710120F0BD026813680E24A34384
:101900001360426C1468FF2301339C431460026827
:1019100014686408640014600C4A5568066C1C2442
:10192000264001242746B7403D435560826CC56C74
:101930005560026D002A05D015689D431560826DC3
:10194000406D42604C7100200871F0BD0000024003
:10195000F8B50024024620325179022903D004212F
:10196000C16301242DE001680B680E25AB430B60B9
:1019700001680B685B085B000B60416C0B68FF251E
:101980000135AB430B6010494D68066C1C231E40AB
:1019900001231F46B7403D434D60816CC56C4D60CF
:1019A000016D002906D00E681D02AE430E60416D28
:1019B000856D4D60537100211171816B002900D03C
:1019C00088472046F8BD00000000024020304079E2
:1019D00070470000F0B42C490C6802681368056C6D
:1019E0001C273D400426AE40264211D05E070FD58D
:1019F00013689B0603D4146804239C4314604B684B
:101A0000046C04223C40A24013434B60016B1CE079
:101A10000227AF40064627402036002F19D09F07E7
:101A200017D513689B0605D413680A24A3431360D3
:101A3000012272714B68046C1C2214400222A240E5
:101A400013434B6000213171C16A00291AD0F0BCE8
:101A500008470827AF40274214D01B0712D5136848
:101A60000E24A34313604B68046C1C221440012213
:101A70001546A5402B434B60C26372710021317142
:101A8000416BE2E7F0BC70470000024070B5040013
:101A90003FD02548256814212818FEF763FB8000F5
:101AA0002064022026462036707128681F490840AD
:101AB0002860E168A068626908432169114308430E
:101AC000A1690843E1690843216A084321680A685B
:101AD000104308602046FFF755FB0121A0688903E9
:101AE0000025884200D165602079616C8006800EF7
:101AF0000860A06CE16C41606068401E03280AD851
:101B00002046FFF757FB206D0560606DA16D4160B9
:101B100004E0012070BD25656565A565E5630120CC
:101B200070713571002070BDF8FFFDBF0F80FFFFA1
:101B3000F8B504468C4620300179002501290BD0E8
:101B40000126067141790027012907D08021E16330
:101B5000077101252846F8BD0220F8BD0221417118
:101B6000E763206801684908490001606146204632
:101B7000FFF734FB206B00282068016801D00E229B
:101B800005E0042291430160206801680A221143A4
:101B90000160606C0168CA03074902D502680A4304
:101BA0000260206D002802D002680A4302602068AB
:101BB000016831430160CDE700010000704700007B
:101BC000F8B51F4D2869204C1E4BA16818404A07E4
:101BD00001D5266908E06A698A436A611B4A114295
:101BE00001D0E66800E066690027002807D0616838
:101BF000014361602B613046A76000F029F8286935
:101C0000C00713D001202861A06802280AD1A0696A
:101C1000401EA06106D06169491C61612069FFF71F
:101C200019FB00E0A7603046FFF7C8FFA068002856
:101C300005D1686903210906884368612770F8BDEA
:101C400000200240FA830000F0060020010004009A
:101C500070470000F8B507F017F84D4D06462868A4
:101C600006F0EBFC044604214A4800F063F9002822
:101C70003DD149484168711A322938D34660A107DD
:101C80000520002934DB044201D120072FD5022191
:101C9000286806F0DBFC414D600710D5072004F0F2
:101CA000B3F800220121284600F051F90121C903AF
:101CB000A72004F089FC0121A02004F085FCE007A6
:101CC00002D0032004F0A0F8200710D50022012143
:101CD000284600F03CF90121C903A72004F074FC58
:101CE0000121A02004F070FC0C2004F08DF8F8BD58
:101CF000044201D12007FAD50221286806F06AFCC7
:101D0000274EE0070ED0032004F088F9012128684F
:101D100006F060FC0021234801F08CFF00213068B0
:101D200006F098FD204F600713D5072004F076F9E0
:101D30000421286806F04EFC0121C903A72004F005
:101D400043FC0221A02004F03FFC0021386806F08B
:101D500081FD2007CBD50C2004F060F9082128680C
:101D600006F038FC00210F4801F064FF0121C9038F
:101D7000A72004F029FC0221A02004F025FC00216A
:101D8000306806F067FD0021386806F063FDF8BD95
:101D90002C0000200004005030000020000C0050F7
:101DA00024000020A80400202800002070B5084D61
:101DB0000446E868204203D0EC60204600F00AF8B0
:101DC0002869204203D02C612046FFF743FF70BDF5
:101DD0000018024070470000F0B5002303249AE089
:101DE0002A4601259D402A407ED00E79B607B60FBF
:101DF000012E01D0022E16D186682746B4465E0019
:101E0000B646B7406646BE43B446CF687646B7404E
:101E10006646374387604668AE430D79ED06ED0FA1
:101E20009D40354345600D79ED43AD0708D0C56849
:101E30005F002646BE40B5438E68BE402E43C66056
:101E40000D79AD07AD0F022D0ED1DD08AD002D18B7
:101E5000AC462D6A5E07F60E0F27B740BD430F69EB
:101E6000B7402F4365462F6205685F002646BE4097
:101E7000B5430E79B607B60FBE402E4306604D68D7
:101E8000AD03AD0F46D09E08264DB6007519AC4681
:101E90002D6E9E07F60E0F27B740BD4305273F075F
:101EA000B84201D100270FE01F4FB84201D10127EE
:101EB0000AE01E4FB84201D1022705E01C4FB8428C
:101EC00001D1032700E00527B7402F43154D664693
:101ED00037662D684E689543F60200D51543114FBD
:101EE0003D607D68954300E014E04E68B60200D581
:101EF00015437D600B4D80356E684F689643BF0378
:101F000000D516436E602E684F689643FF0300D5D8
:101F100016432E605B1C0A681546DA4000D05FE766
:101F2000F0BD0000001802400004005000080050FE
:101F3000000C00500069084000D001207047426941
:101F400013460B401B0491430B4383617047002AE7
:101F500001D081617047816270470000014880684C
:101F6000704700003C00002070B5024640325378B4
:101F7000202B1CD11378012B19D00123137024249A
:101F80005470046825689D432560046825681E0315
:101F9000B5432560046825680D4325600068016825
:101FA00019430160202050700020107070BD022085
:101FB00070BD70B5024640325378202B1BD1137888
:101FC000012B18D0012414702423537003681D685A
:101FD000A5431D6005682B680F263602B34309022E
:101FE0001943296000680168214301602020507076
:101FF0000020107070BD022070BD7047704770B532
:1020000003689A691968D243D40508D4CC432406DE
:1020100005D4446C01252C4344642C02DC61530537
:1020200009D4CB431B0606D4436C082423434364E2
:10203000E3010468E361920509D4C943090606D4A3
:10204000416C02221143416411020268D161416C6A
:102050000B22114201D002F045FB70BD026891696C
:102060001268436B002B00D0184770477047000080
:1020700070B5040006D02546403568780026002853
:1020800002D005E0012070BD2E70204600F04AF914
:1020900024206870206801684908490001600F2108
:1020A0006068090688432168086121688A68012000
:1020B000C00382438A60E1680129A16808D0212217
:1020C0009202114322689160E168022902D005E082
:1020D0000143F7E701212268C902516021684A687B
:1020E0000F4B1A434A602168CA688243CA6061691B
:1020F00020690843A169090208432168C860216A70
:10210000E0690843216808602068016801221143E2
:1021100001606664202068702663AE70002070BD88
:10212000008000027047704770477047704700009A
:10213000FFB5044681B01F462546134640356978F1
:102140000A9A0B98202964D1002A1ED000281CD09E
:1021500021688E69F64336045BD52E78012E58D05F
:1021600001262E7022266E704026AE700026666410
:10217000626260852848E062284860630298E064F3
:10218000608DFF2805D9FF2004E001204002606433
:1021900023E0608D2085D8B2012F21D01B0A8B62ED
:1021A0002065E06B00281FD01D49C162E16B1D480E
:1021B0004863E06B0663E06B86632168238D2431FE
:1021C000E06BFFF7B5FC002814D020206870AE70DB
:1021D000606C1021084360642E70012005B0F0BDD2
:1021E00088620020C043DBE720206870AE70606C1E
:1021F0008021EFE70C480090FAB2002320460299B4
:1022000002F0AEFE2E700121204602F0E9F9002016
:10221000E4E70220E2E700000000FFFF0D4C0008A9
:10222000E5440008CD44000800200080FFB50446C6
:1022300081B025461F4640356B780A990B98202BB4
:1022400064D100291ED000281CD023689E69F64363
:1022500036045BD52E78012E58D001262E7021260B
:102260006E704026AE700026666461626085284804
:10227000E062284860630298E064608DFF2805D919
:10228000FF2004E001204002606423E0608D20858F
:10229000D0B2012F21D0120A9A622065A06B0028CB
:1022A0001FD01D4AC262A26B1C485063A06B06631C
:1022B000A06B86632268238D2832A06BFFF738FC61
:1022C000002814D020206870AE70606C1021084384
:1022D00060642E70012005B0F0BD98620020C043FC
:1022E000DBE720206870AE70606C8021EFE70C485F
:1022F0000090C302FAB22046029902F031FE2E701D
:102300000121204602F06CF90020E4E70220E2E718
:102310000000FFFF0D4C000839450008CD440008BF
:1023200000200080F0B58DB0044614216846FDF70A
:102330005CFF1C2105A8FDF758FF5C4920685C4E36
:1023400002270025884259D120200590089505A82C
:1023500000F08AF9002801D0FEF776FF706B384351
:102360007063706B039538400C900320000200905E
:102370001220019006200490029569464D48FFF70F
:102380002BFDF16B012040050143F163F16B4B4ED6
:10239000014049480C913060B560F5607561B561E8
:1023A0008027F56137610A20356270603046FFF79B
:1023B0006DFB002801D0FEF747FFE663B4623F4E95
:1023C0003D485C36143030600B2070603146102080
:1023D0000831A1C17561B561F56130463562FFF71D
:1023E00055FB002801D0FEF72FFFA6630022032132
:1023F0001720B46200F00EF9172052E030498842ED
:1024000051D1706B38437063706B039538400C90FA
:102410000320800200901220019006200490029573
:1024200069462448FFF7D8FCF16B01208005014381
:10243000F163F16B214E01401F48B83628300C91F2
:102440003060B560F5607561B5618027F561376111
:102450000C20356270603046FFF718FB002801D071
:10246000FEF7F2FEE663B462164E134831463C3086
:1024700030600D20706010200831A1C17561B56118
:10248000F56130463562FFF701FB002801D0FEF709
:10249000DBFEA663002203211820B46200F0BAF824
:1024A000182000F0ABF80DB0F0BD00000054004063
:1024B0000010024000040050080002408802002082
:1024C000005800409C030020704770470248816814
:1024D00002788918816070473C00002010B50848D8
:1024E00000240168821511430160032000F00AF8FE
:1024F000002801D0012401E000F052F8204610BD70
:102500000020024030B505461F4887B0C26B10213D
:102510000A43C263C06B0840009005A901A800F0FF
:10252000FFF90498002815D000F016FA400017496A
:10253000FDF718FE411E1748154A0260164AC26090
:102540004160002101618160816101F07BF804003C
:1025500003D015E000F000FAE9E70E4801F0FCF8BE
:1025600004000DD1112000F049F8042D07D20022FB
:102570002946112000F04EF80848056000E00124CB
:10258000204607B030BD00000010024040420F005E
:1025900000100040A4060020E703000040000020D7
:1025A00008B5154801680122114301600068104018
:1025B000009011484038C26B01040A43C263C06BEB
:1025C0000022084003210090481F00F023F8032157
:1025D0000022084600F01EF8032000F00FF8002249
:1025E0000321042000F016F8042000F007F803206F
:1025F000400200F08DFF08BD40100240002805DBBE
:10260000C106C90E012088400149086070470000DA
:1026100000E100E010B504F03DFB10BD10B50F4C1B
:10262000216803225202914301432160C11FFF39F7
:10263000FA390ED10A480621006848430949FDF7D6
:1026400091FD401C02E0002805D0401E616949054B
:10265000F9D4002010BD032010BD00000070004020
:102660004800002040420F00F8B5044600680026EC
:10267000524D800358D5514800274038C06BC000E8
:1026800009D44E484038C26B01040A43C263C06B90
:102690000840012700904A480168821511430160F3
:1026A000FFF75CFC009005E0FFF758FC0099401A2A
:1026B000022825D842480068C005F5D5E8690321FD
:1026C000090208400FD0A16981420CD0E8690321BA
:1026D0000902EA698843012109040A43EA61EA69B7
:1026E0008A43EA61E861C0070FD0FFF737FC00902A
:1026F00008E0FFF733FC0099411A3248814201D9C2
:10270000032609E0E8698007F3D5E8690321090297
:102710008843A1690843E861002F05D02748403865
:10272000C16B02049143C1632078C00705D068697A
:10273000616880088000084368612078800705D5BB
:1027400068690C218843A168084368612078800685
:1027500006D56869032109038843E1680843686175
:102760002088400411D568696169800080080843A9
:102770006861012160698907884206D10F484038A5
:10278000C168012212041143C1602088000512D5DE
:10279000686903218903884321690843686101212D
:1027A00020698903884206D104484038C168012263
:1027B00012041143C1603046F8BD000040100240D1
:1027C0000070004088130000F8B50F46060043D0A3
:1027D0004D4D28684007400FB84213D22868C00802
:1027E000C00038432860FFF7B9FB044605E0FFF757
:1027F000B5FB011B4548814261D828684007400F5E
:10280000B842F4D13068424C81070DD5400704D559
:10281000A068072109030843A060A0680F210902EE
:102820008843B1680843A0603078C00732D0706830
:1028300001280AD002280BD000280FD0344940319B
:1028400003280ED0C969890704E02168890301E0E3
:1028500021688901002906DB0120F8BD21684905AE
:10286000F8E7096AEFE7A168C908C9000143A16058
:10287000FFF774FB009006E0FFF770FB0099411A28
:10288000224881421BD8A068382108407168C900DD
:102890008842F1D128684007400FB84217D91A483A
:1028A0000168C908C90039430160FFF757FB0546B5
:1028B00007E0FFF753FB411B1448814201D9032075
:1028C000F8BD114800684007400FB842F1D1307898
:1028D000400706D5A068072109038843F16808432B
:1028E000A06000F04DF8A1683C2289091140094A16
:1028F000515CC906C90EC84007490860074800680E
:10290000FFF700FEF8BD0000002002408813000021
:10291000001002408890000848000020400000207D
:1029200010B5072202600A4A93685B075B0F436099
:1029300093680F24240223408360926807231B03BB
:102940001A40C260034800684007400F086010BD8D
:1029500000100240002002400648074900688968CC
:10296000064A4904490F8900515CC906C90EC8408E
:10297000704700004800002000100240C890000886
:1029800010B51C4CA0688006410F1B4815D0A168EB
:102990008906490F01290FD0A1688906490F02292C
:1029A00011D0A0688006400F04281DD0A0688006C2
:1029B000400F03281BD0002010BD216889044A0F56
:1029C000012191400DE0E168E1684906490F491C89
:1029D000FDF7C8FBE1684904490E4843E168490F27
:1029E000491CFDF7BFFB10BD0120C00310BD7D20B9
:1029F000000210BD001002400024F400F8B50400ED
:102A00007ED020783827C007E94D002846D0A86836
:102A1000E96838408907890F102802D008280BD0B0
:102A200001E0032908D001206268000482420AD133
:102A300029680143296015E0286880032ED5606865
:102A40000028DDD02AE0052301211B0489049A42D5
:102A50002A6802D10A432A60EAE782432A6028688A
:102A600088432860606800280CD0FFF777FA064694
:102A700004E0FFF773FA801B642873D8286880038A
:102A8000F7D50BE0FFF76AFA064604E0FFF766FAAF
:102A9000801B6428F1D828688003F7D42078800749
:102AA00069D5A868E96838408A070721920FC902EA
:102AB000102802D0002813D001E0022A10D0E068CC
:102AC000002846D028688843216908432860286880
:102AD000FF21013108432860FFF740FA06462CE049
:102AE0002A68520502D5E268002A89D06A687F23E5
:102AF0001B029A4363691B021A436A60002800E0C4
:102B00008DE00ED128688843216908432860286831
:102B100001218004400F8140A648FDF723FBA64910
:102B20000860A6480068FFF7EDFC002877D122E096
:102B3000FFF714FA801B02289FD828684005F7D5B4
:102B400068687F2109028843616909020843686057
:102B500011E02968FF20013081432960FFF7FEF969
:102B6000064605E098E0FFF7F9F9801B022884D8B3
:102B700028684005F7D42078914E00072ED5A86824
:102B80008006400F03280AD0A0690028306A16D0BA
:102B9000012108433062FFF7E1F907460BE0306A94
:102BA00080071BD5A06900289FD017E0FFF7D6F952
:102BB000C01B022870D8306A8007F7D50EE04008A5
:102BC00040003062FFF7CAF9074604E0FFF7C6F994
:102BD000C01B022860D8306A8007F7D420784007ED
:102BE0006CD5A86800278006400F042818D0E86B31
:102BF000C00008D4E96B012000070143E963E96BD9
:102C00000140012700916F480168C90519D4016886
:102C1000821511430160FFF7A1F900900DE083E0F8
:102C2000F06980074AD5A06800287DD046E0FFF70C
:102C300095F90099401A02282ED862480068C0050C
:102C4000F5D5A168012910D004200529F16911D01A
:102C500049084900F161F1698143F161A0680028E8
:102C600016D0FFF77BF900900EE0F06901210843D0
:102C7000F061F3E70143F161F7E7FFF76FF90099BE
:102C8000411A5148814265D8F0698007F5D50EE0B8
:102C9000FFF764F9009007E05CE0FFF75FF9009947
:102CA000411A4948814255D8F0698007F5D4002F70
:102CB00004D0E96B012000078143E963E069002843
:102CC00073D0A9688906490F02294DD0012636061E
:102CD0000228286805D0B0432860FFF73FF9044672
:102CE0003AE0B0432860FFF739F9074604E0FFF700
:102CF00035F9C01B02282DD828688001F7D4616AF5
:102D0000206AA26A0843E16A120211430843216B58
:102D10000843E9682D4A11400843E86028683043B9
:102D20002860E868012100E03DE009070843E86009
:102D3000FFF714F9044604E0FFF710F9001B02281E
:102D400008D828688001F7D52FE0FFF707F9001BA6
:102D5000022801D90320F8BD28688001F5D4E8686D
:102D60001B490840E86020E00128F4D0E868226AA6
:102D70008107890F914216D17021626A0140914208
:102D800011D17F21A26A09020140120291420AD1A7
:102D90001F214904E26A0140914204D1400F216B96
:102DA0004007884201D00120F8BD0020F8BD000096
:102DB000001002400024F4004800002040000020E1
:102DC0004010024000700040881300008C80C11F3A
:102DD000FCFFFEEF70470000F8B5016804464A6842
:102DE0008868C043430606D5C30704D1D3435B06B6
:102DF00001D4E16C05E0830706D4D3431B0603D45A
:102E0000216D20468847F8BD830603D5430601D5CA
:102E1000C305F8D4D3439B06F5D423464506403377
:102E2000002D09DB5D7F032D48D0256E0426354338
:102E30002566CD688D680095860601274025002E01
:102E400007DB266E3E4326668E6800960E68AE430C
:102E50000E60C00506D4206E082108432066206855
:102E600080680090206E0028CDD020684168E02660
:102E7000B14341605F77900701D4D00722D020682A
:102E80004168890889004160A06D104E002808D073
:102E90008663A06DFEF75CFD002802D0206E2843FB
:102EA0002066606D0028AED08663606DFEF750FD31
:102EB0000028A8D0206E28432066F8BDC86888681E
:102EC0000090F8BD2046FFF785FFF8BD9D5B000828
:102ED000F8B504000CD0606A002500280AD02561EE
:102EE000656126464036A562707F002808D00BE059
:102EF0000120F8BD6168C81FFD38F2D0E561F0E738
:102F00003577204600F05CF802227277206801686D
:102F10004023994301600723E1681B02994201D9CC
:102F2000002001E0012000030F273F02B94202D038
:102F3000994200D0A562FF2361680533194021271B
:102F4000A368BF023B40194323691340227D194304
:102F5000D207D20F11430123A2695B021A40114329
:102F6000E26938231A401143226A80231A40114330
:102F7000A26A9B011A40114322681160A1690422D0
:102F8000090C1140626A10231A401143626B082336
:102F90001A4011430F23E2681B021A401143012219
:102FA000120310400143206841602068C16952103B
:102FB0009143C1612566012070770020F8BD0000B3
:102FC00030B587B0044614216846FDF70EF91E4956
:102FD0002068884236D11D48026881140A43026085
:102FE00000680840059019484038416B01221143A0
:102FF0004163416B11400591416B022529434163B7
:10300000406B0024284005900320C002009005205A
:10301000029403946946019504940007FEF7DCFED0
:10302000082000900294039469460195049408488E
:10303000FEF7D2FE002203211920FFF7EBFA192038
:10304000FFF7DCFA07B030BD00300140401002400D
:1030500000040050FFB504464068FF2125460026C5
:103060000531403581B01746884202D1A06800285A
:103070000CD0287F012815D001202877FEF76EFF9D
:103080000090687F01280FD002268FE00420687727
:1030900013460498029A00901146204600F03EF92B
:1030A00005B0F0BD0220FBE7029800287DD0002F7C
:1030B0007BD0042068770020206602992164AF80CD
:1030C000EF80A063A087E087E064206507210120EE
:1030D000E268090200038A422268536801D98343E7
:1030E00000E0034353600123A068DB0340229842C1
:1030F00008D12068036893430360206803681702BF
:10310000BB430360206803685B0602D40368134373
:103110000360E06888421AD938E020688168C907EE
:1031200009D0007B216C0870206C401C2064E8886A
:10313000401EE8800BE0FEF711FF0099411A049849
:10314000814202D3401C02D036E0002834D0E88807
:103150000028E2D11DE020688168C90709D0C06855
:10316000216C0880206C801C2064E888401EE88068
:103170000CE0FEF7F3FE01460098091A049881421C
:1031800002D3401C02D017E0002815D0E8880028A0
:10319000E1D12046009A049902F009FD002801D0EF
:1031A00020202066206E002800D0012601206877AC
:1031B00000202877304673E70326F7E7FFB505467A
:1031C00004464035287F002781B01646012809D0E3
:1031D00001202877FEF7C2FE0090687F012804D006
:1031E000022795E0022005B0F0BD0298002872D0B9
:1031F000002E70D003206877002020660299A1631A
:10320000A687E6872064A880E8802065E064012224
:10321000A068D2034021904208D1206802688A4306
:103220000260206802680B021A430260206802688C
:10323000520602D402680A4302600721E0680902CC
:103240008842606826D9002801D0012E1ED1A06BCB
:1032500021680088C86006E020688168890709D570
:10326000A16B0988C160A06B801CA063E08F401E29
:10327000E0870BE0FEF772FE0099411A0498814244
:1032800002D3401C02D039E0002837D0E08F00285C
:10329000E2D126E0002801D0012E1FD1A06B2168C9
:1032A0000078087306E020688168890709D5A16B5A
:1032B00009780173A06B401CA063E08F401EE0877B
:1032C0000CE0FEF74BFE0099411A0498814203D3AB
:1032D000401C03D012E01AE000280FD0E08F002835
:1032E000E1D12046009A049902F09DFC002801D00B
:1032F00020202066A068002802D005E0032707E010
:103300002068C16880680090206E002800D00127E6
:103310000120687700202877384664E7FFB5044627
:1033200083B0012001900020254640350090287F81
:103330000C9F1E4601280FD001202877FEF70EFEB5
:103340000290687F616801280DD0CA1FFD3A08D13C
:10335000A168002905D102E0022007B0F0BD0428D1
:1033600001D00220D1E00498002820D00598002840
:103370001DD0002E1BD0687F042801D0052068775F
:103380000020206605992164EE80AE800499A16337
:10339000E687A687E064206507210120E26809022C
:1033A00000038A422268536803D9834302E0012064
:1033B000ABE00343536020680268520603D40268FE
:1033C00040231A430260E0688842606844D90028BC
:1033D00001D0012E39D1A06B21680088C860A06B94
:1033E000801CA063E08F401EE0872EE0206881688B
:1033F000890710D5E18F00290DD0019901290AD143
:10340000A16B0988C160A06B801CA063E08F401E87
:10341000E0870020019020688168C9070DD0E98805
:1034200000290AD0C068216C0880206C801C2064B0
:10343000E888401EE88001200190FEF78FFD029988
:10344000401AB84201D3781C5ED1E08F0028CDD15C
:10345000E8880028CAD146E0002801D0012E3CD1DE
:10346000A06B216800780873A06B401CA063E08FFC
:10347000401EE08731E020688168890710D5E18F20
:1034800000290DD0019901290AD1A16B0978017396
:10349000A06B401CA063E08F401EE08700200190DD
:1034A00020688168C9070DD0E98800290AD0007B0F
:1034B000216C0870206C401C2064E888401EE88065
:1034C00001200190FEF74AFD0299401AB84202D34A
:1034D000781C02D018E0002F16D0E08F0028CAD147
:1034E000E8880028C7D139462046029A02F09BFBA3
:1034F000002803D00120009020202066012068775A
:1035000000202877009828E703200090F6E70000C5
:1035100003490A6803235B029A4302430A60704727
:1035200000000140704770477047000070B50346C7
:1035300020331A7F012A4BD001221A770325CA684B
:103540002D02AA438D6800682A430125AD02AA43D3
:103550004D6800242A430125ED02AA430D682A4341
:1035600001252D03AA430D692A4301256D03AA43B2
:103570004D692A430125AD03AA430D6B2A430F254C
:103580002D04AA430D8B2D042A43124DA84204D1C9
:1035900001263607B243CE693243A84214D10F2523
:1035A0002D05AA430D8D2D052A4301252D06AA437D
:1035B0000D6A2A4301256D06AA434D6AC96A2A434A
:1035C00001256D07AA430A4342641C77002070BDA1
:1035D000022070BD002C0140F0B5034620331A7F55
:1035E000012A27D001221A7702225A7704686268DA
:1035F000A568114FBC4205D116460F22120596430D
:103600004A6832437026B2430E681643666000680B
:10361000B84205D0094A904202D0094A904204D1EA
:1036200080228968954329438160012058770020D2
:103630001877F0BD0220F0BD002C014000040040CE
:103640000040014070B5040005D025462035687F54
:10365000002802D006E0012070BD00202877204617
:1036600000F016F802206877211D206802F05EFD48
:10367000012240342272AA77EA7722706270A27027
:10368000E27022716271A271E2716A77002070BDEE
:1036900038B505462A49026820208A420DD12949B9
:1036A000CA6B0243CA63C96B002201400091032127
:1036B0001220FEF7AFFF122011E02249224B4031C9
:1036C0009A420FD10A68D81302430A60096800229F
:1036D0000140009103211320FEF79CFF1320FEF709
:1036E0008DFF38BD194B9A42FBD10B680122520461
:1036F00013430B600968174C114000911449216075
:103700002C2161601021A1600021E16080212161F4
:10371000490061618900A161E06188002062204662
:10372000FEF7B4F9002801D0FDF78EFD6C6200228F
:1037300003211520A562FEF76DFF1520CFE70000DD
:1037400000140040001002400020004000440140EE
:103750008000024040050020014620314A7F012AB6
:1037600001D00120704702224A770168CB6801220C
:103770001343CB6000680B49884205D00A49884250
:1037800002D00A49884207D18168094B19400629AD
:1037900005D0DB1F994202D001681143016000206F
:1037A00070470000002C0140000400400040014030
:1037B000070001000168CA6852085200CA60016827
:1037C0000A6A084B1A4207D10A6A9B101A4203D1AF
:1037D0000A68520852000A60012120304177002017
:1037E00070470000111100007047000070B50446DA
:1037F000006801690025C9438907002915DBC168F4
:10380000C943890711D4E91E01610120207720688E
:1038100080698007204602D0FFF7E6FF04E000F051
:10382000E3F8204600F09CF9257720680169C94338
:10383000490717D4C168C943490713D40421C943B0
:10384000016102202077206880698005800F204672
:1038500002D0FFF7C9FF04E000F0C6F8204600F0F0
:103860007FF9257720680169C943090716D4C16823
:10387000C943090712D40821C943016104202077F4
:103880002068C0698007204602D0FFF7ADFF04E042
:1038900000F0AAF8204600F063F925772068016956
:1038A000C943C90617D4C168C943C90613D4102136
:1038B000C9430161082020772068C0698005800F16
:1038C000204602D0FFF790FF04E000F08DF820467C
:1038D00000F046F9257720680169C943C90708D176
:1038E000C168C943C90704D1891E0161204600F09F
:1038F000F3F920680169C943090609D4C168C943BD
:10390000090605D48021C94301612046FFF70BFE5B
:1039100020680169C943C90508D4C168C9430906BB
:1039200004D4124901612046FFF7FCFD20680169BB
:10393000C943490609D4C168C943490605D4402191
:10394000C9430161204600F0F3F920680169C943C9
:10395000890609D4C168C943890605D42021C94311
:1039600001612046FFF7E0FD70BD0000FFFEFFFF94
:1039700010B586B0044614216846FCF736FC23686F
:10398000154C002215490220A3420DD14B6B034375
:103990004B63496B009001400591019002920392A4
:1039A000049269460E4813E00E4CA34212D14B6BB1
:1039B000012423434B63496B01902140032005916F
:1039C000039040210520009104900292694600076F
:1039D000FEF702FA06B010BD0020004000100240C1
:1039E00000040050004401407047F8B50446002030
:1039F000264620360090307F0D4601280CD001204D
:103A0000082730770C2A48D008DC002A10D0042A76
:103A10001ED0082A06D130E00220F8BD102A52D06C
:103A2000142A60D001200090002030770098F8BD63
:103A3000206802F0CDFB20688169394381612068EC
:103A40008169042291438161206881692A6911E0BA
:103A5000206802F003FC206881690122D202114330
:103A60008161206881695210914381612068816978
:103A70002A69120211438161D6E7206802F030FC06
:103A80002068C1693943C1612068C169042291433A
:103A9000C1612068C1692A6912E0206802F064FCF3
:103AA0002068C1690122D2021143C1612068C26944
:103AB000012189028A43C2612068C1692A69120210
:103AC0001143C161B0E7206802F088FC2068416DB5
:103AD000394341652068426D04218A43426520686C
:103AE000416D2A6912E0206802F0AAFC2068416D4D
:103AF0000122D202114341652068426D01218902F1
:103B00008A4342652068416D2A691202114341656A
:103B10008AE770B5040005D025462035687F002867
:103B200002D006E0012070BD00202877204600F07A
:103B300016F802206877211D206802F0F7FA0122AA
:103B400040342272AA77EA7722706270A270E27023
:103B500022716271A271E2716A77002070BD7047B4
:103B60007047000030B504460223203000290ED0F3
:103B7000042911D020464030082912D00C2915D034
:103B8000102918D0C278012A1AD0012030BD827FB6
:103B9000012AFAD1837714E0C27F012AF5D1C377D5
:103BA0000FE00278012AF0D103700AE04278012A7E
:103BB000EBD1437005E08278012AE6D1837000E002
:103BC000C3700122206802F0F5FA14492068144AF3
:103BD000884207D0904205D0124B984202D0124B37
:103BE000984204D1436C0125ED032B4343642068C4
:103BF0000123884204D00D49884201D0904207D168
:103C000081680B4A1140062905D0D21F914202D08B
:103C1000016819430160002030BD0000002C014004
:103C200000400140004401400048014000040040C1
:103C30000700010070B504460D460068002202F03E
:103C4000B9FA21491F4B20688A10984208D01F4BAF
:103C5000984205D01E4B984202D01E4B98420AD182
:103C6000036A0B4207D1036A134204D1436C012655
:103C7000F603B34343642068036A0B4206D1016A2A
:103C8000114203D1016849084900016021462031F1
:103C90000120002D0BD0042D0BD04034082D0AD06C
:103CA0000C2D0AD0102D0AD0E070002070BD88774E
:103CB000FBE7C877F9E72070F7E76070F5E7A070D9
:103CC000F3E70000002C014011110000004001400A
:103CD000004401400048014010B504460068104906
:103CE000884201D1FEF7F2FB0E48844210D10E4A01
:103CF0001078401CC1B20D4811700A2909D03C2926
:103D000006D10178012903D1022101700020107031
:103D100010BD01780229FBD10121017010BD000006
:103D2000001000405C04002000000020040000207F
:103D3000704710B5014680310A79012A15D0012259
:103D40000A7124228A600268136814686408640097
:103D50001460012252079343002242660068036008
:103D6000202088600A71104610BD022010BD7047E7
:103D7000704770B5044605468034207901281AD072
:103D8000012020712420A06028680668026852087B
:103D9000520002602868826807235B069A430A4340
:103DA0008260284602F052FC286806602020A0604D
:103DB0000020207170BD022070BD70B5044605461C
:103DC00080342079012819D0012020712420A0609E
:103DD00028680668026852085200026028688268F3
:103DE000D200D2080A438260284602F02FFC2868DD
:103DF00006602020A0600020207170BD022070BDF0
:103E00007047704770470000F8B503680446D969E9
:103E100018689A68B44D0E462E4025468035002E0F
:103E200075D0B24EB24F1640074037436ED0CF0721
:103E300006D0C70504D501271F622B693B432B61C0
:103E40008B0708D5D30706D0276802233B622B696E
:103E500004273B432B614B0708D5D30706D02768BF
:103E600004233B622B6902273B432B610B0709D5D7
:103E700020230340334305D02668082333622E698C
:103E80001E432E610B0509D5430107D50123266882
:103E9000DB0233622B69202633432B612B69002B15
:103EA00042D089060AD520210840C9050A4010439E
:103EB00004D0616F002901D0204688472869216815
:103EC0008968490602D42821084232D0204602F0EF
:103ED000D3FC21688868400627D5EFF310800122C3
:103EE00082F310888B68402293438B6080F31088A4
:103EF0002868002819D07F4981632868FDF728FDCC
:103F0000002811D02868816B0DE000E017E08E06D4
:103F100015D5012720263F07064017403E430ED007
:103F2000616FB5E020468847F8BD2046FFF76AFF7D
:103F3000F8BD2046FFF766FF00202861F8BDE66E59
:103F4000012E7DD1CE067BD5C60679D510221A6208
:103F500023689868264640064036002849DA2968D2
:103F6000086840680004000CE8D0B78B8742E5D9A8
:103F7000F08308680068800634D4EFF310800121D4
:103F800081F3108819681701B943196080F310880C
:103F9000EFF31080012181F3108821688B685B08A2
:103FA0005B008B6080F31088EFF31080012181F3B8
:103FB000108821688B684027BB438B6080F3108892
:103FC0002020E8600020E066EFF31080012181F3FB
:103FD000108821680B6893430B6080F31088286871
:103FE000FDF77CFC02202067B08BF18B401A81B278
:103FF00035E0B08BF18B401A81B2F08B00289DD058
:1040000000299BD0EFF31080012686F310881E68EC
:10401000FF272137BE431E6080F31088EFF3108026
:10402000012383F3108823689E68304FFF433E408E
:104030009E6080F310882020E8600020E06600E0A9
:1040400011E06067EFF31080012383F31088236889
:104050001D6895431D6080F310880220206720466C
:10406000FFF785FEF8BDCE0208D5560206D5012021
:10407000000518622046FFF7C4FEF8BD0E060BD5FA
:1040800001278026FF0506403A40164304D0A16F61
:10409000002900D046E7F8BD4A0614D5420612D5DD
:1040A0002046EFF31081012282F310881A68402421
:1040B000A2431A6081F310882021A9600021816742
:1040C00000F06CF9F8BD0A0205D5420003D5204680
:1040D000FFF796FEF8BDC901FCD50028FADA2046A4
:1040E000FFF746FEF8BD00000F08000001000010B9
:1040F00020010004C167000870B5040005D0254602
:104100008035A868002802D006E0012070BD00209C
:104110002871204600F026F82420A8602068016855
:10412000490849000160204602F0F6FB0128EDD065
:10413000A06A002802D0204602F0AAFA206841684E
:104140000922D20291434160206881682A2291436A
:10415000816020680168012211430160204602F05D
:10416000FDFA70BD70B58EB0064614216846FCF7A6
:104170003CF81C2105A8FCF738F82549306888422E
:1041800044D1012000250590069505A8FEF76CFA9C
:10419000002801D0FDF758F81E4802680121890364
:1041A0000A430260006808400C901A484038426B8D
:1041B00002210A434263406B6A4608400C90C020CB
:1041C00023C20395694614480495FDF705FE144C77
:1041D00012482060332060601020E560A0606561B7
:1041E000A561E5618020256220612046FDF74EFC37
:1041F000002801D0FDF728F8F467002211461B20A3
:10420000A662FEF707FA1B20FEF7F8F90EB070BDA4
:104210000038014040100240000400506C00024091
:1042200030060020FFB5074604468037B86883B0E3
:104230000D46202802D0022007B0F0BD002D0CD082
:104240000598002809D00120A1680003814206D109
:104250002069002803D1E80701D00120ECE7002005
:1042600038612120B860FDF779FE0190264640367E
:104270000598B0820598F0820120A1680003814270
:1042800002D12069002802D00295002515E0002007
:10429000029012E000228021204602F005FC002856
:1042A00018D10298002817D02168007888620298F7
:1042B000401C0290F08A401EF082F08A019B002888
:1042C00006980090E6D100224021204602F0ECFB47
:1042D000002808D00320AFE728882168C005C00D5A
:1042E0008862AD1CE6E72020B8600020A4E700004B
:1042F00070B5054604468035A868202801D0022004
:1043000070BD00290BD0002A09D00123A0681B032F
:10431000984206D12069002803D1C80701D00120A6
:1043200070BD2046403021658282C2820020286113
:104330002121A960E16F002918D0154BCB62E36FF2
:1043400014491963E36F14495963E16F1346886395
:104350002668216D32462832E06FFDF7E9FB002820
:1043600004D0102028612020A860D8E721684020D0
:104370000862EFF31080012181F3108821688A68B8
:1043800080231A438A6080F31088002070BD0000EB
:10439000236800086F680008D567000870477047F9
:1043A00010B500F005F80149086010BDE4000020D8
:1043B000F8B5002401261E4FB60331463846FDF7F6
:1043C000B9FD0128F9D03E46002501277F030122CF
:1043D00039463046FDF7BBFD640000BF00BF00BF9B
:1043E000002239463046FDF7B2FD012189033046EF
:1043F000FDF7A0FD012800D1641C00BF00BF00BF75
:104400006D1CEDB2182DE2D3012239463046FDF77E
:104410009EFD00BF00BF00BF002239463046FDF7B9
:1044200096FD200202D5FF20000604432046F8BD79
:1044300000040050FEE700000849094A0860002017
:1044400048608860C8600A62C861064A4A62064AD3
:104450000A61064A4A6188617047000024200020F2
:104460000000C84200007F436666A63F9A99193F44
:1044700010B50648006880694005400F034802D027
:10448000FDF7BDFD10BDFDF7E9FD10BDE001002009
:1044900010B50648006880694005400F034802D007
:1044A000FDF7ADFD10BDFDF7D9FD10BD34020020B4
:1044B00010B5806A0021826B002A00D09163C26B24
:1044C000002A00D0916300F061FD10BD10B5806A34
:1044D00001684A680123DB031A434A60102100F097
:1044E00001F910BD10B5846A206801680122D20369
:1044F00091430160608D002808D0218D606A4218C8
:104500006262608DFF2803D9FF2002E020210FE0C6
:10451000608D2085216883B22431E06BFDF708FBB4
:10452000002804D01021204600F0DCF810BD402106
:10453000204600F055F810BD10B5846A2068016867
:104540000122920391430160608D002808D0218DE3
:10455000606A41186162608DFF2803D9FF2002E084
:1045600020210FE0608D2085226883B22832A06B65
:10457000FDF7DEFA002804D01021204600F0B2F842
:1045800010BD4021204600F02BF810BDF0B50446C8
:104590000022CE0740342823B025002E05D06678AF
:1045A00042221F46B74300D0F2228E0705D544268B
:1045B00064783243A34300D02A43CB0B01D0B82305
:1045C0001A43102908D0202907D0402905D00068B7
:1045D000016891430160F0BD90210A43F7E70000B4
:1045E00030B5164D446B00229023AC4202D0144DDE
:1045F000AC420BD1CC0B00D0B822102916D0202908
:1046000002D0402914D014E0602111E0CC0B00D07E
:10461000B822CC0701D0F22422438C0701D5F42420
:104620002243102902D0202902D002E01A4300E0E0
:104630000A43006801681143016030BD014B000866
:104640001D4D000801688A69D243920701D40022F7
:104650008A6200688169C943C90703D08169012260
:10466000114381617047F8B50546044640356878C6
:1046700028218143206804D00821C16100202870CE
:10468000F8BD8169C903CF0F8169FE230E0C8168D3
:104690001E408A05C168920D19408C46E1680229C6
:1046A00016D10621D3090E400B409E420FD1A16CBA
:1046B000491CA164A16C0229E2D10021A164082354
:1046C000C361297039462046FDF798FCF8BD66465F
:1046D0000121C9032046FFF759FF00202870324608
:1046E000F0E70000F8B50546044640356878002636
:1046F000AE70334AE2626685626C0A4362642828BF
:104700001ED029281CD02A281AD02E492046FFF76F
:104710003DFF6878602801D0202068706663206BB8
:10472000A16B294F002903D0112812D0212810D0C5
:10473000E16B002925D0122827D0222825D020E09F
:1047400003212046FFF722FF282068701F4860637E
:10475000E5E720680168490404D501680122920355
:1047600091430160A06BFDF731F9012809D0A06BDE
:1047700087632E70A06BFDF7EBF8002804D0A06BC8
:104780001AE0204600F002FCF8BD20680168090428
:1047900004D501680122D20391430160E06BFDF76B
:1047A00015F90128EDD0E06B87632E70E06BFDF703
:1047B000CFF80028E8D0E06B816B8847F8BD000097
:1047C0000000FFFF03800000B1440008314E0008E4
:1047D00070B504461648E062002525632022204675
:1047E0004030064642708570C8436563400712D466
:1047F0002068406A616A0870606A401C6062208DAF
:10480000002808D0401E2085608D401E6085606CA9
:1048100004210843606407492046FFF7B7FE21687A
:104820001020C86135702046FDF77CFC70BD00008B
:104830000000FFFF03800000F8B505460091006806
:104840002027C7612C4640346078212803D0607847
:10485000222806D00BE001212846FFF797FE112001
:1048600004E002212846FFF791FE12202863286801
:104870004168254A11404160002624486E63E86281
:104880000098C043C10606D42A681021D161696C22
:104890000422114369646178602905D1400703D47B
:1048A0002868406AC0B200902846FFF7CBFE686CCB
:1048B0006178602901D0002804D0696C2846FFF790
:1048C00011FFF8BD607821280DD060782228F8D13A
:1048D00067702E63A078A67040282670284610D0F6
:1048E000FDF721FCF8BD67702E63A078A670402804
:1048F0002670284602D0FDF717FCF8BDFDF716FC20
:10490000F8BDFDF712FCF8BD00E800FE0000FFFF57
:1049100070B50025064640360446B57071782020F3
:10492000212970700BD0122020630221204665637C
:10493000FFF72CFE35702046FDF7F5FB70BD11200A
:104940002063012120466563FFF720FE3570204675
:10495000FDF7EAFB70BD0000F8B502680446166872
:104960000546403568780F462021D161212806D0C0
:10497000292804D0222808D02A2806D00CE0424951
:104980002046FFF703FE212005E03F492046491C51
:10499000FFF7FCFD22202063206841680122D2033A
:1049A0001143416020684168384A11404160204607
:1049B000FFF748FEF043410407D420680168012254
:1049C000920391430160A06B08E000040BD42068BF
:1049D00002680121C9038A430260E06B002802D00B
:1049E000006840686085F8434007042100280FDB19
:1049F00020688F43406A626A1070606A401C60627F
:104A0000208D002804D0401E2085608D401E6085CA
:104A1000608D002802D0606C084360640026AE7090
:104A20006663606C00280BD0616C2046FFF75AFE6D
:104A30006878282803D139462046FFF7C9FEF8BD1B
:104A4000E06A134FB8420BD0204600F023F8E7622B
:104A50002020687026632E702046FDF763FBF8BDAA
:104A60006878222807D02020687026632E702046A0
:104A7000FDF72BFDF8BD2020687026632E702046C0
:104A8000FDF722FDF8BD00000180000000E800FEF7
:104A90000000FFFF70B505460068016800262C463F
:104AA0004034A670C9434A0403D40168012292032A
:104AB00004E0090404D401680122D2039143016097
:104AC0006178282029290ED061782A290AD16070BE
:104AD0002220286302212846FFF758FD2670284629
:104AE000FDF7F2FC70BD607021202863012128468B
:104AF000FFF74CFD26702846FDF7E7FC70BD00006F
:104B0000F8B50546044640352878012817D001201D
:104B10002870CB43DE06D043002E12DBC20610D431
:104B200021681020C861606C042108436064202162
:104B30002046FFF755FD2046FFF784FD5FE0022089
:104B4000F8BD304A304E1F0637D4470635D42068AA
:104B50000168402399430160608D00282068406807
:104B600028D08105608D890DFF2803D9FF2020857D
:104B70009B0408E0608D2085E06A904201D0E36AE2
:104B800001E001235B0600200090208DC2B2204688
:104B900000F0E6F9608D218D401A60856878222842
:104BA0002068016802D03143016028E00122D2036D
:104BB0001143F9E7800117D506E05F0618D44706D0
:104BC00016D4608D002804D040212046FFF78AFDCE
:104BD00015E020684168890111D4E16A914203D14E
:104BE0004168314341600AE02046FFF791FE06E04C
:104BF0009A0604D4800602D42046FFF71DFE00204A
:104C00002870F8BD0000FFFF00400000F8B5054621
:104C10000446403528783F4B012818D001202870E1
:104C2000C843C7060026D243002F12DBD70610D494
:104C300021681020C861606C042108436064202151
:104C40002046FFF7CDFC2046FFF7FCFC5FE002208A
:104C5000F8BD870708D4970706D4206D21688862BD
:104C60000020C043206552E007062CD457062AD402
:104C700010212046FFF7B4FC608D00281ED0608D07
:104C8000FF2803D9FF22228500962AE0608D208527
:104C900000962EE0204600F063F9608D218D401AC9
:104CA0006085687822282068016802D0012292037A
:104CB00001E00122D2031143016028E04021204697
:104CC000FFF710FD23E047061AD4570618D468787A
:104CD000222800D1104B608DFF2807D9FF222285A2
:104CE0000093E06C012381B21B06D3E7608D208521
:104CF0000093208DC2B2E06C012381B25B06C9E74C
:104D0000800604D4900602D42046FFF795FD2E704D
:104D10000020F8BD0020008000240080F7B5C76A9D
:104D200082B00446002026464036019030780128A3
:104D300023D0012030700398D543C04300908006F3
:104D4000002805DBA80603D420460399FFF704FEDC
:104D50000098C0065FD4E8065DD4690410200029DD
:104D600001DA290454D4E16B00290BD02A0409D4B8
:104D700009684968002903D004E0022005B0F0BDAD
:104D800001210191A16B002905D06A0403D40968AF
:104D90004968002902D0019900291BD0717828297F
:104DA00008D1012149068F4204D120460399FFF71B
:104DB0000FFD39E0717829292AD101210904CF4258
:104DC00026D02168C8612046FFF73CFC2046FFF74B
:104DD00061FE29E02168C861606C042108436064B9
:104DE0007078002F02D089058F421DD1212806D06E
:104DF000292804D0222804D02A2802D003E0212028
:104E000000E022202063616C2046FFF76BFC0BE082
:104E10002168C86108E00098000705D4280703D47A
:104E200020460399FFF71FFC00203070A6E7000022
:104E3000FEB5C56A04460646403601913078012821
:104E400028D0012030700198D743C04300908006DD
:104E5000002805DBB80603D420460199FFF77CFD46
:104E600000983D493D4AC00630D4F8062ED4638DE3
:104E70001020002B10D02168C861606C0421084309
:104E80006064002D01D0954262D1616C2046FFF72D
:104E900029FC5DE00220FEBD7278282A08D101229B
:104EA0005206954204D120460199FFF791FC4FE04C
:104EB0007278292A07D18D4205D02168C861204621
:104EC000FFF7C0FB41E02168C86141E0009840075E
:104ED00017D4780715D4608D00280CD02068406A5C
:104EE000626A1070606A401C6062208D401E2085DE
:104EF000608D401E6085608D002829D18D4224D1AF
:104F000026E00098000706D4380704D4204601990B
:104F1000FFF7A9FB1CE00098800719D4B80717D445
:104F2000608D00280DD0606A216800788862606A10
:104F3000401C6062608D401E6085208D401E208573
:104F400006E0954201D0002D02D12046FFF7A2FDD8
:104F500000203070FEBD00000000FFFF00000001D7
:104F6000890510B5890D12041143029C194302688A
:104F70002143490050684908630D034C234398437B
:104F80000843506010BD0000FF63FF0310B50146E9
:104F900040314B780022602B04D002630A70FDF789
:104FA00065F810BD20234B7002630A70FDF725F8E9
:104FB00010BD000070B50124134DE403002221460A
:104FC0002846FCF7C4FF05200007016803221204ED
:104FD0009143016001686200114301600022E11108
:104FE000FCF7B5FF022002F0DFFA01222146284635
:104FF000FCF7ADFF022002F0D7FA00222146284636
:10500000FCF7A5FF70BD00000004005010B505209E
:105010000007016803221204914301600168012224
:1050200012041143016001221102FCF790FF0122DA
:10503000D1030248FCF78BFF10BD000000040050B4
:1050400070B50124134DE403002221462846FCF7E5
:105050007EFF0520000701680322120491430160CE
:10506000016862001143016001221102FCF76FFF29
:10507000022002F099FA012221462846FCF767FF38
:10508000022002F091FA002221462846FCF75FFF39
:1050900070BD000000040050F1B500240520000799
:1050A0000168032212049143016001680160012636
:1050B000164F2546F603002231463846FCF747FFD7
:1050C000022002F071FA012231463846FCF73FFF18
:1050D0006006040EFF21052001310007FCF72AFFBE
:1050E000002801D0641CE4B2012002F05DFA6D1CBE
:1050F000EDB2082DDFD30098002803D0FFF75AFF48
:105100002046F8BDFFF79CFFFAE7000000040050BE
:10511000F8B5052705463F07386803210904884389
:105120003860386801210904084338604E100022B5
:1051300031461548FCF70BFF134F0024E80901D056
:10514000012200E00022FF21052001310007FCF7C9
:10515000FEFE6806050E022002F026FA0122314604
:105160003846FCF7F4FE022002F01EFA0022314617
:105170003846FCF7ECFE022002F016FA641CE4B29A
:10518000082CDBD3F8BD000000040050F8B505245E
:105190002407206803210904884320602068012136
:1051A0000904084320600D12012229462046FCF71D
:1051B000CEFE01220B4FD60331463846FCF7C7FE20
:1051C000042002F0F1F9002229462046FCF7BFFE38
:1051D000042002F0E9F9002231463846FCF7B7FE18
:1051E000F8BD000000040050F8B50524240720682D
:1051F0000321090488432060206801210904084331
:1052000020600F4E4D10002229463046FCF79FFECD
:10521000EF11002239462046FCF799FE042002F0E7
:10522000C3F9012229463046FCF791FE0122394696
:105230002046FCF78CFE042002F0B6F9F8BD000011
:1052400000040050F8B5002405252D0729682846DC
:105250000322120491432960296829600122160261
:105260003146FCF774FE012002F09EF90122D703BB
:1052700039460E48FCF76BFE012002F095F907E075
:10528000641CE4B2FA2C03D9FFF7AEFF0120F8BD8D
:1052900031462846FCF74EFE0028F1D1002239465F
:1052A0000248FCF754FE0020F8BD00000004005046
:1052B0008068C007C00F704780684007C00F704704
:1052C000C0680005800F01D00020704701207047A2
:1052D000026807239B059A430A430260704710B592
:1052E00043690424214007248C40A3438A4013438C
:1052F000436110BDFEB50024274800940194254960
:1053000002940160012149058460416008264661DC
:10531000C4600161047601254476857644620321E8
:105320008462C161014620310D7344632A038463A2
:1053300002630D771C21016484648021C46441648C
:10534000FCF758F9002801D0FBF77EFF019469466D
:10535000114800950294FBF791FF002801D0FBF75C
:1053600073FF0E4800900420019069460A48FBF73D
:1053700085FF002801D0FBF767FF094800906946C8
:1053800001960548FBF77AFF002801D0FBF75CFF88
:10539000FEBD0000002401402001002004000008A0
:1053A0000800000C08B51048816B0122114381638D
:1053B000806B03211040009000220920FDF72AF99C
:1053C0000920FDF71BF9002203210A20FDF722F92D
:1053D0000A20FDF713F9002203210B20FDF71AF92B
:1053E0000B20FDF70BF908BD0010024010B51B4A59
:1053F0001621052002F06CF9194C184AE0611832A8
:1054000004210A2002F064F9144A20623032042197
:105410000A2002F05DF9114A6062903A00211148B9
:1054200002F08BF90D4AE0606C3A00210E4802F060
:1054300084F90A4A2061483A00210C4802F07DF9BB
:10544000064A6061243A0021094802F076F9A06119
:105450000248483002F0F1F8A06210BD0890000840
:1054600004000020B90B0008A90A0008E50C000898
:10547000A90C0008F0B587B014216846FAF7B5FE0C
:105480006A48416B042739434163416B39400591B8
:10549000426B20210A434263426B0A400592416BF2
:1054A000012529434163416B29400591416B022647
:1054B00031434163416B31400591426B08210A43FE
:1054C0004263406B00220840059089025848FCF76F
:1054D0003EFD0520002257490007FCF738FD052155
:1054E000002249035448FCF732FD0122C0215048F4
:1054F000FCF72DFD01220520D1030007FCF727FD55
:10550000012209214D48FCF722FD8320800100245F
:10551000009002946946019503944548FCF75CFCB1
:1055200047480090052002946946019503940007BE
:10553000FCF752FC10206A4651C20520694600075C
:10554000FCF74AFC8020009005200490029401960C
:10555000039469460007FCF73FFC029400956946F6
:105560003548019604950394FCF736FC212000048D
:1055700001906946009702942F48FCF72DFC052006
:105580004003009002946946019503942A48FCF771
:1055900023FCA80300900194694602942648FCF776
:1055A0001BFC280200900520019469460294000724
:1055B000FCF712FC092000900294694601950394BF
:1055C0001E48FCF709FC11252D0469461B4800966E
:1055D00001950294FCF700FC019469461748009776
:1055E0000294FCF7F9FB3020009069460195029483
:1055F0001148FCF7F1FB002203210520FDF70AF812
:105600000520FCF7FBFF002203210620FDF702F82E
:105610000620FCF7F3FF002203210720FCF7FAFF26
:105620000720FCF7EBFF07B0F0BD000000100240C0
:10563000000800500206000000040050000C00505A
:105640000286000010B513481149016012494160FB
:10565000002181600161416181610122C161C260FB
:105660000162FCF705FD002801D0FBF7EDFD0021EC
:105670000848FCF779FC002801D0FBF7E5FD002184
:105680000448FCF796FC002801D0FBF7DDFD10BDB7
:1056900000540040E0010020BC7D701010B513489C
:1056A000114901601249416000218160016141613D
:1056B00081610122C161C2600162FCF7D9FC00284E
:1056C00001D0FBF7C1FD00210848FCF74DFC002884
:1056D00001D0FBF7B9FD00210448FCF76AFC002863
:1056E00001D0FBF7B1FD10BD00580040340200208E
:1056F000BC7D701010B511480F490160FF210531C4
:10570000416007221202C260002181600222026110
:105710000122426152028261016218224162C26129
:10572000816207220163C2624163FDF7D1FB002859
:1057300001D0FBF789FD10BD00300140F8030020C7
:1057400010B588B01C216846FAF74FFD1648154978
:10575000016000243F21846041600461FF21846175
:10576000C160FDF76FFF002801D0FBF76DFD0E480B
:10577000FEF7CFF9002801D0FBF766FD602000900E
:10578000019402940022694604940748FEF72DF91B
:10579000002801D0FBF758FD0348FEF7E9F808B0F0
:1057A00010BD000000200040A804002010B594B0F7
:1057B0001C210DA8FAF719FD34216846FAF715FDEA
:1057C0001F492048002412C004608460C460A021E6
:1057D000046141600838FDF735FF002801D0FBF770
:1057E00033FD1848FEF795F9002801D0FBF72CFD92
:1057F000602012940E940D900F9410941194002236
:105800000DA913940F48FEF7F0F8002801D0FBF71C
:105810001BFD012000944003019402940590039421
:105820000494069469460C940648FDF77FFE002810
:1058300001D0FBF709FD0348FEF79AF814B010BD3C
:1058400000440140F40400203EB500240F480094B9
:1058500001940D49029401600D49846041600D4935
:10586000C16080218161FDF7EDFE002801D0FBF7CA
:10587000EBFC0094694605480294FDF7ADFE002854
:1058800001D0FBF7E1FC3EBD001400405C040020A9
:105890007F0200008713000010B51E4C1C482060DA
:1058A000E120400260600020A060E0602061A06113
:1058B000E06120620C2160626161A0622046FEF717
:1058C0001BFC002801D0FBF7BFFC00211148FEF7AC
:1058D00074FA002801D0FBF7B7FC00210D48FEF751
:1058E00048FA002801D0FBF7AFFC0A48FEF721FA7E
:1058F000002801D0FBF7A8FC2068016810221143A2
:1059000001602068016820221143016010BD000081
:10591000003801409C050020F8B51C4E00242246AA
:1059200001213046FCF713FB01210904A72000F0F8
:105930004BFE022001F05AF9154D6946042000F093
:1059400011FE6846C078800703D46946042000F041
:1059500009FE012002F03AFD641CAC4205D1002191
:10596000A72000F031FE0020F8BD6846C07880070F
:10597000E3D400F03BF80021A02000F025FE012236
:1059800011463046FCF7E3FA0120F8BD000C005048
:10599000FFFF0000081A10B51349124A0968904227
:1059A00008DDA72000F010FE0221A02000F00CFE70
:1059B000022010BD0B4A5242904208DAA72000F0A4
:1059C00003FE0121A02000F0FFFD012010BD0021F9
:1059D000A72000F0F9FD0021A02000F0F5FD002037
:1059E00010BD00000B420000D800002010B50021BF
:1059F000A12000F0E9FD0021AD2000F0E5FD10BD83
:105A0000FEE7F8B504460126F6070068FAF749FCF8
:105A10000146A060E069FAF7F3FB0146E061206A05
:105A20007040FAF751FD02D8256A754007E0216AF7
:105A3000E069FAF749FD01D8256A00E0E569E5610A
:105A4000A768E1683846FAF72CFCA169FAF731FC3F
:105A5000064629466069FAF72CFC05463946206956
:105A6000FAF727FC2946FAF7CBFB3146FAF7C8FBD1
:105A70000121C9056060884201DA002006E0616A00
:105A8000FAF722FD01D8606A00E060686060A168F2
:105A9000E160FAF7D4FCC0B2F8BD000009480A4939
:105AA000C07AC006800F012807D0022805D003283D
:105AB00005D0002805D1032002E0012000E00220EB
:105AC000487070474C200020E800002070B5054663
:105AD0000F480A220D49006802F0C5FF002813D0C4
