:020000040800F2
:100000006023002049010008ED4A00088D380008EF
:1000100000000000000000000000000000000000E0
:10002000000000000000000000000000BD4E0008BD
:100030000000000000000000070100085150000807
:100040005B010008000000005B01000819090008BE
:10005000414C0008F1080008FB08000805090008E9
:10006000000000005B0100084108000815080008B6
:100070005D0600085B0100085B010008000000004D
:100080005B010008F550000805510008D550000834
:100090005B010008E55000085B010008CD3800084E
:1000A000ED380008454C00085B010008695B00085A
:1000B0005B0100085B0100080448854600F09AFADD
:1000C00000480047C35C0008C046C04660230020CB
:1000D000084B19680868203080F30988022080F3F3
:1000E0001488BFF36F8F3FBCAE4608BC04BC62B639
:1000F0001847000044000020EFF3108072B67047EC
:1001000080F310887047EFF309800E4B1A6820388F
:100110001060F0C044464D4656465F46F0C008B5F4
:1001200072B606F077FD62B60CBC11680868103034
:10013000F0C8A046A946B246BB4680F309882038DD
:10014000F0C818474400002004488047044800478E
:10015000FEE7FEE7FEE7FEE7FEE7FEE7D150000818
:10016000B900000830B50B460146002020220124CA
:1001700009E00D46D5409D4205D31D469540491BDB
:100180002546954040191546521E002DF1DC30BD24
:1001900070B500242546002801DA012440420029D8
:1001A00001DA01254942FFF7DDFFAC4200D04042B1
:1001B000002C00D0494270BD03460B439B0703D07F
:1001C00009E008C9121F08C0042AFAD203E00B781C
:1001D0000370401C491C521EF9D27047D2B201E094
:1001E0000270401C491EFBD270470022F6E710B592
:1001F00013460A4604461946FFF7F0FF204610BD95
:10020000F8B502464A40D40F42004B0052085B0842
:100210009A4202D20246084611464A0023D0C30D34
:100220004A00DDB2120EAD1A202D35DA4902012640
:10023000490AF6058A19002C00D0524220214F1B92
:100240001146B9402A411018C20D9A4221D0002C03
:1002500017D0012D08DCDA05801AD20F8019D207D9
:10026000DBB200F02FF9F8BDDA05801A0123400057
:100270001B06C01880185A428018CA0F1043490044
:1002800007E04908C2071143DA05801A80194008BF
:10029000801800F00FF9F8BD61000122511A001B0F
:1002A000F7E70122D2075140AAE70122D2075040C6
:1002B000A6E7024670B54A40D30FDB0740002DD0B9
:1002C0004A002AD0010E140E000212020919400A37
:1002D000520A8418E50104465443000A120A2E0407
:1002E0005043A4194219200CC543AA18120C012529
:1002F000AD03521C521912047F39240400D0521C41
:10030000104301D44000491EC2B20C06C009201897
:10031000401C4008802A02D003E0002070BD400845
:100320004000002900DA0020184370BD70B5024675
:100330004A40D50F40004A00ED0740085208002807
:1003400014D0002A12D0C40DD30D41020120C005E3
:100350005202490A520AE41A091812187D349142CD
:1003600001D3641C00E04900002C01DA002070BDBC
:100370000023914201D3891A034340084900002811
:10038000F7D100290AD0914202D10121C90705E025
:10039000914201D2012101E00121C943E005C018C9
:1003A000401900F087F870BD70B54B005B0803433F
:1003B0000BD04B005C0D002633466542B341D41789
:1003C000AD1AA34102DB0020014670BD12053018B2
:1003D000514170BD10B500229623114600F072F80D
:1003E00010BD00000EB5C217C10F5040CA0740181B
:1003F0000021054B0293019200910A460B4600F042
:10040000A7F803B000BD000033040000C20F410094
:1004100040020123400ADB05D207090EC0187F29DC
:1004200001DA00207047962903DC9623591AC84048
:1004300001E096398840002AF4D0404270474100DC
:1004400040020122400AD205090E80187F2901DAF4
:1004500000207047962903DC9622511AC840704745
:10046000963988407047CB0FDB07490010B5490823
:1004700002460A4307D00A0D07240903E401090BC9
:10048000121B002A01DC002010BDC900440F0C43E0
:10049000C100E018D205801800F00CF810BD000073
:1004A0000122D207002800DB101A002900DB511AB4
:1004B00088427047002904DA401C490001D14008F5
:1004C0004000704770B40024050C05D110240004CE
:1004D00002D1002921D01124050E01D100020834D7
:1004E000050F01D10001241D850F01D18000A41C3E
:1004F000002801DB4000641C002908D020252E1BA9
:100500000D46F540A14000D00121294308430106D2
:100510001B1B000ADB1D02D5002070BC7047DB05E9
:10052000181880180029F8DA401C4900F5D170BC71
:1005300040084000704710B5002B08DA0024401C2A
:10054000614192185B411A4301D14008400010BD3F
:10055000F0B51FB482B005460C0003D0084605F084
:100560005BFB02E005F058FB20300246009021467C
:10057000284600F051F8049B059A04460F4618439C
:100580001143084314D0184610431BD00098402153
:100590000A1A1846059900F04FF805460E46009ACB
:1005A0000599049800F038F8084305D0012004E0CC
:1005B0002046394607B0F0BD0020C11705430E4361
:1005C0002C43374300990E986305401A7905E40AD5
:1005D00000220C43FD0A0A3002D500200146E9E75B
:1005E0000105101969410C9C0D9D00196941FFF727
:1005F000A2FFDFE7064C0125064E05E0E36807CCC5
:100600002B430C3C98471034B442F7D3FFF758FD06
:10061000E87700080878000810B5202A04DB0146B6
:10062000203A9140002010BD914020239C1A03469F
:10063000E3401943904010BD10B5202A04DB084662
:10064000203AD040002110BD0B46D340D04020249A
:10065000A21A91400843194610BD000010B5024887
:1006600000F086FA10BD0000F800002008B56426EE
:1006700009270E4C0A25002300961A460B21606AB2
:1006800006F074FB384203D0810701D4084906E024
:10069000C143890702D029468143ECD10549E0696D
:1006A00006F0BAF8C82006F0DDF9E4E704000020FF
:1006B000000020420000484208B504F0EBFE03F0C1
:1006C0009BF804F09FF9284D284CC826002300967B
:1006D0001A460E21606A06F049FB0107890F05D012
:1006E000810703D4C82006F0BDF9EFE74107890F61
:1006F000032902D00A218143E8D103F085F81C497F
:10070000A060884207DB2078002804D1194802F055
:10071000B5FA012020702078012802D0022814D1D7
:1007200007E01549286809684018A16804F0A8F98D
:1007300008E00121C903A72004F03AFF0221A0200C
:1007400004F036FF642006F08DF9A0682968401A8D
:1007500000D500200549002360601A46091D206A63
:1007600006F004FCB2E70000DC00002004000020DA
:10077000706408007C030020C400002008B51F48F6
:100780000068C168012252021143C1601C4D6426F9
:10079000002300961A460F21686A06F0E7FA04461D
:1007A000C00705D0174804F01FFA0A2006F05AF9CE
:1007B000600707D5A00705D5134804F0E9F90A201A
:1007C00006F050F920070ED5104804F00DFA0A2063
:1007D00006F048F9A00706D50C48401C04F0D8F9EB
:1007E0000A2006F03FF964220949A86906F091FC45
:1007F0000028CDD0064805F04FFBC9E714040020BF
:10080000040000200203000002070000030C0000A7
:10081000E000002010B5064800F042FC054800F05A
:100820003FFC054800F03CFC044800F039FC10BDDA
:10083000BC0200205C010020500500206004002064
:1008400010B5024800F02CFC10BD00006002002032
:1008500010B50446006C09498008800040186064A7
:10086000207814210838FFF77DFC04498031A16409
:10087000C106C90E01208840E06410BD0008024096
:100880000179084B8906890E8A00D2180265054A4B
:100890004432491E42658A07920F012191408165C9
:1008A00070470000FC080240F0B5846CC56C6560C0
:1008B000046D002C02D0446D856D65600B4C65683D
:1008C000066C1C273E400127B7403D436560046825
:1008D00063608368102B036803D099600068C2606E
:1008E000F0BD9A600068C160F0BD000000000240E9
:1008F00010B5022000F0A2FD10BD10B5042000F0DC
:100900009DFD10BD10B5102000F098FD202000F0D6
:1009100095FD10BD72B6FEE710B500F0B7FC10BD36
:10092000044A5069044BC90018400143034801437D
:10093000516170470020024007E0FFFF0200010004
:100940007047704770477047F8B500270646044661
:1009500040360097307D0D4601280FD001203075BC
:10096000206803F02EFD00280AD0A06D2021084346
:10097000A0650127002030753846F8BD0220F8BD7B
:10098000686802287ED001222169D207914202D0F4
:10099000121D914206D120682968826A4903490BD9
:1009A0000A436EE0C206D20E0F20216E90408143B2
:1009B0002868430302D0C3074BD102E04000C00EB9
:1009C00048E0830701D5012044E0430701D5022018
:1009D00040E0030701D503203CE0C30601D5042015
:1009E00038E0830601D5052034E0430601D5062012
:1009F00030E0030601D507202CE0C30501D508200F
:100A000028E0830501D5092024E0430501D50A200B
:100A100020E0030501D50B201CE0C30401D50C2008
:100A200018E0830401D50D2014E0430401D50E2005
:100A300010E0030401D50F200CE0C30301D5102002
:100A400008E0830301D5112004E0400301D5122002
:100A500000E000209040014321666968E26988084F
:100A6000401C904210D820682B68826A9C46C906B8
:100A7000C90E0F238B409A4363469B001B0F8B408C
:100A80001A4300E03BE082622168AB6828684A694B
:100A90000002824318404001400902434A6128682D
:100AA000002800DB66E72B4A116807239B051940E5
:100AB000294B984214D10B0212D4C00201431046B4
:100AC00003F08BFC264825490068FFF74BFB0C21FF
:100AD000401C484300E0401E00900028FBD149E73D
:100AE000204B984203D1CB0101D4800205E01E4B7C
:100AF0009842D7D14802D5D45802014325E00121BC
:100B00002069C907884202D0091D884206D12068A1
:100B10002968826A4903490B8A438262286800284F
:100B2000C0DA0C4A116807239B0519400A4B98420A
:100B300001D1C00208E00B4B984201D1800203E0D2
:100B4000094B9842AED140028143104603F045FC68
:100B500010E7000008270140001000B0400D03001E
:100B600040000020004000B8002000B470477047EB
:100B7000F8B50446006806684568B0070FD5A807B1
:100B80000DD5A06DC00604D4A06D0121C902084393
:100B9000A0652046FFF7D5FE216802200860474F78
:100BA000700701D5680703D4300728D5280726D554
:100BB000A06DC00604D4A06D012149020843A065C0
:100BC000206803F002FC002813D0A07E002810D17A
:100BD0002068016809070CD503F0F3FB01460120EA
:100BE000002960D0A16D20221143A165E16D014370
:100BF000E1652046FFF7BAFF21680C200860300647
:100C00000CD528060AD5A06D012109040843A0656A
:100C1000204600F065F9216880200860F0050BD5BA
:100C2000E80509D5A06D012149040843A0652046C7
:100C3000FFF788FE20680760B0050DD5A8050BD525
:100C4000A06D012189040843A0652046FFF77BFEC3
:100C50000120216840020860F00618D5E80616D584
:100C6000206B002804D02068C0688007800F0BD05C
:100C7000A06D012189020843A065E06D02210843AF
:100C8000E0652046FFF773FF216810200860B0047C
:100C900008D5A80406D52046FFF752FE012021689A
:100CA00040030860F8BD21684A680C239A434A60F3
:100CB000A16DB9430143A1659BE70000000100005D
:100CC000FEB50027044601973E460297009700288C
:100CD00005D02546A06D2035002802D007E0012070
:100CE000FEBD204600F0FEF8E6655420065520685B
:100CF0008168C900C90F12D18168724A114001226E
:100D000012071143816071486F490068FFF72AFAA2
:100D10004000801C00E0401E00900028FBD12068AD
:100D20008168C900C90F08D1A16D10221143A165C6
:100D3000E16D01221143E165174603F042FBA16D0D
:100D4000C90601D4002804D0A06D10210843A06575
:100D5000B4E0A06DFF210131884302210843A06562
:100D6000206803F02AFB00286DD1217EA06889034A
:100D70000843617ECA03A17E4B031A431043226BD2
:100D8000002A01D0012212031043E26810432269B5
:100D9000002A02DA5200520801E0012252051043F3
:100DA0002A7B52001043019A10432A78012A09D164
:100DB000002922D0A16D20221143A165E16D0122FD
:100DC0001143E165616A002906D0FF23C133194050
:100DD000A26A0143104608432168CA683C4B1A4086
:100DE0000243CA606168029A890F8907E06C0A436E
:100DF00010432A7F012A04D00CE001210904084392
:100E0000E0E7636C226C491C1A43A36C0B43114648
:100E10001943084321680A692E4B1A4002430A61AC
:100E200003216068890788420DD0590788420AD09B
:100E30004900884207D0284A91680F239B049943B0
:100E40001840014391600021626B206803F0CCFAE6
:100E50002249A26B206803F0C7FA0F202169C04322
:100E600000291CD00122520591420AD121688A6AC8
:100E7000227F9200121FD206D20E9040226E1043A3
:100E8000886220684069616B4007400F88420BD13F
:100E9000E665A06D80088000401CA0650FE0216819
:100EA0008A6A02438A62ECE7A06D0221884310211E
:100EB0000843A065E06D01210843E065012738463D
:100EC000FEBD0000E8FFFF7F400D03004000002052
:100ED0000102FEFF02FCFF1F0027014004FFFF0785
:100EE0007047000070B58EB00646142107A8FFF7C2
:100EF0007CF91C216846FFF778F927493068884259
:100F000048D101200025800305950090684600F037
:100F10003DFE002801D0FFF7FDFC204802680121BA
:100F200009050A430260006808400C901B484038DD
:100F3000416B012211434163406B07A910400C90A3
:100F40000D2007900320089005200995000700F068
:100F50008BFA144C12482060A5600520E5606060A3
:100F600080202061400060618000A0612020256217
:100F7000E061204600F0F0F8002801D0FFF7CAFC3D
:100F80003465002203210C20A66200F0D5FD0C2060
:100F900000F0C6FD0EB070BD0024014040100240BC
:100FA000580002405C010020F0B5002808D001463E
:100FB00020314A79022A05D00422C2630020087138
:100FC0000120F0BD026813680E24A3431360426C35
:100FD0001468FF2301339C4314600268146864089A
:100FE000640014600C4A5568066C1C2426400124D9
:100FF0002746B7403D435560826CC56C5560026D15
:10100000002A05D015689D431560826D406D4260D1
:101010004C7100200871F0BD00000240F8B50024BA
:10102000024620325179022903D00421C1630124F0
:101030002DE001680B680E25AB430B6001680B685F
:101040005B085B000B60416C0B68FF250135AB430F
:101050000B6010494D68066C1C231E4001231F467F
:10106000B7403D434D60816CC56C4D60016D0029FA
:1010700006D00E681D02AE430E60416D856D4D6059
:10108000537100211171816B002900D088472046DF
:10109000F8BD000000000240203040797047000099
:1010A000F0B42C490C6802681368056C1C273D409D
:1010B0000426AE40264211D05E070FD513689B066A
:1010C00003D4146804239C4314604B68046C04220A
:1010D0003C40A24013434B60016B1CE00227AF4031
:1010E000064627402036002F19D09F0717D51368D2
:1010F0009B0605D413680A24A3431360012272716E
:101100004B68046C1C2214400222A24013434B6023
:1011100000213171C16A00291AD0F0BC08470827A4
:10112000AF40274214D01B0712D513680E24A343E7
:1011300013604B68046C1C22144001221546A54024
:101140002B434B60C263727100213171416BE2E746
:10115000F0BC70470000024070B504003FD0254845
:10116000256814212818FEF7FDFF80002064022066
:1011700026462036707128681F4908402860E168BB
:10118000A06862690843216911430843A1690843C3
:10119000E1690843216A084321680A68104308602E
:1011A0002046FFF755FB0121A068890300258842EE
:1011B00000D165602079616C8006800E0860A06CAB
:1011C000E16C41606068401E03280AD82046FFF7A2
:1011D00057FB206D0560606DA16D416004E001204A
:1011E00070BD25656565A565E56301207071357184
:1011F000002070BDF8FFFDBF0F80FFFFF8B504466B
:101200008C4620300179002501290BD0012606717A
:1012100041790027012907D08021E1630771012569
:101220002846F8BD0220F8BD02214171E76320681D
:10123000016849084900016061462046FFF734FB18
:10124000206B00282068016801D00E2205E00422EE
:1012500091430160206801680A2211430160606CBB
:101260000168CA03074902D502680A430260206D7B
:10127000002802D002680A430260206801683143F6
:101280000160CDE70001000070470000F8B51F4D78
:101290002869204C1E4BA16818404A0701D52669D1
:1012A00008E06A698A436A611B4A114201D0E66814
:1012B00000E066690027002807D06168014361608B
:1012C0002B613046A76000F029F82869C00713D0C9
:1012D00001202861A06802280AD1A069401EA061EF
:1012E00006D06169491C61612069FFF719FB00E0C4
:1012F000A7603046FFF7C8FFA068002805D16869DD
:1013000003210906884368612770F8BD0020024068
:10131000FA8300001006002001000400704700005E
:10132000F8B500203F4D0090286805F0D2FC044637
:1013300005202646064001D120073BD504213A4826
:1013400000F040F9002835D1A00734D4002E01D197
:10135000200730D56A460221286805F0FDFC334D90
:10136000334E60070FD5072003F0AAFD00220121AC
:10137000284600F02CF93146A72004F019F9012184
:10138000A02004F015F9E00702D0032003F098FD37
:1013900020070FD500220121284600F018F9314618
:1013A000A72004F005F90121A02004F001F90C2088
:1013B00003F086FDF8BD0221286805F057FC1D4E9C
:1013C000E0070AD0032003F01DFE0121286805F084
:1013D0004DFC0021306805F093FD174F60070CD5D8
:1013E000072003F00FFE0421286805F03FFC03F0FE
:1013F00009FB0021386805F083FD2007DAD50C20B1
:1014000003F000FE0821286805F030FC03F0FAFA2A
:101410000021306805F074FD0021386805F070FD8A
:10142000F8BD00002800002000040050000C00500F
:1014300000800000200000202400002070B5084D2E
:101440000446E868204203D0EC60204600F00AF829
:101450002869204203D02C612046FFF761FF70BD50
:101460000018024070470000F0B5002303249AE002
:101470002A4601259D402A407ED00E79B607B60F38
:10148000012E01D0022E16D186682746B4465E0092
:10149000B646B7406646BE43B446CF687646B740C8
:1014A0006646374387604668AE430D79ED06ED0F1B
:1014B0009D40354345600D79ED43AD0708D0C568C3
:1014C0005F002646BE40B5438E68BE402E43C660D0
:1014D0000D79AD07AD0F022D0ED1DD08AD002D1831
:1014E000AC462D6A5E07F60E0F27B740BD430F6965
:1014F000B7402F4365462F6205685F002646BE4011
:10150000B5430E79B607B60FBE402E4306604D6850
:10151000AD03AD0F46D09E08264DB6007519AC46FA
:101520002D6E9E07F60E0F27B740BD4305273F07D8
:10153000B84201D100270FE01F4FB84201D1012767
:101540000AE01E4FB84201D1022705E01C4FB84205
:1015500001D1032700E00527B7402F43154D66460C
:1015600037662D684E689543F60200D51543114F36
:101570003D607D68954300E014E04E68B60200D5FA
:1015800015437D600B4D80356E684F689643BF03F1
:1015900000D516436E602E684F689643FF0300D552
:1015A00016432E605B1C0A681546DA4000D05FE7E0
:1015B000F0BD000000180240000400500008005078
:1015C000000C00500069084000D001207047002A3C
:1015D00001D08161704781627047000001488068D6
:1015E000704700003400002070B502464032537846
:1015F000202B1CD11378012B19D001231370242424
:101600005470046825689D432560046825681E039E
:10161000B5432560046825680D43256000680168AE
:1016200019430160202050700020107070BD02200E
:1016300070BD70B5024640325378202B1BD1137811
:10164000012B18D0012414702423537003681D68E3
:10165000A5431D6005682B680F263602B3430902B7
:1016600019432960006801682143016020205070FF
:101670000020107070BD022070BD7047704770B5BB
:1016800003689A691968D243D40508D4CC43240668
:1016900005D4446C01252C4344642C02DC615305C1
:1016A00009D4CB431B0606D4436C0824234343646C
:1016B000E3010468E361920509D4C943090606D42D
:1016C000416C02221143416411020268D161416CF4
:1016D0000B22114201D002F009FA70BD0268916933
:1016E0001268436B002B00D018477047704700000A
:1016F00070B5040006D025464035687800260028DD
:1017000002D005E0012070BD2E70204600F0CEF81A
:1017100024206870206801684908490001600F2191
:101720006068090688432168086121688A68012089
:10173000C00382438A60E1680129A16808D02122A0
:101740009202114322689160E168022902D005E00B
:101750000143F7E701212268C902516021684A6804
:101760000F4B1A434A602168CA688243CA606169A4
:1017700020690843A169090208432168C860216AF9
:10178000E06908432168086020680168012211436C
:1017900001606664202068702663AE70002070BD12
:1017A0000080000270477047704770477047000024
:1017B000FFB5044681B01F4625461346403569787B
:1017C0000A9A0B98202964D1002A1ED000281CD028
:1017D00021688E69F64336045BD52E78012E58D0E9
:1017E00001262E7022266E704026AE70002666649A
:1017F000626260852848E062284860630298E0647D
:10180000608DFF2805D9FF2004E0012040026064BC
:1018100023E0608D2085D8B2012F21D01B0A8B6276
:101820002065E06B00281FD01D49C162E16B1D4897
:101830004863E06B0663E06B86632168238D243187
:10184000E06BFFF7DBFC002814D020206870AE703E
:10185000606C1021084360642E70012005B0F0BD5B
:1018600088620020C043DBE720206870AE70606CA7
:101870008021EFE70C480090FAB20023204602993D
:1018800002F072FD2E700121204602F0ADF800201A
:10189000E4E70220E2E700000000FFFF1540000837
:1018A000413900082939000800200080F0B58DB0CA
:1018B000064614216846FEF798FC1C2105A8FEF791
:1018C00094FC444A3168444D02271224002091427E
:1018D0002AD1202106460890059105A800F056F966
:1018E000002801D0FFF716F8686B38436863686B0F
:1018F000694638400C900320000251C10620049034
:10190000694603963548FFF7AFFDE96B01204005B6
:101910000143E963E96B002201400C910321172088
:1019200000F00AF9172051E02D4A914250D1696B1D
:1019300039436963696B019439400C910321044672
:101940000290039089020620009104906946234882
:10195000FFF78AFDE96B012080050143E963E96B2C
:10196000214D01401F480C912860AC60EC606C6117
:10197000AC618027EC612F610C202C6268602846E6
:10198000FFF7EAFB002801D0FEF7C4FFF563AE6263
:10199000154D14485C35143028600D2068602946C8
:1019A0001020083191C16C61AC61EC6128462C6259
:1019B000FFF7D2FB002801D0FEF7ACFFB563002291
:1019C00003211820AE6200F0B7F8182000F0A8F844
:1019D0000DB0F0BD00540040001002400004005063
:1019E00000580040300002406002002070477047FD
:1019F00002488168027889188160704734000020AD
:101A000010B50848002401688215114301600320C5
:101A100000F00AF8002801D0012401E000F052F89B
:101A2000204610BD0020024030B505461F4887B053
:101A3000C26B10210A43C263C06B0840009005A925
:101A400001A800F0FFF90498002815D000F016FA5C
:101A500040001749FEF786FB411E1748154A0260F1
:101A6000164AC2604160002101618160816101F01C
:101A70007BF8040003D015E000F000FAE9E70E4817
:101A800001F0FCF804000DD1112000F049F8042DFC
:101A900007D200222946112000F04EF808480560C0
:101AA00000E00124204607B030BD000000100240D5
:101AB00040420F0000100040C4050020E703000072
:101AC0003800002008B51548016801221143016063
:101AD00000681040009011484038C26B01040A436E
:101AE000C263C06B0022084003210090481F00F031
:101AF00023F803210022084600F01EF8032000F01E
:101B00000FF800220321042000F016F8042000F052
:101B100007F80320400200F08DFF08BD401002408E
:101B2000002805DBC106C90E012088400149086074
:101B30007047000000E100E010B504F091F810BD1E
:101B400010B50F4C216803225202914301432160DA
:101B5000C11FFF39FA390ED10A48062100684843EF
:101B60000949FEF7FFFA401C02E0002805D0401E9C
:101B700061694905F9D4002010BD032010BD0000A3
:101B8000007000404000002040420F00F8B50446BD
:101B900000680026524D800358D551480027403830
:101BA000C06BC00009D44E484038C26B01040A43E0
:101BB000C263C06B0840012700904A480168821543
:101BC00011430160FFF70AFD009005E0FFF706FDF5
:101BD0000099401A022825D842480068C005F5D56A
:101BE000E8690321090208400FD0A16981420CD0A5
:101BF000E86903210902EA698843012109040A43CB
:101C0000EA61EA698A43EA61E861C0070FD0FFF739
:101C1000E5FC009008E0FFF7E1FC0099411A32482A
:101C2000814201D9032609E0E8698007F3D5E86914
:101C3000032109028843A1690843E861002F05D008
:101C400027484038C16B02049143C1632078C00724
:101C500005D0686961688008800008436861207861
:101C6000800705D568690C218843A168084368612D
:101C70002078800606D56869032109038843E16856
:101C8000084368612088400411D568696169800053
:101C9000800808436861012160698907884206D18C
:101CA0000F484038C168012212041143C1602088E6
:101CB000000512D568690321890388432169084317
:101CC0006861012120698903884206D104484038AF
:101CD000C168012212041143C1603046F8BD000002
:101CE000401002400070004088130000F8B50F4615
:101CF000060043D04D4D28684007400FB84213D22C
:101D00002868C008C00038432860FFF767FC044615
:101D100005E0FFF763FC011B4548814261D8286854
:101D20004007400FB842F4D13068424C81070DD5CE
:101D3000400704D5A068072109030843A060A068F4
:101D40000F2109028843B1680843A0603078C007BA
:101D500032D0706801280AD002280BD000280FD09A
:101D60003449403103280ED0C969890704E021684D
:101D7000890301E021688901002906DB0120F8BD03
:101D800021684905F8E7096AEFE7A168C908C900B1
:101D90000143A160FFF722FC009006E0FFF71EFC64
:101DA0000099411A224881421BD8A0683821084076
:101DB0007168C9008842F1D128684007400FB842D5
:101DC00017D91A480168C908C90039430160FFF7EB
:101DD00005FC054607E0FFF701FC411B1448814262
:101DE00001D90320F8BD114800684007400FB842F0
:101DF000F1D13078400706D5A06807210903884350
:101E0000F1680843A06000F04DF8A1683C22890900
:101E10001140094A515CC906C90EC840074908600B
:101E200007480068FFF700FEF8BD000000200240F0
:101E300088130000001002402877000840000020AE
:101E40003800002010B5072202600A4A93685B0739
:101E50005B0F436093680F242402234083609268E1
:101E600007231B031A40C260034800684007400F65
:101E7000086010BD001002400020024006480749DB
:101E800000688968064A4904490F8900515CC906FF
:101E9000C90EC840704700004000002000100240FA
:101EA0006877000810B51C4CA0688006410F1B48DD
:101EB00015D0A1688906490F01290FD0A1688906AC
:101EC000490F022911D0A0688006400F04281DD0B8
:101ED000A0688006400F03281BD0002010BD216899
:101EE00089044A0F012191400DE0E168E16849064B
:101EF000490F491CFEF736F9E1684904490E484389
:101F0000E168490F491CFEF72DF910BD0120C003FF
:101F100010BD7D20000210BD001002400024F4001E
:101F2000F8B504007ED020783827C007E94D002896
:101F300046D0A868E96838408907890F102802D080
:101F400008280BD001E0032908D0012062680004B2
:101F500082420AD129680143296015E0286880037C
:101F60002ED560680028DDD02AE0052301211B045E
:101F700089049A422A6802D10A432A60EAE7824326
:101F80002A60286888432860606800280CD0FFF722
:101F900025FB064604E0FFF721FB801B642873D86D
:101FA00028688003F7D50BE0FFF718FB064604E02E
:101FB000FFF714FB801B6428F1D828688003F7D44E
:101FC0002078800769D5A868E96838408A07072122
:101FD000920FC902102802D0002813D001E0022A73
:101FE00010D0E068002846D028688843216908435B
:101FF00028602868FF21013108432860FFF7EEFAC6
:1020000006462CE02A68520502D5E268002A89D0EB
:102010006A687F231B029A4363691B021A436A6042
:10202000002800E08DE00ED128688843216908432C
:102030002860286801218004400F8140A648FEF7EF
:1020400091F8A6490860A6480068FFF7EDFC002853
:1020500077D122E0FFF7C2FA801B02289FD82868B8
:102060004005F7D568687F21090288436169090244
:102070000843686011E02968FF200130814329602E
:10208000FFF7ACFA064605E098E0FFF7A7FA801BD9
:10209000022884D828684005F7D42078914E00079C
:1020A0002ED5A8688006400F03280AD0A069002812
:1020B000306A16D0012108433062FFF78FFA0746D5
:1020C0000BE0306A80071BD5A06900289FD017E07D
:1020D000FFF784FAC01B022870D8306A8007F7D552
:1020E0000EE0400840003062FFF778FA074604E04F
:1020F000FFF774FAC01B022860D8306A8007F7D453
:10210000207840076CD5A86800278006400F042877
:1021100018D0E86BC00008D4E96B01200007014328
:10212000E963E96B0140012700916F480168C90527
:1021300019D40168821511430160FFF74FFA00902E
:102140000DE083E0F06980074AD5A06800287DD0C3
:1021500046E0FFF743FA0099401A02282ED8624859
:102160000068C005F5D5A168012910D00420052913
:10217000F16911D049084900F161F1698143F161C8
:10218000A068002816D0FFF729FA00900EE0F06949
:1021900001210843F061F3E70143F161F7E7FFF73D
:1021A0001DFA0099411A5148814265D8F0698007AB
:1021B000F5D50EE0FFF712FA009007E05CE0FFF7BC
:1021C0000DFA0099411A4948814255D8F0698007B3
:1021D000F5D4002F04D0E96B012000078143E963A7
:1021E000E069002873D0A9688906490F02294DD0FB
:1021F000012636060228286805D0B0432860FFF77C
:10220000EDF904463AE0B0432860FFF7E7F90746E6
:1022100004E0FFF7E3F9C01B02282DD828688001ED
:10222000F7D4616A206AA26A0843E16A1202114384
:102230000843216B0843E9682D4A11400843E860D0
:10224000286830432860E868012100E03DE0090784
:102250000843E860FFF7C2F9044604E0FFF7BEF95F
:10226000001B022808D828688001F7D52FE0FFF767
:10227000B5F9001B022801D90320F8BD28688001A8
:10228000F5D4E8681B490840E86020E00128F4D054
:10229000E868226A8107890F914216D17021626A2B
:1022A0000140914211D17F21A26A0902014012022C
:1022B00091420AD11F214904E26A0140914204D1AE
:1022C000400F216B4007884201D00120F8BD00205B
:1022D000F8BD0000001002400024F400400000207F
:1022E00038000020401002400070004088130000B9
:1022F0008C80C11FFCFFFEEF70470000F8B501683D
:1023000004464A688868C043430606D5C30704D11B
:10231000D3435B0601D4E16C05E0830706D4D343C5
:102320001B0603D4216D20468847F8BD830603D5DC
:10233000430601D5C305F8D4D3439B06F5D4234601
:1023400045064033002D09DB5D7F032D48D0256E07
:10235000042635432566CD688D68009586060127DD
:102360004025002E07DB266E3E4326668E680096CB
:102370000E68AE430E60C00506D4206E08210843E7
:102380002066206880680090206E0028CDD02068EC
:102390004168E026B14341605F77900701D4D007E0
:1023A00022D020684168890889004160A06D104EE4
:1023B000002808D08663A06DFEF730FE002802D00A
:1023C000206E28432066606D0028AED08663606D65
:1023D000FEF724FE0028A8D0206E28432066F8BD12
:1023E000C86888680090F8BD2046FFF785FFF8BDF3
:1023F000554C0008F8B504000CD0606A0025002890
:102400000AD02561656126464036A562707F0028A6
:1024100008D00BE00120F8BD6168C81FFD38F2D07C
:10242000E561F0E73577204600F05CF8022272772C
:10243000206801684023994301600723E1681B027B
:10244000994201D9002001E0012000030F273F023B
:10245000B94202D0994200D0A562FF2361680533DA
:1024600019402127A368BF023B4019432369134049
:10247000227D1943D207D20F11430123A2695B02C7
:102480001A401143E26938231A401143226A80231B
:102490001A401143A26A9B011A401143226811603D
:1024A000A1690422090C1140626A10231A401143E9
:1024B000626B08231A4011430F23E2681B021A4083
:1024C000114301221203104001432068416020683B
:1024D000C16952109143C1612566012070770020C7
:1024E000F8BD000030B587B0044614216846FDF7FA
:1024F0007CFE1E492068884236D11D48026881143E
:102500000A43026000680840059019484038416B52
:10251000012211434163416B11400591416B02253A
:1025200029434163406B0024284005900320C002EA
:1025300000900520029403946946019504940007D5
:10254000FEF792FF082000900294039469460195DB
:1025500004940848FEF788FF002203211920FFF7A2
:10256000EBFA1920FFF7DCFA07B030BD003001406C
:102570004010024000040050FFB504464068FF21AF
:10258000254600260531403581B01746884202D1E4
:10259000A06800280CD0287F012815D001202877BA
:1025A000FFF71CF80090687F01280FD002268FE00B
:1025B0000420687713460498029A0090114620463A
:1025C00000F03EF905B0F0BD0220FBE702980028BC
:1025D0007DD0002F7BD004206877002020660299F0
:1025E0002164AF80EF80A063A087E087E06420656E
:1025F00007210120E268090200038A422268536829
:1026000001D9834300E0034353600123A068DB0347
:102610004022984208D120680368934303602068F1
:1026200003681702BB430360206803685B0602D49B
:10263000036813430360E06888421AD938E02068D1
:102640008168C90709D0007B216C0870206C401C90
:102650002064E888401EE8800BE0FEF7BFFF009989
:10266000411A0498814202D3401C02D036E000286F
:1026700034D0E8880028E2D11DE020688168C907CD
:1026800009D0C068216C0880206C801C2064E88818
:10269000401EE8800CE0FEF7A1FF01460098091AF1
:1026A0000498814202D3401C02D017E0002815D0C4
:1026B000E8880028E1D12046009A049902F0D3FA74
:1026C000002801D020202066206E002800D001269E
:1026D0000120687700202877304673E70326F7E764
:1026E000FFB5054604464035287F002781B01646D1
:1026F000012809D001202877FEF770FF0090687F3D
:10270000012804D0022795E0022005B0F0BD029810
:10271000002872D0002E70D0032068770020206639
:102720000299A163A687E6872064A880E8802065D7
:10273000E0640122A068D2034021904208D12068C1
:1027400002688A430260206802680B021A43026032
:1027500020680268520602D402680A430260072118
:10276000E06809028842606826D9002801D0012E5D
:102770001ED1A06B21680088C86006E020688168CF
:10278000890709D5A16B0988C160A06B801CA06373
:10279000E08F401EE0870BE0FEF720FF0099411A12
:1027A0000498814202D3401C02D039E0002837D07F
:1027B000E08F0028E2D126E0002801D0012E1FD1B1
:1027C000A06B21680078087306E02068816889079B
:1027D00009D5A16B09780173A06B401CA063E08F41
:1027E000401EE0870CE0FEF7F9FE0099411A0498BC
:1027F000814203D3401C03D012E01AE000280FD01E
:10280000E08F0028E1D12046009A049902F067FA8F
:10281000002801D020202066A068002802D005E012
:10282000032707E02068C16880680090206E0028B8
:1028300000D001270120687700202877384664E718
:10284000FFB5044683B001200190002025464035A5
:102850000090287F0C9F1E4601280FD0012028776A
:10286000FEF7BCFE0290687F616801280DD0CA1F88
:10287000FD3A08D1A168002905D102E0022007B085
:10288000F0BD042801D00220D1E00498002820D017
:10289000059800281DD0002E1BD0687F042801D089
:1028A000052068770020206605992164EE80AE80BF
:1028B0000499A163E687A687E064206507210120CB
:1028C000E268090200038A422268536803D98343FD
:1028D00002E00120ABE00343536020680268520627
:1028E00003D4026840231A430260E06888426068AB
:1028F00044D9002801D0012E39D1A06B216800886D
:10290000C860A06B801CA063E08F401EE0872EE0B3
:1029100020688168890710D5E18F00290DD00199C1
:1029200001290AD1A16B0988C160A06B801CA0633A
:10293000E08F401EE0870020019020688168C90771
:102940000DD0E98800290AD0C068216C0880206C6D
:10295000801C2064E888401EE88001200190FEF77A
:102960003DFE0299401AB84201D3781C5ED1E08F37
:102970000028CDD1E8880028CAD146E0002801D03F
:10298000012E3CD1A06B216800780873A06B401C1D
:10299000A063E08F401EE08731E0206881688907EE
:1029A00010D5E18F00290DD0019901290AD1A16B21
:1029B00009780173A06B401CA063E08F401EE08784
:1029C0000020019020688168C9070DD0E98800299E
:1029D0000AD0007B216C0870206C401C2064E888C1
:1029E000401EE88001200190FEF7F8FD0299401A90
:1029F000B84202D3781C02D018E0002F16D0E08F26
:102A00000028CAD1E8880028C7D139462046029A52
:102A100002F065F9002803D00120009020202066F4
:102A20000120687700202877009828E7032000908D
:102A3000F6E7000003490A6803235B029A43024356
:102A40000A607047000001407047704770470000FF
:102A500070B5034620331A7F012A4BD001221A7722
:102A60000325CA682D02AA438D6800682A43012500
:102A7000AD02AA434D6800242A430125ED02AA4372
:102A80000D682A4301252D03AA430D692A43012518
:102A90006D03AA434D692A430125AD03AA430D6B7B
:102AA0002A430F252D04AA430D8B2D042A43124DD2
:102AB000A84204D101263607B243CE693243A84268
:102AC00014D10F252D05AA430D8D2D052A4301256F
:102AD0002D06AA430D6A2A4301256D06AA434D6AB5
:102AE000C96A2A4301256D07AA430A4342641C7739
:102AF000002070BD022070BD002C0140F0B50346DF
:102B000020331A7F012A27D001221A7702225A770E
:102B100004686268A568114FBC4205D116460F22B1
:102B2000120596434A6832437026B2430E68164334
:102B300066600068B84205D0094A904202D0094A4E
:102B4000904204D180228968954329438160012005
:102B5000587700201877F0BD0220F0BD002C01400E
:102B6000000400400040014070B5040005D0254637
:102B70002035687F002802D006E0012070BD0020CB
:102B80002877204600F016F802206877211D20687B
:102B900002F0C0FA012240342272AA77EA7722704A
:102BA0006270A270E27022716271A271E2716A7742
:102BB000002070BD38B505462A49026820208A42A7
:102BC0000DD12949CA6B0243CA63C96B0022014077
:102BD000009103211220FEF7AFFF122011E02249DD
:102BE000224B40319A420FD10A68D81302430A603F
:102BF000096800220140009103211320FEF79CFF89
:102C00001320FEF78DFF38BD194B9A42FBD10B689C
:102C10000122520413430B600968174C11400091C4
:102C2000144921602C2161601021A1600021E16024
:102C300080212161490061618900A161E061880012
:102C400020622046FEF788FA002801D0FDF762FED8
:102C50006C62002203211520A562FEF76DFF15208E
:102C6000CFE70000001400400010024000200040A8
:102C700000440140800002406004002001462031F1
:102C80004A7F012A01D00120704702224A77016859
:102C9000CB6801221343CB6000680B49884205D002
:102CA0000A49884202D00A49884207D18168094B03
:102CB0001940062905D0DB1F994202D00168114353
:102CC0000160002070470000002C0140000400401B
:102CD00000400140070001000168CA685208520024
:102CE000CA6001680A6A084B1A4207D10A6A9B1037
:102CF0001A4203D10A68520852000A6001212030AA
:102D0000417700207047000011110000704700005B
:102D100070B50446006801690025C9438907002988
:102D200015DBC168C943890711D4E91E016101207F
:102D30002077206880698007204602D0FFF7E6FFF1
:102D400004E000F0E3F8204600F09CF925772068C5
:102D50000169C943490717D4C168C943490713D456
:102D60000421C94301610220207720688069800521
:102D7000800F204602D0FFF7C9FF04E000F0C6F83C
:102D8000204600F07FF9257720680169C9430907CB
:102D900016D4C168C943090712D40821C943016187
:102DA000042020772068C0698007204602D0FFF702
:102DB000ADFF04E000F0AAF8204600F063F92577A3
:102DC00020680169C943C90617D4C168C943C90647
:102DD00013D41021C9430161082020772068C069FD
:102DE0008005800F204602D0FFF790FF04E000F03E
:102DF0008DF8204600F046F9257720680169C9431F
:102E0000C90708D1C168C943C90704D1891E016136
:102E1000204600F0F3F920680169C943090609D486
:102E2000C168C943090605D48021C9430161204610
:102E3000FFF70BFE20680169C943C90508D4C168C2
:102E4000C943090604D4124901612046FFF7FCFD7D
:102E500020680169C943490609D4C168C9434906C4
:102E600005D44021C9430161204600F0F3F92068F0
:102E70000169C943890609D4C168C943890605D4D3
:102E80002021C94301612046FFF7E0FD70BD00002D
:102E9000FFFEFFFF10B586B0044614216846FDF71B
:102EA000A4F92368154C002215490220A3420DD134
:102EB0004B6B03434B63496B0090014005910190BC
:102EC00002920392049269460E4813E00E4CA3420C
:102ED00012D14B6B012423434B63496B019021407A
:102EE0000320059103904021052000910490029257
:102EF00069460007FEF7B8FA06B010BD0020004092
:102F00000010024000040050004401407047F8B532
:102F100004460020264620360090307F0D460128CA
:102F20000CD00120082730770C2A48D008DC002A72
:102F300010D0042A1ED0082A06D130E00220F8BDA5
:102F4000102A52D0142A60D001200090002030773F
:102F50000098F8BD206802F02FF920688169394394
:102F600081612068816904229143816120688169BF
:102F70002A6911E0206802F065F920688169012260
:102F8000D2021143816120688169521091438161AD
:102F9000206881692A69120211438161D6E720689D
:102FA00002F092F92068C1693943C1612068C169A2
:102FB00004229143C1612068C1692A6912E0206836
:102FC00002F0C6F92068C1690122D2021143C16131
:102FD0002068C269012189028A43C2612068C169EF
:102FE0002A6912021143C161B0E7206802F0EAF9D0
:102FF0002068416D394341652068426D04218A4350
:1030000042652068416D2A6912E0206802F00CFADE
:103010002068416D0122D202114341652068426D52
:10302000012189028A4342652068416D2A691202A2
:10303000114341658AE770B5040005D02546203567
:10304000687F002802D006E0012070BD00202877AC
:10305000204600F016F802206877211D206802F053
:1030600059F8012240342272AA77EA7722706270FE
:10307000A270E27022716271A271E2716A7700201F
:1030800070BD70477047000030B504460223203001
:1030900000290ED0042911D020464030082912D032
:1030A0000C2915D0102918D0C278012A1AD0012075
:1030B00030BD827F012AFAD1837714E0C27F012AD2
:1030C000F5D1C3770FE00278012AF0D103700AE04E
:1030D0004278012AEBD1437005E08278012AE6D1DB
:1030E000837000E0C3700122206802F057F8144991
:1030F0002068144A884207D0904205D0124B98426B
:1031000002D0124B984204D1436C0125ED032B43AE
:10311000436420680123884204D00D49884201D0CD
:10312000904207D181680B4A1140062905D0D21F71
:10313000914202D0016819430160002030BD0000B7
:10314000002C014000400140004401400048014083
:10315000000400400700010070B504460D460068F9
:10316000002202F01BF821491F4B20688A10984268
:1031700008D01F4B984205D01E4B984202D01E4BE0
:1031800098420AD1036A0B4207D1036A134204D161
:10319000436C0126F603B34343642068036A0B4281
:1031A00006D1016A114203D1016849084900016052
:1031B000214620310120002D0BD0042D0BD04034AE
:1031C000082D0AD00C2D0AD0102D0AD0E070002056
:1031D00070BD8877FBE7C877F9E72070F7E7607084
:1031E000F5E7A070F3E70000002C0140111100008A
:1031F00000400140004401400048014010B5044631
:1032000000681049884201D1FEF7F2FB0E48844263
:1032100010D10E4A1078401CC1B20D4811700A2915
:1032200009D0282906D10178012903D10221017092
:103230000020107010BD01780229FBD1012101701E
:1032400010BD0000001000407C03002000000020A2
:1032500004000020704710B5014680310A79012A28
:1032600015D001220A7124228A600268136814684A
:1032700064086400146001225207934300224266EE
:1032800000680360202088600A71104610BD02208B
:1032900010BD7047704770B50446054680342079EC
:1032A00001281AD0012020712420A0602868066817
:1032B00002685208520002602868826807235B0691
:1032C0009A430A438260284602F0B6F928680660ED
:1032D0002020A0600020207170BD022070BD70B55C
:1032E0000446054680342079012819D00120207138
:1032F0002420A06028680668026852085200026014
:1033000028688268D200D2080A438260284602F008
:1033100093F9286806602020A0600020207170BD0D
:10332000022070BD7047704770470000F8B5036811
:103330000446D96918689A68B44D0E462E40254651
:103340008035002E75D0B24EB24F1640074037433D
:103350006ED0CF0706D0C70504D501271F622B69A1
:103360003B432B618B0708D5D30706D02768022380
:103370003B622B6904273B432B614B0708D5D307DE
:1033800006D0276804233B622B6902273B432B614D
:103390000B0709D520230340334305D026680823B3
:1033A00033622E691E432E610B0509D5430107D5F3
:1033B00001232668DB0233622B69202633432B610D
:1033C0002B69002B42D089060AD520210840C90567
:1033D0000A40104304D0616F002901D0204688477D
:1033E000286921688968490602D42821084232D018
:1033F000204602F037FA21688868400627D5EFF3A7
:103400001080012282F310888B68402293438B60E6
:1034100080F310882868002819D07F4981632868C4
:10342000FDF7FCFD002811D02868816B0DE000E05D
:1034300017E08E0615D5012720263F0706401740C6
:103440003E430ED0616FB5E020468847F8BD204668
:10345000FFF76AFFF8BD2046FFF766FF00202861EE
:10346000F8BDE66E012E7DD1CE067BD5C60679D598
:1034700010221A62236898682646400640360028C3
:1034800049DA2968086840680004000CE8D0B78B66
:103490008742E5D9F08308680068800634D4EFF3EA
:1034A0001080012181F3108819681701B943196050
:1034B00080F31088EFF31080012181F310882168D8
:1034C0008B685B085B008B6080F31088EFF31080E3
:1034D000012181F3108821688B684027BB438B60F2
:1034E00080F310882020E8600020E066EFF3108071
:1034F000012181F3108821680B6893430B6080F3EE
:1035000010882868FDF750FD02202067B08BF18BF2
:10351000401A81B235E0B08BF18B401A81B2F08B4A
:1035200000289DD000299BD0EFF31080012686F360
:1035300010881E68FF272137BE431E6080F3108865
:10354000EFF31080012383F3108823689E68304FC7
:10355000FF433E409E6080F310882020E8600020FA
:10356000E06600E011E06067EFF31080012383F371
:10357000108823681D6895431D6080F31088022021
:1035800020672046FFF785FEF8BDCE0208D556021B
:1035900006D50120000518622046FFF7C4FEF8BDDD
:1035A0000E060BD501278026FF0506403A4016433C
:1035B00004D0A16F002900D046E7F8BD4A0614D513
:1035C000420612D52046EFF31081012282F31088C3
:1035D0001A684024A2431A6081F310882021A96050
:1035E0000021816700F006F9F8BD0A0205D5420006
:1035F00003D52046FFF796FEF8BDC901FCD500288B
:10360000FADA2046FFF746FEF8BD00000F0800007A
:103610000100001020010004AD57000870B504003F
:1036200005D025468035A868002802D006E0012094
:1036300070BD00202871204600F026F82420A860E4
:1036400020680168490849000160204602F05AF9E3
:103650000128EDD0A06A002802D0204602F00EF822
:10366000206841680922D202914341602068816844
:103670002A22914381602068016801221143016080
:10368000204602F061F870BD70B58EB00646142178
:103690006846FCF7AAFD1C2105A8FCF7A6FD2549F4
:1036A0003068884244D1012000250590069505A880
:1036B000FEF76CFA002801D0FDF72CF91E480268CD
:1036C000012189030A430260006808400C901A48EF
:1036D0004038426B02210A434263406B6A4608400D
:1036E0000C90C02023C20395694614480495FDF749
:1036F000BBFE144C12482060332060601020E5604F
:10370000A0606561A561E561802025622061204699
:10371000FDF722FD002801D0FDF7FCF8F467002238
:1037200011461B20A662FEF707FA1B20FEF7F8F9E8
:103730000EB070BD0038014040100240000400503F
:103740006C0002405005002070B5054604468035E7
:10375000A868202801D0022070BD00290BD0002AC3
:1037600009D00123A0681B03984206D120690028D4
:1037700003D1C80701D0012070BD2046403021652B
:103780008282C282002028612121A960E16F002984
:1037900018D0154BCB62E36F14491963E36F1449DA
:1037A0005963E16F134688632668216D32462832DB
:1037B000E06FFDF723FD002804D0102028612020B1
:1037C000A860D8E7216840200862EFF3108001214B
:1037D00081F3108821688A6880231A438A6080F305
:1037E0001088002070BD00000F5800085B580008CA
:1037F000C15700087047704710B500F005F801493F
:10380000086010BDDC000020F8B5002401261E4F22
:10381000B60331463846FDF7D5FE0128F9D03E46BD
:10382000002501277F03012239463046FDF7CFFEF0
:10383000640000BF00BF00BF002239463046FDF7DC
:10384000C6FE012189033046FDF7BCFE012800D1E8
:10385000641C00BF00BF00BF6D1CEDB2182DE2D389
:10386000012239463046FDF7B2FE00BF00BF00BF5F
:10387000002239463046FDF7AAFE200202D5FF207D
:10388000000604432046F8BD00040050FEE7000097
:103890000A4809490160002141608160C160084A0D
:1038A0000262C161074A4262074A02617F22D20571
:1038B000426181617047000000007042341F0020A7
:1038C0000000C84200007F430000204110B50648B8
:1038D000006880694005400F034802D0FDF7CFFE25
:1038E00010BDFDF7FBFE10BDB801002010B5064865
:1038F000006880694005400F034802D0FDF7BFFE15
:1039000010BDFDF7EBFE10BD0C02002010B5806A63
:103910000021826B002A00D09163C26B002A00D084
:10392000916300F037FD10BD10B5806A01684A68E8
:103930000123DB031A434A60102100F0D7F810BDC1
:1039400010B5846A206801680122D20391430160A6
:10395000608D002808D0218D606A42186262608DF7
:10396000FF2803D9FF2002E020210FE0608D208591
:10397000216883B22431E06BFDF740FC002804D0BD
:103980001021204600F0B2F810BD4021204600F082
:103990002BF810BDF0B504460022CE074034282392
:1039A000B025002E05D0667842221F46B74300D0CE
:1039B000F2228E0705D5442664783243A34300D013
:1039C0002A43CB0B01D0B8231A43102908D0202951
:1039D00007D0402905D00068016891430160F0BD1F
:1039E00090210A43F7E7000030B5164D446B0022E2
:1039F0009023AC4202D0144DAC420BD1CC0B00D082
:103A0000B822102916D0202902D0402914D014E061
:103A1000602111E0CC0B00D0B822CC0701D0F224F9
:103A200022438C0701D5F4242243102902D02029F7
:103A300002D002E01A4300E00A4300680168114323
:103A4000016030BD093F00082541000801688A690E
:103A5000D243920701D400228A6200688169C94377
:103A6000C90703D081690122114381617047F8B50C
:103A7000054604464035687828218143206804D0F3
:103A80000821C16100202870F8BD8169C903CF0FEA
:103A90008169FE230E0C81681E408A05C168920D63
:103AA00019408C46E168022916D10621D3090E403F
:103AB0000B409E420FD1A16C491CA164A16C02294C
:103AC000E2D10021A1640823C36129703946204650
:103AD000FDF7D4FDF8BD66460121C9032046FFF776
:103AE00059FF002028703246F0E70000F8B505467F
:103AF0000446403568780026AE70334AE262668537
:103B0000626C0A43626428281ED029281CD02A2807
:103B10001AD02E492046FFF73DFF6878602801D073
:103B2000202068706663206BA16B294F002903D0A9
:103B3000112812D0212810D0E16B002925D012289D
:103B400027D0222825D020E003212046FFF722FF9E
:103B5000282068701F486063E5E720680168490411
:103B600004D501680122920391430160A06BFDF727
:103B700093FA012809D0A06B87632E70A06BFDF724
:103B80004DFA002804D0A06B1AE0204600F002FC99
:103B9000F8BD20680168090404D501680122D20338
:103BA00091430160E06BFDF777FA0128EDD0E06BFF
:103BB00087632E70E06BFDF731FA0028E8D0E06BE8
:103BC000816B8847F8BD00000000FFFF0380000004
:103BD0000D3900083942000870B504461648E06205
:103BE000002525632022204640300646427085701D
:103BF000C8436563400712D42068406A616A087050
:103C0000606A401C6062208D002808D0401E20851C
:103C1000608D401E6085606C042108436064074924
:103C20002046FFF7B7FE21681020C8613570204696
:103C3000FDF7B8FD70BD00000000FFFF038000002D
:103C4000F8B50546009100682027C7612C4640342E
:103C50006078212803D06078222806D00BE001216B
:103C60002846FFF797FE112004E002212846FFF7BF
:103C700091FE1220286328684168254A114041605E
:103C8000002624486E63E8620098C043C10606D44B
:103C90002A681021D161696C04221143696461783A
:103CA000602905D1400703D42868406AC0B200905B
:103CB0002846FFF7CBFE686C6178602901D00028A8
:103CC00004D0696C2846FFF711FFF8BD6078212801
:103CD0000DD060782228F8D167702E63A078A67086
:103CE00040282670284610D0FDF75DFDF8BD6770AE
:103CF0002E63A078A67040282670284602D0FDF7D3
:103D000053FDF8BDFDF752FDF8BDFDF74EFDF8BDC2
:103D100000E800FE0000FFFF70B5002506464036B3
:103D20000446B57071782020212970700BD01220C4
:103D30002063022120466563FFF72CFE3570204684
:103D4000FDF731FD70BD1120206301212046656320
:103D5000FFF720FE35702046FDF726FD70BD000000
:103D6000F8B50268044616680546403568780F467F
:103D70002021D161212806D0292804D0222808D06A
:103D80002A2806D00CE042492046FFF703FE2120F6
:103D900005E03F492046491CFFF7FCFD2220206337
:103DA000206841680122D2031143416020684168C4
:103DB000384A114041602046FFF748FEF043410475
:103DC00007D4206801680122920391430160A06B2F
:103DD00008E000040BD4206802680121C9038A436B
:103DE0000260E06B002802D0006840686085F843FC
:103DF0004007042100280FDB20688F43406A626A75
:103E00001070606A401C6062208D002804D0401E43
:103E10002085608D401E6085608D002802D0606C1A
:103E2000084360640026AE706663606C00280BD0A7
:103E3000616C2046FFF75AFE6878282803D139467E
:103E40002046FFF7C9FEF8BDE06A134FB8420BD019
:103E5000204600F023F8E7622020687026632E7069
:103E60002046FDF79FFCF8BD6878222807D0202067
:103E7000687026632E702046FDF7B9FDF8BD20203E
:103E8000687026632E702046FDF7B0FDF8BD000077
:103E90000180000000E800FE0000FFFF70B505464D
:103EA0000068016800262C464034A670C9434A04C5
:103EB00003D401680122920304E0090404D40168D8
:103EC0000122D203914301606178282029290ED074
:103ED00061782A290AD160702220286302212846AD
:103EE000FFF758FD26702846FDF780FD70BD607015
:103EF0002120286301212846FFF74CFD2670284623
:103F0000FDF775FD70BD0000F8B505460446403567
:103F10002878012817D001202870CB43DE06D04333
:103F2000002E12DBC20610D421681020C861606C1C
:103F300004210843606420212046FFF755FD2046F8
:103F4000FFF784FD5FE00220F8BD304A304E1F06C7
:103F500037D4470635D4206801684023994301606F
:103F6000608D00282068406828D08105608D890D0B
:103F7000FF2803D9FF2020859B0408E0608D208561
:103F8000E06A904201D0E36A01E001235B06002071
:103F90000090208DC2B2204600F0E6F9608D218DA0
:103FA000401A6085687822282068016802D0314371
:103FB000016028E00122D2031143F9E7800117D5FF
:103FC00006E05F0618D4470616D4608D002804D09A
:103FD00040212046FFF78AFD15E0206841688901ED
:103FE00011D4E16A914203D14168314341600AE052
:103FF0002046FFF791FE06E09A0604D4800602D41C
:104000002046FFF71DFE00202870F8BD0000FFFFCE
:1040100000400000F8B505460446403528783F4B7F
:10402000012818D001202870C843C7060026D243B3
:10403000002F12DBD70610D421681020C861606CF5
:1040400004210843606420212046FFF7CDFC204670
:10405000FFF7FCFC5FE00220F8BD870708D4970754
:1040600006D4206D216888620020C043206552E09C
:1040700007062CD457062AD410212046FFF7B4FC9B
:10408000608D00281ED0608DFF2803D9FF22228575
:1040900000962AE0608D208500962EE0204600F0F4
:1040A00063F9608D218D401A608568782228206828
:1040B000016802D00122920301E00122D2031143E0
:1040C000016028E040212046FFF710FD23E047066D
:1040D0001AD4570618D46878222800D1104B608D66
:1040E000FF2807D9FF2222850093E06C012381B2CB
:1040F0001B06D3E7608D20850093208DC2B2E06C53
:10410000012381B25B06C9E7800604D4900602D47D
:104110002046FFF795FD2E700020F8BD002000809E
:1041200000240080F7B5C76A82B004460020264606
:10413000403601903078012823D001203070039858
:10414000D543C04300908006002805DBA80603D4B1
:1041500020460399FFF704FE0098C0065FD4E806E6
:104160005DD469041020002901DA290454D4E16BDC
:1041700000290BD02A0409D409684968002903D012
:1041800004E0022005B0F0BD01210191A16B0029DE
:1041900005D06A0403D409684968002902D001994E
:1041A00000291BD07178282908D1012149068F42A6
:1041B00004D120460399FFF70FFD39E071782929D2
:1041C0002AD101210904CF4226D02168C8612046A6
:1041D000FFF73CFC2046FFF761FE29E02168C8613B
:1041E000606C0421084360647078002F02D0890558
:1041F0008F421DD1212806D0292804D0222804D09E
:104200002A2802D003E0212000E022202063616CF4
:104210002046FFF76BFC0BE02168C86108E00098BE
:10422000000705D4280703D420460399FFF71FFC95
:1042300000203070A6E70000FEB5C56A04460646B9
:10424000403601913078012828D001203070019843
:10425000D743C04300908006002805DBB80603D48E
:1042600020460199FFF77CFD00983D493D4AC00674
:1042700030D4F8062ED4638D1020002B10D0216886
:10428000C861606C042108436064002D01D0954230
:1042900062D1616C2046FFF729FC5DE00220FEBD83
:1042A0007278282A08D101225206954204D120466C
:1042B0000199FFF791FC4FE07278292A07D18D42CE
:1042C00005D02168C8612046FFF7C0FB41E02168A6
:1042D000C86141E00098400717D4780715D4608D75
:1042E00000280CD02068406A626A1070606A401C26
:1042F0006062208D401E2085608D401E6085608D2F
:10430000002829D18D4224D126E00098000706D448
:10431000380704D420460199FFF7A9FB1CE0009858
:10432000800719D4B80717D4608D00280DD0606AB3
:10433000216800788862606A401C6062608D401E5F
:104340006085208D401E208506E0954201D0002D1D
:1043500002D12046FFF7A2FD00203070FEBD000014
:104360000000FFFF00000001890510B5890D12044F
:104370001143029C194302682143490050684908CF
:10438000630D034C234398430843506010BD000065
:10439000FF63FF0310B5014640314B780022602BCC
:1043A00004D002630A70FDF7A1F910BD20234B7001
:1043B00002630A70FDF761F910BD8068C007C00F85
:1043C000704780684007C00F7047C0680005800FC5
:1043D00001D00020704701207047026807239B0529
:1043E0009A430A430260704710B543690424214090
:1043F00007248C40A3438A401343436110BD00004F
:10440000FEB50024274800940194254902940160D8
:10441000012149058460416008264661C46001614C
:104420000476012544768576446203218462C16165
:10443000014620310D7344632A03846302630D77C0
:104440001C21016484648021C4644164FCF738FC4D
:10445000002801D0FCF75EFA0194694611480095E6
:104460000294FCF771FA002801D0FCF753FA0E48C9
:1044700000900420019069460A48FCF765FA00287C
:1044800001D0FCF747FA09480090694601960548B3
:10449000FCF75AFA002801D0FCF73CFAFEBD0000F8
:1044A00000240140F8000020040000080800000C6F
:1044B00008B50C48816B012211438163806B032195
:1044C0001040009000220A20FDF736FB0A20FDF77D
:1044D00027FB002203210B20FDF72EFB0B20FDF70D
:1044E0001FFB08BD0010024010B5184A1621052018
:1044F00001F052FC164C154AA061183204210A2022
:1045000001F04AFC114AE061303204210A2001F036
:1045100043FC0E4A20626C3A00210E4801F071FC07
:104520000A4AE060483A00210B4801F06AFC074A59
:104530002061243A0021094801F063FC60610348CE
:10454000483001F0DDFB606210BD0000A876000875
:1045500004000020B90600086D0600087D07000869
:10456000F0B587B014216846FBF73FFE6A48416BFF
:10457000042739434163416B39400591426B202147
:104580000A434263426B0A400592416B012529436D
:104590004163416B29400591416B022631434163E0
:1045A000416B31400591426B08210A434263406BE5
:1045B00000220840059089025848FDF708F80520B8
:1045C000002257490007FDF702F8052100224903A0
:1045D0005448FCF7FCFF0122C0215048FCF7F7FFCC
:1045E00001220520D1030007FCF7F1FF0122092178
:1045F0004D48FCF7ECFF83208001002400900294DA
:104600006946019503944548FCF72EFF4748009002
:10461000052002946946019503940007FCF724FFE6
:1046200010206A4651C2052069460007FCF71CFFAE
:10463000802000900520049002940196039469461E
:104640000007FCF711FF0294009569463548019672
:1046500004950394FCF708FF2120000401906946AB
:10466000009702942F48FCF7FFFE052040030090BE
:1046700002946946019503942A48FCF7F5FEA803C5
:1046800000900194694602942648FCF7EDFE28024A
:10469000009005200194694602940007FCF7E4FEAF
:1046A0000920009002946946019503941E48FCF786
:1046B000DBFE11252D0469461B48009601950294E6
:1046C000FCF7D2FE01946946174800970294FCF764
:1046D000CBFE302000906946019502941148FCF70A
:1046E000C3FE002203210520FDF726FA0520FDF771
:1046F00017FA002203210620FDF71EFA0620FDF717
:104700000FFA002203210720FDF716FA0720FDF714
:1047100007FA07B0F0BD000000100240000800508A
:104720000206000000040050000C00500286000049
:1047300010B51348114901601249416000218160A0
:104740000161416181610122C161C2600162FCF7C6
:10475000CFFF002801D0FCF7DDF800210848FCF766
:1047600043FF002801D0FCF7D5F800210448FCF7EE
:1047700060FF002801D0FCF7CDF810BD00540040C8
:10478000B8010020BC7D701010B5134811490160BC
:104790001249416000218160016141618161012212
:1047A000C161C2600162FCF7A3FF002801D0FCF7E1
:1047B000B1F800210848FCF717FF002801D0FCF7EA
:1047C000A9F800210448FCF734FF002801D0FCF7C9
:1047D000A1F810BD005800400C020020BC7D7010F4
:1047E00010B511480F490160FF21053141600722D2
:1047F0001202C26000218160022202610122426134
:1048000052028261016218224162C2618162072202
:104810000163C2624163FDF7EDFD002801D0FCF7A2
:1048200079F810BD003001401803002010B588B0A1
:104830001C216846FBF7D9FC164815490160002485
:104840003F21846041600461FF218461C160FEF703
:104850008BF9002801D0FCF75DF80E48FEF7EBFB62
:10486000002801D0FCF756F86020009001940294D3
:104870000022694604940748FEF749FB002801D04E
:10488000FCF748F80348FEF705FB08B010BD000030
:1048900000200040C803002010B594B01C210DA8D2
:1048A000FBF7A3FC34216846FBF79FFC1F49204817
:1048B000002412C004608460C460A02104614160CF
:1048C0000838FEF751F9002801D0FCF723F8184802
:1048D000FEF7B1FB002801D0FCF71CF86020129411
:1048E0000E940D900F941094119400220DA913941E
:1048F0000F48FEF70CFB002801D0FCF70BF8012055
:104900000094400301940294059003940494069447
:1049100069460C940648FEF79BF8002801D0FBF787
:10492000F9FF0348FEF7B6FA14B010BD0044014089
:10493000140400203EB500240F48009401940D4952
:10494000029401600D49846041600D49C16080217D
:104950008161FEF709F9002801D0FBF7DBFF009425
:10496000694605480294FEF7C9F8002801D0FBF714
:10497000D1FF3EBD001400407C0300207F020000F8
:104980008713000010B51E4C1C482060E120400237
:1049900060600020A060E0602061A061E0612062B2
:1049A0000C2160626161A0622046FEF737FE00289C
:1049B00001D0FBF7AFFF00211148FEF790FC002863
:1049C00001D0FBF7A7FF00210D48FEF764FC00288B
:1049D00001D0FBF79FFF0A48FEF73DFC002801D0FD
:1049E000FBF798FF206801681022114301602068DE
:1049F000016820221143016010BD00000038014011
:104A0000BC040020F8B51C4E00242246012130468B
:104A1000FCF7DDFD01210904A72000F0C9FD0220FB
:104A200001F0DAF8154D6946042000F08FFD684664
:104A3000C078800703D46946042000F087FD012078
:104A400002F010F8641CAC4205D10021A72000F050
:104A5000AFFD0020F8BD6846C0788007E3D400F0C1
:104A60003BF80021A02000F0A3FD012211463046B2
:104A7000FCF7ADFD0120F8BD000C0050FFFF000069
:104A8000081A10B51349124A0968904208DDA72098
:104A900000F08EFD0221A02000F08AFD022010BD52
:104AA0000B4A5242904208DAA72000F081FD012112
:104AB000A02000F07DFD012010BD0021A72000F006
:104AC00077FD0021A02000F073FD002010BD000044
:104AD0000B420000D000002010B50021A12000F002
:104AE00067FD0021AD2000F063FD10BDFEE7F8B5C5
:104AF00004460125ED070068FBF7D3FBA060E269DF
:104B000001461046FBF77CFB0146E061206A6840E5
:104B1000FBF7C6FC02D8266A6E4007E0216AE0690E
:104B2000FBF7BEFC01D8266A00E0E669E661A768EB
:104B3000E1683846FBF7B5FBA169FBF7BAFB0090CB
:104B400031466069FBF7B5FB064639462069FBF73D
:104B5000B0FB3146FBF754FB0099FBF751FB0146D4
:104B60006060606A6840FBF79BFC02D8606A68403E
:104B700007E0616A6068FBF793FC01D8606A00E0B7
:104B800060686060A168E160FBF759FCC0B2F8BDE5
:104B900070B5054611480A220F49006802F0B9FABB
:104BA000002818D00C4C0E4B103C60682169820024
:104BB00099500521401CFBF7EBFA616000290AD1EE
:104BC000074801F01FFA0446294600F09FF90549FD
:104BD000204600F09BF970BDCC000020240000208E
:104BE000141F00200207000070B5054611480A2274
:104BF0000F49006802F08DFA002818D00C4C0E4BBB
:104C00000C3C2068E168820099500321401CFBF7AE
:104C1000BFFA216000290AD1074801F0E1F90446F2
:104C2000294600F0BBF90549204600F0B7F970BDF0
:104C3000C800002020000020001F00200203000008
:104C40007047000010B50248FDF758FB10BD00008A
:104C50001803002010B5806A002146221152C18736
:104C6000FDF74AFB10BDF7B504464068FF26053640
:104C700082B01546B0420CD10121A068C903884218
:104C800002D04911884204D1206801684022914332
:104C900001600095002280212046039B00F0B2F8BD
:104CA0002027002813D16068B04216D1A068B9024D
:104CB000884202D0491188420FD103210095002279
:104CC00049022046039B00F031F8002805D0206EF1
:104CD00038432066032005B0F0BD0020FBE7F8B59F
:104CE0000F460B4615460092032104460022C902D6
:104CF00000F01CF82026002812D13B46002280211B
:104D00002046009500F07EF8002809D103213B469B
:104D1000002249022046009500F008F8002803D040
:104D2000206E304320660320F8BD0000FFB585B03B
:104D30000E460446002069460E9D17460871FCF792
:104D40004DFC411B0898451AFCF748FC039020686D
:104D500023210C3002902A4800684843000D684324
:104D600046E003204002864206D1002F04D102987B
:104D700001786846017100790898401C39D0FCF729
:104D80002DFC0399401AA84205D2002D03D00098AB
:104D900000282BD02BE020684168E022914341603D
:104DA0006068C11FFD390CD10121A068C903884288
:104DB00002D04911884204D1206801684022914301
:104DC00001600120A16A4003814207D121680A687D
:104DD00082430A6021680A6802430A600120403465
:104DE000607700202077032009B0F0BD0025401E29
:104DF0000090206880683040B842B2D10020F3E7CC
:104E000040000020FFB581B01E4604460A9DFCF715
:104E1000E5FB401B351AFCF7E1FB07462648006816
:104E20004001000D684339E0701C38D0FCF7D6FB18
:104E3000C01BA84205D2002D03D0009800282BD01B
:104E40002BE020684168E022914341606068C11F07
:104E5000FD390CD10121A068C903884202D0491153
:104E6000884204D1206801684022914301600120FA
:104E7000A16A4003814207D121680A6882430A601F
:104E800021680A6802430A600120403460770020EC
:104E90002077032005B0F0BD0025401E009020685B
:104EA00081680298884305D0002103988142BBD1D4
:104EB0000020EFE70121F8E74000002070470000E4
:104EC00010B50F494A79012AFCD10E49EE220A7029
:104ED000B1224A7010228A700022CA7008714A7189
:104EE000072088713120C871FF200872FC224A72A5
:104EF0008872C8720C220448FEF726FC10BD000020
:104F000070050020281F0020BC04002070B50D464D
:104F1000FBF760FA1C49FBF709FA1C49FBF7C9F9D2
:104F2000FBF78DFA1A4986B248790128FCD1194C51
:104F3000280A2071A571EE202070B1206070102029
:104F4000A0700020E070607164213046FBF70AF920
:104F50003030E0710A213046FBF704F90D460A2192
:104F6000FBF700F930312172294630316172FF20A0
:104F7000A072FC21E172207360730E222146064864
:104F8000FEF7E2FB70BD00003D1BA5470000A042FC
:104F900070050020281F0020BC04002070B50D46BD
:104FA0003F210906FBF72CF9FBF749FA124980B2B9
:104FB0004A79012AFCD1114C290A2171A571EE21EF
:104FC0002170B12161701021A1700021E170617127
:104FD0000A21FBF7C7F83030E07130312172FF2031
:104FE0006072FC21A172E07220730D2221460448F8
:104FF000FEF7AAFB70BD000070050020281F0020EE
:10500000BC04002010B50F494A79012AFCD10E4991
:10501000EE220A70B1224A7010228A700022CA70F1
:1050200008714A71072088713220C871FF20087208
:10503000FC224A728872C8720C220448FEF784FB74
:1050400010BD000070050020281F0020BC040020B7
:1050500010B50448006902F057F9012801D001F0A9
:1050600003FF10BD00E000E030B591B03421684688
:10507000FBF7BBF8002401200D940E940F9440021E
:105080001094FCF75DFD01200090000401900320C6
:10509000089008200A90800302250B9007950003D2
:1050A0000C9009946846FCF73BFF002801D072B6CB
:1050B000FEE707200D900F9402210E9510940DA885
:1050C000FCF714FE002801D072B6FEE711B030BD27
:1050D0007047000010B50248FDF71AFE10BD000031
:1050E000C803002010B50248FDF712FE10BD0000F5
:1050F0001404002010B50248FDF70AFE10BD0000A0
:10510000C405002010B50248FDF702FE10BD0000E6
:105110007C030020F0B502681A4B1B4C984201D06A
:10512000A04203D17025AA434D682A43174D184E5B
:10513000184F98420AD0A04208D0174CA04205D080
:10514000A84203D0B04201D0B84205D11446032290
:1051500012029443CA6822438024A2434C6922432A
:1051600002608A68C2620A688262984205D0A842D8
:1051700003D0B04201D0B84201D1096901630121D5
:105180004161F0BD002C014000040040004001409E
:1051900000440140004801400020004010B5CB060B
:1051A000DB0E0121046A99408C430462016A9A4033
:1051B0001143016210BD0000F0B5026A52085200AE
:1051C0000262056A43688269194C1B4E22409208AC
:1051D0000C6892001443022295438A682A43154DB5
:1051E000A84207D0B04205D0144FB84202D0144FA5
:1051F000B84206D10827BA43CF6817430422974321
:105200003A46A84207D0B04205D00C4DA84202D081
:105210000B4DA84206D103252D02AB434D691D431A
:105220008B692B4343608461496841630262F0BD2E
:105230008FFFFEFF002C0140004001400044014070
:105240000048014070B5026A10239A430262046A62
:1052500043688269174D2A4003252D02AA430D6831
:105260002D021543202294438A6812012243124CD6
:10527000A04207D18024A243CC68402624012243C7
:10528000B24308E00D4CA04205D00D4CA04202D024
:105290000C4CA04208D10324A402A3434C69A400EF
:1052A0001C438B699B00234343608561496881638C
:1052B000026270BDFF8FFFFE002C014000400140E4
:1052C000004401400048014070B5026AFF230133E9
:1052D0009A430262046A4368C269184D2A409208E0
:1052E0000D68920015430122520294438A6812020B
:1052F0002243134CA04208D11446CA68C614B443D2
:10530000120222430415A24308E00E4CA04205D02D
:105310000D4CA04202D00D4CA04208D1032424031E
:10532000A3434C6924011C438B691B012343436045
:10533000C5614968C163026270BD00008FFFFEFF56
:10534000002C014000400140004401400048014061
:1053500030B5026A01231B039A430262046A436860
:10536000C269134D2A4003252D02AA430D682D0260
:1053700015430122520394438A68120322430D4CC1
:10538000A04208D00C4CA04205D00C4CA04202D048
:105390000B4CA04205D10124A403A3434C69A401F2
:1053A00023434360C56149680164026230BD000067
:1053B000FF8FFFFE002C01400040014000440140EF
:1053C0000048014070B5026A01263604B243026209
:1053D000046A4268436D0F4D2B400D681D437300F6
:1053E0009C430B891B0423430B4CA04208D00B4C5D
:1053F000A04205D00A4CA04202D00A4CA04203D1E0
:105400004C69B24324022243426045654968816584
:10541000036270BD8FFFFEFF002C01400040014081
:10542000004401400048014030B5026A01231B05D9
:105430009A430262046A4268436D114D2B400D6825
:105440002D021D4301235B059C430B891B05234350
:105450000C4CA04208D00C4CA04205D00B4CA042F2
:1054600002D00B4CA04205D10124A404A2434C69F4
:10547000A4022243426045654968C165036230BDAC
:10548000FF8FFFFE002C014000400140004401401E
:105490000048014010B5C82001F0E4FA0121812044
:1054A00000F086F82349EC2000F082F8012109037E
:1054B000902000F07DF80A21912000F079F8042175
:1054C000802000F075F8FF21F531932000F070F88E
:1054D0001949F02000F06CF811210903A42000F014
:1054E00067F815210903A52000F062F81349A620EA
:1054F00000F05EF812480168A72000F059F8114941
:10550000A82000F055F80121C903AA2000F050F8A6
:105510000A21AB2000F04CF80021AC2000F048F844
:105520000949B42000F044F80021A02000F040F820
:1055300010BD0000C3000300C8010700FF8F010079
:10554000D0000020FF1F00005F0700007CB50C4664
:105550006946087001250526ED0336070022294615
:105560003046FCF734F86423052269460F48FDF7FE
:10557000B7F8012229463046FCF729F800222946CF
:105580003046FCF724F86423012269460748FDF7FA
:10559000A7F86423042221460448FCF7EDFF01220A
:1055A00029463046FCF713F87CBD000018030020A4
:1055B0007CB56A461070080E5070080C9070080A8E
:1055C000D070117101240525E4032D070022214626
:1055D0002846FBF7FCFF6423052269460448FDF7D3
:1055E0007FF8012221462846FBF7F1FF7CBD000031
:1055F00018030020704700001CB5022201920091A0
:105600000246012392210248FCF7D2F81CBD00009B
:105610000C02002010B5417802780802104340BA0D
:1056200000B20011FAF7DEFE0322D243FAF7BCFE05
:10563000FAF719FF10BD0000F8B50446416E40347A
:10564000002915D000688168806809014D0F0A4E55
:10565000400F3746315C083F385CC000FAF782FDE6
:105660006085785D715DC000FAF77CFD2085F8BD2E
:1056700001206085FAE700002077000810B5018D51
:10568000C90707D001684A6801235B049A43C36ACB
:105690001A434A60018D890707D501684A680123CA
:1056A0001B049A43036B1A434A60018D490707D5CF
:1056B00001684A6801239B049A43436B1A434A607A
:1056C000018D090707D501684A680123DB039A4366
:1056D000836B1A434A60018DC90607D50268916839
:1056E00001231B039943C36B19439160018D890604
:1056F00007D501688A6801235B039A43036C1A4348
:105700008A60018D490612D503685A68012109058E
:10571000446C8A4322435A60426C8A4207D1026831
:10572000516803235B059943836C19435160018DD4
:10573000090607D501684A680123DB04C06C9A4357
:1057400002434A6010BD0000FEB5064600258036C3
:1057500004463561FBF742FF019020680068124F54
:10576000000709D501210097002249052046019B29
:1057700000F090F900280DD12068006840070BD593
:1057800001210097002289052046019B00F082F943
:10579000002801D00320FEBD2020B060F060E56647
:1057A000256735710020FEBDFFFFFF0110B5806A3F
:1057B000002201464031CA83CA82FDF7B5FD10BD03
:1057C000F8B5846A2046803081680546C66820683E
:1057D000806800270006002806DA212904D1562017
:1057E0000753204600F070F820688068400606D510
:1057F000222E04D15E200753204600F033F828699A
:105800001021084328612046FDF78EFDF8BD10B534
:1058100001460968806A096889061BD4002256215E
:105820000A52EFF31081012282F310880268936814
:105830008024A343936081F31088EFF31081012249
:1058400082F310880068026840231A43026081F3E3
:10585000108810BDFDF7CEFF10BD10B5806AFDF7B2
:10586000CAFF10BD10B5EFF31081012282F310883A
:1058700002681368FF242134A343136081F3108866
:10588000EFF31081012282F31088026893680D4CB7
:105890002340936081F31088C16E01290BD1EFF38F
:1058A0001081012282F31088026813681024A34338
:1058B000136081F3108820228C210A500021C166D8
:1058C000416710BDFEFFFFEF10B5EFF3108101221D
:1058D00082F3108802681368C024A343136081F325
:1058E0001088EFF31081012282F310880268936818
:1058F0000124E405A343936081F3108820218030C4
:10590000816010BDF8B5044680682169E2690843EA
:10591000616900251143226808431168534B1940FF
:105920000143116021684868032212039043E26832
:1059300010434860A169206A2268084391684C4B73
:105940001940014391602068C16A626A090909012E
:105950001143C162474A2068474990420AD14869C9
:105960008007800F20D0012814D0022810D00328EF
:105970001CD111E0414A904210D148690C210840E5
:1059800012D0042806D0082802D00C280ED103E03B
:1059900002210CE004210AE0082108E0384988428D
:1059A00002D03849884201D1002100E010210122B3
:1059B000E369D2033448354E354F934227D100294D
:1059C00006D002290BD0042905D008293DD11CE0BE
:1059D000FCF754FA01E0FCF765FA00283CD0616A54
:1059E0004900715AFAF7BEFB616840004A08801806
:1059F000FAF7B8FB01461039B94226D82449491CA8
:105A000001400007400F084324E01046E7E7002963
:105A100006D002290BD0042905D0082915D116E09B
:105A2000FCF72CFA01E0FCF73DFA002814D0616A7B
:105A30004900715AFAF796FB61684A088018FAF72C
:105A400091FB01461039B94203D9012504E0104603
:105A5000EDE780B22168C8602046012140304185D1
:105A6000018500206067A0672846F8BDF369FFCF75
:105A7000FFF4FF1100380140401002400044004094
:105A800000480040004C00400024F400007700086B
:105A9000EFFF0000FFB581B005461746044680358C
:105AA0000A9E54E0701C52D0FBF798FD0499401AEE
:105AB000B0422FD8002E2DD020680168490746D566
:105AC000C069C043000542D401202168C0020862B9
:105AD000EFF31080012181F3108821680B68FF2209
