:020000040800F2
:100000001025002049010008A1420008B531000870
:1000100000000000000000000000000000000000E0
:100020000000000000000000000000002145000862
:10003000000000000000000007010008254500083E
:100040005B010008000000005B0100085B01000884
:100050005B0100085B010008A50800085B010008BF
:10006000000000005B010008F5070008C907000850
:10007000D50500085B0100085B01000800000000D6
:100080005B010008A94500085B0100085B0100084E
:100090005B0100085B0100085B010008F531000806
:1000A000153200085B0100085B010008CD4F000815
:1000B0005B0100085B0100080448854600F056FA21
:1000C00000480047D1550008C046C0461025002012
:1000D000084B19680868203080F30988022080F3F3
:1000E0001488BFF36F8F3FBCAE4608BC04BC62B639
:1000F000184700002C000020EFF3108072B6704704
:1001000080F310887047EFF309800E4B1A6820388F
:100110001060F0C044464D4656465F46F0C008B5F4
:1001200072B606F053F962B60CBC1168086810305C
:10013000F0C8A046A946B246BB4680F309882038DD
:10014000F0C818472C0000200448804704480047A6
:10015000FEE7FEE7FEE7FEE7FEE7FEE7A54500084F
:10016000B900000830B50B460146002020220124CA
:1001700009E00D46D5409D4205D31D469540491BDB
:100180002546954040191546521E002DF1DC30BD24
:1001900003460B439B0703D009E008C9121F08C0A0
:1001A000042AFAD203E00B780370401C491C521E4B
:1001B000F9D27047D2B201E00270401C491EFBD256
:1001C00070470022F6E710B513460A460446194662
:1001D000FFF7F0FF204610BDF8B502464A40D40FA5
:1001E00042004B0052085B089A4202D2024608467F
:1001F00011464A0023D0C30D4A00DDB2120EAD1ADB
:10020000202D35DA49020126490AF6058A19002C03
:1002100000D0524220214F1B1146B9402A411018EC
:10022000C20D9A4221D0002C17D0012D08DCDA052E
:10023000801AD20F8019D207DBB200F0FFF8F8BDA8
:10024000DA05801A012340001B06C01880185A42A4
:100250008018CA0F1043490007E04908C20711433C
:10026000DA05801A80194008801800F0DFF8F8BD20
:1002700061000122511A001BF7E70122D207514009
:10028000AAE70122D2075040A6E7024670B54A40CD
:10029000D30FDB0740002DD04A002AD0010E140EE8
:1002A000000212020919400A520A8418E5010446A4
:1002B0005443000A120A2E045043A4194219200C78
:1002C000C543AA18120C0125AD03521C5219120481
:1002D0007F39240400D0521C104301D44000491E31
:1002E000C2B20C06C0092018401C4008802A02D067
:1002F00003E0002070BD40084000002900DA002023
:10030000184370BD70B54B005B0803430BD04B0026
:100310005C0D002633466542B341D417AD1AA341A4
:1003200002DB0020014670BD12053018514170BD3E
:100330000EB5C217C10F5040CA0740180021054B27
:100340000293019200910A460B4600F0BDF803B0FB
:1003500000BD000033040000410040020122400AB9
:10036000D205090E80187F2901DA002070479629EE
:1003700003DC9622511AC84070479639884070476E
:10038000CB0FDB07490010B5490802460A4307D0E6
:100390000A0D07240903E401090B121B002A01DCE2
:1003A000002010BDC900440F0C43C100E018D20565
:1003B000801800F03BF810BD0122D207002800DBB6
:1003C000101A002900DB511A88427047F0B51FB49B
:1003D0000646002082B005464024019100901BE0B3
:1003E000019922460F46304600F0E2F8049A059B38
:1003F000801A994110D310461946224600F0C8F8D9
:10040000361A8F410197224601200021009F00F0FB
:10041000BFF838184D4100902046641E0028DFDCEC
:10042000019B00982946324607B0F0BD002904DA46
:10043000401C490001D140084000704770B40024BE
:10044000050C05D11024000402D1002921D011246B
:10045000050E01D100020834050F01D10001241D51
:10046000850F01D18000A41C002801DB4000641C22
:10047000002908D020252E1B0D46F540A14000D0B4
:1004800001212943084301061B1B000ADB1D02D57D
:10049000002070BC7047DB05181880180029F8DAB6
:1004A000401C4900F5D170BC40084000704710B5B1
:1004B000002B08DA0024401C614192185B411A436A
:1004C00001D14008400010BDF0B51FB482B0054610
:1004D0000C0003D0084604F0CFFD02E004F0CCFD90
:1004E0002030024600902146284600F051F8049B37
:1004F000059A04460F4618431143084314D0184682
:1005000010431BD0009840210A1A1846059900F0A4
:100510004FF805460E46009A0599049800F038F801
:10052000084305D0012004E02046394607B0F0BD5D
:100530000020C11705430E432C43374300990E9802
:100540006305401A7905E40A00220C43FD0A0A30CB
:1005500002D500200146E9E70105101969410C9C0C
:100560000D9D00196941FFF7A2FFDFE7064C012549
:10057000064E05E0E36807CC2B430C3C984710344B
:10058000B442F7D3FFF79CFD646F0008846F000846
:1005900010B5202A04DB0146203A9140002010BD0E
:1005A000914020239C1A0346E3401943904010BD1C
:1005B00010B5202A04DB0846203AD040002110BDA7
:1005C0000B46D340D0402024A21A9140084319463C
:1005D00010BD000010B5024800F084FA10BD000004
:1005E000E800002008B51D4D6424002300941A463D
:1005F0000321686905F0A0FFC1070CD081070AD468
:10060000642005F00BFE4021154800F0EAFE15A01D
:1006100004F006FDE9E7C0438007E6D116A004F028
:10062000FFFC642005F0FAFD1849002004F07CFA74
:10063000164804F087FA164908600146154803F089
:1006400030FE154E0346307014A20321034804F017
:10065000F7FC1449307809684863C6E700000020B9
:1006600000080050E9A284E58AA0E783ADE6A8A1CE
:10067000E5BC8F5C6E000000E6ADA3E5BC8FE58AAB
:10068000A0E783ADE6A8A1E5BC8F0000A90000208B
:10069000AC000020A41E0020A80000202530325805
:1006A000000000006C03002008B504F0BDF9002232
:1006B0000121234800F09DFE01214904A72004F0F8
:1006C0000FFA204D6420002300901A460621686925
:1006D00005F032FF410706D5810704D4C82005F094
:1006E0009DFD19A019E04007800F032817D1C820ED
:1006F00005F094FD0021686905F094FE1F2406466C
:1007000001273846A040304201D014A000E014A0D8
:1007100004F086FC641EF4D512A004F081FC0121D3
:10072000A02004F0DDF97D24E400204605F076FDEC
:100730000221A02004F0D4F9204605F06FFDC1E7A6
:10074000000C005000000020E9A284E794B5E69C6C
:10075000BAE6A8A1E5BC8F5C6E0000003100000085
:1007600030000000E6ADA3E5BC8FE88489E58AA8E7
:10077000E6A8A1E5BC8F00000F480068C16801220F
:1007800052021143C16000211922084605F024FCE1
:1007900004F010FC094C0A4D8021204600F021FE97
:1007A0000A220849286906F09AF80028F4D005487A
:1007B00004F0F6FFF0E70000B80300200008005046
:1007C00000000020B400002010B5064800F022FC14
:1007D000054800F01FFC054800F01CFC044800F030
:1007E00019FC10BDAC0200204C010020F4040020D4
:1007F0000404002010B5024800F00CFC10BD0000FD
:100800005002002010B50446006C094980088000A1
:1008100040186064207814210838FFF7A3FC0449CD
:100820008031A164C106C90E01208840E06410BD7A
:10083000000802400179084B8906890E8A00D21807
:100840000265054A4432491E42658A07920F01211A
:100850009140816570470000FC080240F0B5846C4F
:10086000C56C6560046D002C02D0446D856D6560BB
:100870000B4C6568066C1C273E400127B7403D4382
:100880006560046863608368102B036803D0996017
:100890000068C260F0BD9A600068C160F0BD0000F1
:1008A0000000024010B5042000F0D2FC10BD72B66A
:1008B000FEE770477047704770470000F8B50027A3
:1008C0000646044640360097307D0D4601280FD07D
:1008D00001203075206803F008FA00280AD0A06DC6
:1008E00020210843A0650127002030753846F8BD57
:1008F0000220F8BD686802287ED001222169D20753
:10090000914202D0121D914206D120682968826A64
:100910004903490B0A436EE0C206D20E0F20216E36
:10092000904081432868430302D0C3074BD102E0C3
:100930004000C00E48E0830701D5012044E0430792
:1009400001D5022040E0030701D503203CE0C306A7
:1009500001D5042038E0830601D5052034E04306A4
:1009600001D5062030E0030601D507202CE0C305A1
:1009700001D5082028E0830501D5092024E043059E
:1009800001D50A2020E0030501D50B201CE0C3049B
:1009900001D50C2018E0830401D50D2014E0430498
:1009A00001D50E2010E0030401D50F200CE0C30395
:1009B00001D5102008E0830301D5112004E0400395
:1009C00001D5122000E000209040014321666968B3
:1009D000E2698808401C904210D820682B68826A1F
:1009E0009C46C906C90E0F238B409A4363469B0061
:1009F0001B0F8B401A4300E03BE082622168AB682A
:100A000028684A69000282431840400140090243B5
:100A10004A612868002800DB66E72B4A1168072333
:100A20009B051940294B984214D10B0212D4C002E5
:100A30000143104603F065F9264825490068FFF791
:100A400091FB0C21401C484300E0401E0090002810
:100A5000FBD149E7204B984203D1CB0101D480025E
:100A600005E01E4B9842D7D14802D5D45802014325
:100A700025E001212069C907884202D0091D88426A
:100A800006D120682968826A4903490B8A43826239
:100A900028680028C0DA0C4A116807239B05194012
:100AA0000A4B984201D1C00208E00B4B984201D199
:100AB000800203E0094B9842AED1400281431046C8
:100AC00003F01FF910E7000008270140001000B0F4
:100AD000400D030028000020004000B8002000B4B2
:100AE00070477047F8B50446006806684568B00767
:100AF0000FD5A8070DD5A06DC00604D4A06D0121A7
:100B0000C9020843A0652046FFF7D4FE21680220F1
:100B10000860474F700701D5680703D4300728D510
:100B2000280726D5A06DC00604D4A06D0121490276
:100B30000843A065206803F0DCF8002813D0A07EED
:100B4000002810D12068016809070CD503F0CDF802
:100B500001460120002960D0A16D20221143A1652A
:100B6000E16D0143E1652046FFF7BAFF21680C20E3
:100B7000086030060CD528060AD5A06D01210904AD
:100B80000843A065204600F065F9216880200860D0
:100B9000F0050BD5E80509D5A06D012149040843EE
:100BA000A0652046FFF787FE20680760B0050DD5D9
:100BB000A8050BD5A06D012189040843A065204636
:100BC000FFF77AFE0120216840020860F00618D580
:100BD000E80616D5206B002804D02068C06880077E
:100BE000800F0BD0A06D012189020843A065E06D44
:100BF00002210843E0652046FFF773FF21681020BB
:100C00000860B00408D5A80406D52046FFF751FEB9
:100C10000120216840030860F8BD21684A680C2360
:100C20009A434A60A16DB9430143A1659BE7000067
:100C300000010000FEB50027044601973E460297DA
:100C40000097002805D02546A06D2035002802D049
:100C500007E00120FEBD204600F0FEF8E6655420C6
:100C6000065520688168C900C90F12D18168724A8F
:100C70001140012212071143816071486F490068D9
:100C8000FFF770FA4000801C00E0401E0090002832
:100C9000FBD120688168C900C90F08D1A16D10225D
:100CA0001143A165E16D01221143E165174603F08F
:100CB0001CF8A16DC90601D4002804D0A06D102134
:100CC0000843A065B4E0A06DFF21013188430221F3
:100CD0000843A065206803F004F800286DD1217E48
:100CE000A06889030843617ECA03A17E4B031A43AF
:100CF0001043226B002A01D0012212031043E26844
:100D000010432269002A02DA5200520801E001224F
:100D1000520510432A7B52001043019A10432A784F
:100D2000012A09D1002922D0A16D20221143A165F9
:100D3000E16D01221143E165616A002906D0FF23BC
:100D4000C1331940A26A0143104608432168CA68AA
:100D50003C4B1A400243CA606168029A890F8907B6
:100D6000E06C0A4310432A7F012A04D00CE00121E1
:100D700009040843E0E7636C226C491C1A43A36C26
:100D80000B4311461943084321680A692E4B1A4048
:100D900002430A6103216068890788420DD0590720
:100DA00088420AD04900884207D0284A91680F2318
:100DB0009B0499431840014391600021626B2068B5
:100DC00002F0A6FF2249A26B206802F0A1FF0F20CB
:100DD0002169C04300291CD00122520591420AD149
:100DE00021688A6A227F9200121FD206D20E90409A
:100DF000226E1043886220684069616B4007400F93
:100E000088420BD1E665A06D80088000401CA0657B
:100E10000FE021688A6A02438A62ECE7A06D022132
:100E2000884310210843A065E06D01210843E06577
:100E300001273846FEBD0000E8FFFF7F400D03009C
:100E4000280000200102FEFF02FCFF1F00270140D6
:100E500004FFFF077047000070B58EB006461421EE
:100E600007A8FFF7AEF91C216846FFF7AAF9274942
:100E70003068884248D10120002580030595009004
:100E8000684600F085FD002801D0FFF710FD2048DE
:100E90000268012109050A430260006808400C90BD
:100EA0001B484038416B012211434163406B07A945
:100EB00010400C900D200790032008900520099504
:100EC000000700F0DBF9144C12482060A5600520F3
:100ED000E560606080202061400060618000A0616A
:100EE00020202562E061204600F0F0F8002801D0C3
:100EF000FFF7DDFC3465002203210C20A66200F020
:100F00001DFD0C2000F00EFD0EB070BD0024014050
:100F100040100240580002404C010020F0B500286B
:100F200008D0014620314A79022A05D00422C26342
:100F3000002008710120F0BD026813680E24A3434D
:100F40001360426C1468FF2301339C4314600268F1
:100F500014686408640014600C4A5568066C1C240C
:100F6000264001242746B7403D435560826CC56C3E
:100F70005560026D002A05D015689D431560826D8D
:100F8000406D42604C7100200871F0BD00000240CD
:100F9000F8B50024024620325179022903D00421F9
:100FA000C16301242DE001680B680E25AB430B6083
:100FB00001680B685B085B000B60416C0B68FF25E8
:100FC0000135AB430B6010494D68066C1C231E4075
:100FD00001231F46B7403D434D60816CC56C4D6099
:100FE000016D002906D00E681D02AE430E60416DF2
:100FF000856D4D60537100211171816B002900D006
:1010000088472046F8BD00000000024020304079AB
:1010100070470000F0B42C490C6802681368056C36
:101020001C273D400426AE40264211D05E070FD556
:1010300013689B0603D4146804239C4314604B6814
:10104000046C04223C40A24013434B60016B1CE043
:101050000227AF40064627402036002F19D09F07B1
:1010600017D513689B0605D413680A24A34313609D
:10107000012272714B68046C1C2214400222A240AF
:1010800013434B6000213171C16A00291AD0F0BCB2
:1010900008470827AF40274214D01B0712D5136812
:1010A0000E24A34313604B68046C1C2214400122DD
:1010B0001546A5402B434B60C2637271002131710C
:1010C000416BE2E7F0BC70470000024070B50400DD
:1010D0003FD02548256814212818FFF743F88000E1
:1010E0002064022026462036707128681F49084077
:1010F0002860E168A06862690843216911430843D8
:10110000A1690843E1690843216A084321680A6824
:10111000104308602046FFF775FB0121A068890392
:101120000025884200D165602079616C8006800EC0
:101130000860A06CE16C41606068401E03280AD81A
:101140002046FFF777FB206D0560606DA16D416063
:1011500004E0012070BD25656565A565E563012096
:1011600070713571002070BDF8FFFDBF0F80FFFF6B
:10117000F8B504468C4620300179002501290BD0B2
:101180000126067141790027012907D08021E163FA
:10119000077101252846F8BD0220F8BD02214171E2
:1011A000E7632068016849084900016061462046FC
:1011B000FFF754FB206B00282068016801D00E2245
:1011C00005E0042291430160206801680A2211436E
:1011D0000160606C0168CA03074902D502680A43CE
:1011E0000260206D002802D002680A430260206875
:1011F000016831430160CDE70001000038B50020EF
:10120000114C0090206805F04AF90546052005427A
:101210000CD004210D4800F0DFF8002806D1A80703
:1012200005D46A460221206805F07CF938BD042106
:10123000206805F00BF90221206805F007F901216B
:10124000206805F003F938BD1400002000040050A8
:1012500070B5084D0446E868204203D0EC60204693
:1012600000F00AF82869204203D02C612046FFF7DD
:10127000C5FF70BD0018024070470000F0B50023A4
:1012800003249AE02A4601259D402A407ED00E790B
:10129000B607B60F012E01D0022E16D1866827465A
:1012A000B4465E00B646B7406646BE43B446CF6815
:1012B0007646B7406646374387604668AE430D7949
:1012C000ED06ED0F9D40354345600D79ED43AD07CB
:1012D00008D0C5685F002646BE40B5438E68BE4054
:1012E0002E43C6600D79AD07AD0F022D0ED1DD087E
:1012F000AD002D18AC462D6A5E07F60E0F27B740DD
:10130000BD430F69B7402F4365462F6205685F00F4
:101310002646BE40B5430E79B607B60FBE402E43F3
:1013200006604D68AD03AD0F46D09E08264DB60051
:101330007519AC462D6E9E07F60E0F27B740BD43BC
:1013400005273F07B84201D100270FE01F4FB842E1
:1013500001D101270AE01E4FB84201D1022705E062
:101360001C4FB84201D1032700E00527B7402F43A7
:10137000154D664637662D684E689543F60200D5D2
:101380001543114F3D607D68954300E014E04E68C1
:10139000B60200D515437D600B4D80356E684F68F1
:1013A0009643BF0300D516436E602E684F68964380
:1013B000FF0300D516432E605B1C0A681546DA4011
:1013C00000D05FE7F0BD00000018024000040050AC
:1013D00000080050000C00500069084000D00120B7
:1013E0007047426913460B401B0491430B438361D2
:1013F0007047002A01D08161704781627047000008
:1014000001488068704700001C00002070B502464B
:1014100040325378202B1CD11378012B19D0012393
:10142000137024245470046825689D432560046863
:1014300025681E03B5432560046825680D432560B3
:10144000006801681943016020205070002010706E
:1014500070BD022070BD70B5024640325378202B1B
:101460001BD11378012B18D001241470242353703E
:1014700003681D68A5431D6005682B680F263602AA
:10148000B3430902194329600068016821430160E0
:10149000202050700020107070BD022070BD704779
:1014A000704770B503689A691968D243D40508D4A7
:1014B000CC43240605D4446C01252C4344642C02FF
:1014C000DC61530509D4CB431B0606D4436C0824C6
:1014D00023434364E3010468E361920509D4C943EB
:1014E000090606D4416C02221143416411020268CC
:1014F000D161416C0B22114201D001F08BFF70BD14
:10150000026891691268436B002B00D0184770473E
:101510007047000070B5040006D025464035687855
:101520000026002802D005E0012070BD2E70204664
:1015300000F0CEF82420687020680168490849004E
:1015400001600F21606809068843216808612168ED
:101550008A680120C00382438A60E1680129A1688A
:1015600008D021229202114322689160E168022989
:1015700002D005E00143F7E701212268C90251606A
:1015800021684A680F4B1A434A602168CA6882433F
:10159000CA60616920690843A1690902084321689A
:1015A000C860216AE0690843216808602068016812
:1015B0000122114301606664202068702663AE70CA
:1015C000002070BD00800002704770477047704770
:1015D00070470000FFB5044681B01F4625461346FC
:1015E000403569780A9A0B98202964D1002A1ED0C8
:1015F00000281CD021688E69F64336045BD52E780E
:10160000012E58D001262E7022266E704026AE7014
:1016100000266664626260852848E062284860634C
:101620000298E064608DFF2805D9FF2004E00120C6
:101630004002606423E0608D2085D8B2012F21D064
:101640001B0A8B622065E06B00281FD01D49C16218
:10165000E16B1D484863E06B0663E06B86632168BD
:10166000238D2431E06BFFF783FD002814D0202068
:101670006870AE70606C1021084360642E700120A9
:1016800005B0F0BD88620020C043DBE72020687011
:10169000AE70606C8021EFE70C480090FAB2002336
:1016A0002046029902F0F4FA2E700121204601F042
:1016B0002FFE0020E4E70220E2E700000000FFFF29
:1016C0003D390008693200085132000800200080CE
:1016D000F0B58DB0064614216846FEF772FD1C2158
:1016E00005A8FEF76EFD444A3168444D02271224D6
:1016F000002091422AD1202106460890059105A894
:1017000000F046F9002801D0FFF7D1F8686B3843A4
:101710006863686B694638400C900320000251C131
:1017200006200490694603963548FFF7A7FDE96B4C
:10173000012040050143E963E96B002201400C915F
:101740000321172000F0FAF8172051E02D4A9142AA
:1017500050D1696B39436963696B019439400C91CD
:101760000321044602900390890206200091049010
:1017700069462348FFF782FDE96B0120800501439C
:10178000E963E96B214D01401F480C912860AC6072
:10179000EC606C61AC618027EC612F610C202C62E5
:1017A00068602846FFF792FC002801D0FFF77FF819
:1017B000F563AE62154D14485C35143028600D2079
:1017C000686029461020083191C16C61AC61EC6100
:1017D00028462C62FFF77AFC002801D0FFF767F853
:1017E000B563002203211820AE6200F0A7F818208C
:1017F00000F098F80DB0F0BD005400400010024019
:101800000004005000580040300002405002002008
:101810007047704702488168027889188160704774
:101820001C00002010B508480024016882151143EF
:101830000160032000F00AF8002801D0012401E033
:1018400000F052F8204610BD0020024030B5054699
:101850001F4887B0C26B10210A43C263C06B0840A7
:10186000009005A901A800F0EFF90498002815D010
:1018700000F006FA40001749FEF774FC411E1748B5
:10188000154A0260164AC260416000210161816010
:10189000816100F001FE040003D015E000F0F0F9D2
:1018A000E9E70E4800F060FE04000DD1112000F0C1
:1018B00039F8042D07D200222946112000F03EF805
:1018C0000848056000E00124204607B030BD000054
:1018D0000010024040420F0000100040840500202C
:1018E000E70300002000002008B50D480168012230
:1018F0001143016000681040009009484038C26BF5
:1019000001040A43C263C06B002208400321009017
:10191000481F00F013F80320400200F059FD08BDF5
:1019200040100240002805DBC106C90E0120884096
:10193000014908607047000000E100E010B503F0C5
:10194000BFFB10BD10B50F4C21680322520291431A
:1019500001432160C11FFF39FA390ED10A4806211F
:10196000006848430949FEF7FDFB401C02E00028DF
:1019700005D0401E61694905F9D4002010BD03203F
:1019800010BD0000007000402800002040420F0001
:10199000F8B5044600680026524D800358D55148DA
:1019A00000274038C06BC00009D44E484038C26B95
:1019B00001040A43C263C06B0840012700904A48F3
:1019C0000168821511430160FFF71AFD009005E0E0
:1019D000FFF716FD0099401A022825D842480068F2
:1019E000C005F5D5E8690321090208400FD0A169B7
:1019F00081420CD0E86903210902EA698843012188
:101A000009040A43EA61EA698A43EA61E861C007B6
:101A10000FD0FFF7F5FC009008E0FFF7F1FC00990C
:101A2000411A3248814201D9032609E0E86980075A
:101A3000F3D5E869032109028843A1690843E861F5
:101A4000002F05D027484038C16B02049143C16381
:101A50002078C00705D06869616880088000084365
:101A600068612078800705D568690C218843A168E2
:101A7000084368612078800606D568690321090358
:101A80008843E168084368612088400411D568698B
:101A900061698000800808436861012160698907E5
:101AA000884206D10F484038C16801221204114310
:101AB000C1602088000512D5686903218903884325
:101AC000216908436861012120698903884206D1A0
:101AD00004484038C168012212041143C1603046F5
:101AE000F8BD000040100240007000408813000064
:101AF000F8B50F46060043D04D4D28684007400F0B
:101B0000B84213D22868C008C00038432860FFF7E5
:101B100077FC044605E0FFF773FC011B4548814252
:101B200061D828684007400FB842F4D13068424C71
:101B300081070DD5400704D5A06807210903084394
:101B4000A060A0680F2109028843B1680843A06023
:101B50003078C00732D0706801280AD002280BD034
:101B600000280FD03449403103280ED0C9698907B5
:101B700004E02168890301E021688901002906DB6E
:101B80000120F8BD21684905F8E7096AEFE7A16877
:101B9000C908C9000143A160FFF732FC009006E0CC
:101BA000FFF72EFC0099411A224881421BD8A068F9
:101BB000382108407168C9008842F1D1286840077F
:101BC000400FB84217D91A480168C908C9003943FB
:101BD0000160FFF715FC054607E0FFF711FC411B0C
:101BE0001448814201D90320F8BD1148006840071C
:101BF000400FB842F1D13078400706D5A0680721E0
:101C000009038843F1680843A06000F04DF8A1681B
:101C10003C2289091140094A515CC906C90EC840D5
:101C20000749086007480068FFF710FEF8BD00008C
:101C3000002002408813000000100240C46E00081B
:101C4000280000202000002010B5072202600A4A68
:101C500093685B075B0F436093680F242402234063
:101C60008360926807231B031A40C2600348006820
:101C70004007400F086010BD0010024000200240E5
:101C80000648074900688968064A4904490F8900DF
:101C9000515CC906C90EC8407047000028000020EA
:101CA00000100240046F000810B51C4CA0688006AC
:101CB000410F1B4815D0A1688906490F01290FD093
:101CC000A1688906490F022911D0A0688006400F3B
:101CD00004281DD0A0688006400F03281BD00020D8
:101CE00010BD216889044A0F012191400DE0E1688F
:101CF000E1684906490F491CFEF734FAE1684904D6
:101D0000490E4843E168490F491CFEF72BFA10BD04
:101D10000120C00310BD7D20000210BD0010024054
:101D20000024F400F8B504007ED020783827C007DE
:101D3000E94D002846D0A868E96838408907890F2E
:101D4000102802D008280BD001E0032908D0012078
:101D50006268000482420AD129680143296015E0C3
:101D6000286880032ED560680028DDD02AE005238E
:101D700001211B0489049A422A6802D10A432A607D
:101D8000EAE782432A602868884328606068002860
:101D90000CD0FFF735FB064604E0FFF731FB801B54
:101DA000642873D828688003F7D50BE0FFF728FB79
:101DB000064604E0FFF724FB801B6428F1D828685E
:101DC0008003F7D42078800769D5A868E96838408F
:101DD0008A070721920FC902102802D0002813D0C9
:101DE00001E0022A10D0E068002846D02868884325
:101DF0002169084328602868FF21013108432860D1
:101E0000FFF7FEFA06462CE02A68520502D5E26882
:101E1000002A89D06A687F231B029A4363691B02E8
:101E20001A436A60002800E08DE00ED128688843DC
:101E3000216908432860286801218004400F8140FF
:101E4000A648FEF78FF9A6490860A6480068FFF784
:101E5000FDFC002877D122E0FFF7D2FA801B022890
:101E60009FD828684005F7D568687F210902884314
:101E7000616909020843686011E02968FF200130A8
:101E800081432960FFF7BCFA064605E098E0FFF7BA
:101E9000B7FA801B022884D828684005F7D4207838
:101EA000914E00072ED5A8688006400F03280AD05F
:101EB000A0690028306A16D0012108433062FFF77C
:101EC0009FFA07460BE0306A80071BD5A0690028FF
:101ED0009FD017E0FFF794FAC01B022870D8306A31
:101EE0008007F7D50EE0400840003062FFF788FA1F
:101EF000074604E0FFF784FAC01B022860D8306A66
:101F00008007F7D4207840076CD5A86800278006A2
:101F1000400F042818D0E86BC00008D4E96B0120FA
:101F200000070143E963E96B0140012700916F4815
:101F30000168C90519D40168821511430160FFF7D2
:101F40005FFA00900DE083E0F06980074AD5A06851
:101F500000287DD046E0FFF753FA0099401A022886
:101F60002ED862480068C005F5D5A168012910D0B7
:101F700004200529F16911D049084900F161F1698E
:101F80008143F161A068002816D0FFF739FA00906C
:101F90000EE0F06901210843F061F3E70143F161CC
:101FA000F7E7FFF72DFA0099411A5148814265D8A9
:101FB000F0698007F5D50EE0FFF722FA009007E000
:101FC0005CE0FFF71DFA0099411A4948814255D853
:101FD000F0698007F5D4002F04D0E96B01200007D9
:101FE0008143E963E069002873D0A9688906490F35
:101FF00002294DD0012636060228286805D0B043B4
:102000002860FFF7FDF904463AE0B0432860FFF787
:10201000F7F9074604E0FFF7F3F9C01B02282DD8B3
:1020200028688001F7D4616A206AA26A0843E16ADD
:10203000120211430843216B0843E9682D4A1140FD
:102040000843E860286830432860E868012100E020
:102050003DE009070843E860FFF7D2F9044604E0D1
:10206000FFF7CEF9001B022808D828688001F7D5B1
:102070002FE0FFF7C5F9001B022801D90320F8BDA6
:1020800028688001F5D4E8681B490840E86020E032
:102090000128F4D0E868226A8107890F914216D19D
:1020A0007021626A0140914211D17F21A26A090226
:1020B0000140120291420AD11F214904E26A014003
:1020C000914204D1400F216B4007884201D001208A
:1020D000F8BD0020F8BD0000001002400024F4000C
:1020E0002800002020000020401002400070004026
:1020F000881300008C80C11FFCFFFEEFF8B50400C0
:102100000CD0606A002500280AD02561656126464A
:102110004036A562707F002808D00BE00120F8BD92
:102120006168C81FFD38F2D0E561F0E735772046D9
:1021300000F05CF80222727720680168402399431E
:1021400001600723E1681B02994201D9002001E0E8
:10215000012000030F273F02B94202D0994200D06C
:10216000A562FF236168053319402127A368BF02D8
:102170003B40194323691340227D1943D207D20FF4
:1021800011430123A2695B021A401143E26938231B
:102190001A401143226A80231A401143A26A9B010C
:1021A0001A40114322681160A1690422090C1140F0
:1021B000626A10231A401143626B08231A401143CC
:1021C0000F23E2681B021A40114301221203104040
:1021D0000143206841602068C16952109143C16188
:1021E0002566012070770020F8BD000030B587B06B
:1021F000044614216846FDF7E4FF1A492068884226
:102200002ED11948026881140A4302600068084010
:10221000059015484038416B012211434163416BE1
:1022200011400591416B022529434163406B002415
:10223000284005900320C0020090052002940394DA
:102240006946019504940007FFF718F808200090EC
:10225000029403946946019504940448FFF70EF82C
:1022600007B030BD00300140401002400004005073
:10227000FFB5054604464035287F002781B0164645
:10228000012809D001202877FFF7BAF80090687F6D
:10229000012804D0022795E0022005B0F0BD029885
:1022A000002872D0002E70D00320687700202066AE
:1022B0000299A163A687E6872064A880E88020654C
:1022C000E0640122A068D2034021904208D1206836
:1022D00002688A430260206802680B021A430260A7
:1022E00020680268520602D402680A43026007218D
:1022F000E06809028842606826D9002801D0012ED2
:102300001ED1A06B21680088C86006E02068816843
:10231000890709D5A16B0988C160A06B801CA063E7
:10232000E08F401EE0870BE0FFF76AF80099411A42
:102330000498814202D3401C02D039E0002837D0F3
:10234000E08F0028E2D126E0002801D0012E1FD125
:10235000A06B21680078087306E02068816889070F
:1023600009D5A16B09780173A06B401CA063E08FB5
:10237000401EE0870CE0FFF743F80099411A0498EB
:10238000814203D3401C03D012E01AE000280FD092
:10239000E08F0028E1D12046009A049901F0D2FF95
:1023A000002801D020202066A068002802D005E087
:1023B000032707E02068C16880680090206E00282D
:1023C00000D001270120687700202877384664E78D
:1023D00003490A6803235B029A4302430A60704779
:1023E00000000140704770477047000070B5034619
:1023F00020331A7F012A4BD001221A770325CA689D
:102400002D02AA438D6800682A430125AD02AA4324
:102410004D6800242A430125ED02AA430D682A4392
:1024200001252D03AA430D692A4301256D03AA4303
:102430004D692A430125AD03AA430D6B2A430F259D
:102440002D04AA430D8B2D042A43124DA84204D11A
:1024500001263607B243CE693243A84214D10F2574
:102460002D05AA430D8D2D052A4301252D06AA43CE
:102470000D6A2A4301256D06AA434D6AC96A2A439B
:1024800001256D07AA430A4342641C77002070BDF2
:10249000022070BD002C014070B5040005D0254617
:1024A0002035687F002802D006E0012070BD0020A2
:1024B0002877204600F016F802206877211D206852
:1024C00002F07AF8012240342272AA77EA77227069
:1024D0006270A270E27022716271A271E2716A7719
:1024E000002070BD38B5054600681A4A1A49904266
:1024F00007D10A68C01302430A60096801400091CD
:1025000038BD164A9042FBD10A68012040040243BC
:102510000A600968134C01401148009120602C208A
:1025200060601020A0600020E060802020614000FA
:1025300060618000A0612020E061C001206220462F
:10254000FEF7C4FD002801D0FEF7B1F96C62A56268
:1025500038BD00000020004040100240004401400F
:102560008000024004040020014620314A7F012AF5
:1025700001D00120704702224A770168CB6801220E
:102580001343CB6000680B49884205D00A49884252
:1025900002D00A49884207D18168094B19400629AF
:1025A00005D0DB1F994202D0016811430160002071
:1025B00070470000002C0140000400400040014032
:1025C000070001007047704770B504460068016954
:1025D0000025C9438907002915DBC168C94389075C
:1025E00011D4E91E016101202077206880698007ED
:1025F000204602D0FFF7E7FF04E000F0E3F82046B2
:1026000000F09CF9257720680169C943490717D470
:10261000C168C943490713D40421C9430161022099
:102620002077206880698005800F204602D0FFF760
:10263000CAFF04E000F0C6F8204600F07FF92577D5
:1026400020680169C943090716D4C168C94309074D
:1026500012D40821C9430161042020772068C06991
:102660008007204602D0FFF7AEFF04E000F0AAF892
:10267000204600F063F9257720680169C943C9063F
:1026800017D4C168C943C90613D41021C9430161D5
:10269000082020772068C0698005800F204602D07E
:1026A000FFF791FF04E000F08DF8204600F046F9B6
:1026B000257720680169C943C90708D1C168C943A2
:1026C000C90704D1891E0161204600F089FA2068FB
:1026D0000169C943090609D4C168C943090605D47B
:1026E0008021C94301612046FFF77DFE2068016912
:1026F000C943C90508D4C168C943090604D41249AD
:1027000001612046FFF76EFE20680169C943490652
:1027100009D4C168C943490605D44021C9430161B0
:10272000204600F067FA20680169C943890609D488
:10273000C168C943890605D42021C94301612046E7
:10274000FFF752FE70BD0000FFFEFFFF10B586B020
:10275000044614216846FDF734FD2368154C002219
:1027600015490220A3420DD14B6B03434B63496BC8
:1027700000900140059101900292039204926946F3
:102780000E4813E00E4CA34212D14B6B012423439D
:102790004B63496B01902140032005910390402138
:1027A000052000910490029269460007FEF766FD3D
:1027B00006B010BD00200040001002400004005090
:1027C000004401407047F8B50446002026462036F4
:1027D0000090307F0D4601280CD00120082730776B
:1027E0000C2A48D008DC002A10D0042A1ED0082A5F
:1027F00006D130E00220F8BD102A52D0142A60D051
:1028000001200090002030770098F8BD206801F08A
:102810009DFF2068816939438161206881690422B4
:1028200091438161206881692A6911E0206801F083
:10283000D3FF206881690122D2021143816120689F
:102840008169521091438161206881692A6912026D
:1028500011438161D6E7206802F000F82068C16961
:102860003943C1612068C16904229143C161206874
:10287000C1692A6912E0206802F034F82068C16951
:102880000122D2021143C1612068C269012189027B
:102890008A43C2612068C1692A6912021143C16179
:1028A000B0E7206802F058F82068416D394341656F
:1028B0002068426D04218A4342652068416D2A697F
:1028C00012E0206802F07AF82068416D0122D202FD
:1028D000114341652068426D012189028A434265A6
:1028E0002068416D2A691202114341658AE770B57B
:1028F000040005D025462035687F002802D006E078
:10290000012070BD00202877204600F016F8022034
:102910006877211D206801F04FFE012240342272A9
:10292000AA77EA7722706270A270E27022716271F7
:10293000A271E2716A77002070BD704770477047DE
:1029400030B504460223203000290ED0042911D0CE
:1029500020464030082912D00C2915D0102918D053
:10296000C278012A1AD0012030BD827F012AFAD113
:10297000837714E0C27F012AF5D1C3770FE0027894
:10298000012AF0D103700AE04278012AEBD14370AA
:1029900005E08278012AE6D1837000E0C37001224D
:1029A000206801F04DFE14492068144A884207D07F
:1029B000904205D0124B984202D0124B984204D15B
:1029C000436C0125ED032B434364206801238842B7
:1029D00004D00D49884201D0904207D181680B4A4A
:1029E0001140062905D0D21F914202D00168194337
:1029F0000160002030BD0000002C0140004001407B
:102A0000004401400048014000040040070001006C
:102A1000F8B5044600200D4600902146204620319E
:102A200040309446002D0ED0042D11D0082D14D026
:102A30000C2D17D0102D1AD0C278022A1CD0C278C3
:102A4000012A1BD071E08A7F022A15D08A7FF7E71E
:102A5000CA7F022A10D0CA7FF2E70278022A0BD07E
:102A60000278EDE74278022A06D04278E8E78278D9
:102A7000022A01D08278E3E70220F8BD6246002AEC
:102A800053D0002B51D002264C4F4D4A002D09D077
:102A9000042D18D0082D27D00C2D36D0102D46D05F
:102AA000C67045E08E77606AC762606A0263616AD9
:102AB00044484863226861463432606AFEF758FB36
:102AC000002832D137E0CE77A06AC762A06A0263DD
:102AD000A16A3C484863226861463832A06AFEF722
:102AE00047FB002821D12BE00670E06AC762E06A4C
:102AF0000263E16A33484863226861463C32E06A17
:102B0000FEF736FB002810D11FE04670206BC7622D
:102B1000206B0263216B2B48486322686146403278
:102B2000206BFEF725FB002814D00120F8BD86702D
:102B3000012000903FE02068C168012252020DE0B0
:102B40002068C1680122920208E02068C168012261
:102B5000D20203E02068C168012212031143C16060
:102B600001222946206801F06BFD174B20681749A8
:102B7000984207D0884205D0154A904202D0154AA3
:102B8000904204D1426C0125ED032A43426420683F
:102B90000122984204D0104B984201D0884207D1BC
:102BA00081680E4B1940062905D0DB1F994202D0DF
:102BB0000168114301600098F8BD00005B46000801
:102BC000C1460008F9460008002C014000400140C1
:102BD000004401400048014000040040070001009B
:102BE00010B500680249884201D1FEF713FE10BDFE
:102BF00000100040704710B5014680310A79012A63
:102C000015D001220A7124228A60026813681468B0
:102C10006408640014600122520793430022426654
:102C200000680360202088600A71104610BD0220F1
:102C300010BD7047704770B5044605468034207952
:102C400001281AD0012020712420A060286806687D
:102C500002685208520002602868826807235B06F7
:102C60009A430A438260284601F07CFF2868066088
:102C70002020A0600020207170BD022070BD70B5C2
:102C80000446054680342079012819D0012020719E
:102C90002420A0602868066802685208520002607A
:102CA00028688268D200D2080A438260284601F070
:102CB00059FF286806602020A0600020207170BDA8
:102CC000022070BD7047704770470000F8B5036878
:102CD0000446D96918689A68B44D0E462E402546B8
:102CE0008035002E75D0B24EB24F164007403743A4
:102CF0006ED0CF0706D0C70504D501271F622B6908
:102D00003B432B618B0708D5D30706D027680223E6
:102D10003B622B6904273B432B614B0708D5D30744
:102D200006D0276804233B622B6902273B432B61B3
:102D30000B0709D520230340334305D02668082319
:102D400033622E691E432E610B0509D5430107D559
:102D500001232668DB0233622B69202633432B6173
:102D60002B69002B42D089060AD520210840C905CD
:102D70000A40104304D0616F002901D020468847E3
:102D8000286921688968490602D42821084232D07E
:102D9000204601F0ABFF21688868400627D5EFF395
:102DA0001080012282F310888B68402293438B604D
:102DB00080F310882868002819D07F49816328682B
:102DC000FEF7E6F8002811D02868816B0DE000E0DE
:102DD00017E08E0615D5012720263F07064017402D
:102DE0003E430ED0616FB5E020468847F8BD2046CF
:102DF000FFF76AFFF8BD2046FFF766FF0020286155
:102E0000F8BDE66E012E7DD1CE067BD5C60679D5FE
:102E100010221A6223689868264640064036002829
:102E200049DA2968086840680004000CE8D0B78BCC
:102E30008742E5D9F08308680068800634D4EFF350
:102E40001080012181F3108819681701B9431960B6
:102E500080F31088EFF31080012181F3108821683E
:102E60008B685B085B008B6080F31088EFF3108049
:102E7000012181F3108821688B684027BB438B6058
:102E800080F310882020E8600020E066EFF31080D7
:102E9000012181F3108821680B6893430B6080F354
:102EA00010882868FEF73AF802202067B08BF18B73
:102EB000401A81B235E0B08BF18B401A81B2F08BB1
:102EC00000289DD000299BD0EFF31080012686F3C7
:102ED00010881E68FF272137BE431E6080F31088CC
:102EE000EFF31080012383F3108823689E68304F2E
:102EF000FF433E409E6080F310882020E860002061
:102F0000E06600E011E06067EFF31080012383F3D7
:102F1000108823681D6895431D6080F31088022087
:102F200020672046FFF785FEF8BDCE0208D5560281
:102F300006D50120000518622046FFF7C4FEF8BD43
:102F40000E060BD501278026FF0506403A401643A2
:102F500004D0A16F002900D046E7F8BD4A0614D579
:102F6000420612D52046EFF31081012282F3108829
:102F70001A684024A2431A6081F310882021A960B6
:102F80000021816700F015F9F8BD0A0205D542005D
:102F900003D52046FFF796FEF8BDC901FCD50028F1
:102FA000FADA2046FFF746FEF8BD00000F080000E1
:102FB0000100001020010004D94C000870B5040085
:102FC00005D025468035A868002802D006E00120FB
:102FD00070BD00202871204600F026F82420A8604B
:102FE00020680168490849000160204601F0B0FEF0
:102FF0000128EDD0A06A002802D0204601F0D4FDBF
:10300000206841680922D2029143416020688168AA
:103010002A229143816020680168012211430160E6
:10302000204601F027FE70BD70B58EB00646142113
:103030006846FDF7C6F81C2105A8FDF7C2F825492A
:103040003068884244D1012000250590069505A8E6
:10305000FEF79EFC002801D0FDF729FC1E480268FF
:10306000012189030A430260006808400C901A4855
:103070004038426B02210A434263406B6A46084073
:103080000C90C02023C20395694614480495FEF7AE
:10309000F5F8144C12482060332060601020E56081
:1030A000A0606561A561E561802025622061204600
:1030B000FEF70CF8002801D0FDF7F9FBF4670022B9
:1030C00011461B20A662FEF739FC1B20FEF72AFCE6
:1030D0000EB070BD003801404010024000040050A6
:1030E0006C000240F4040020FFB507460446803718
:1030F000B86883B00D46202802D0022007B0F0BD8A
:10310000002D0CD00598002809D00120A1680003EB
:10311000814206D12069002803D1E80701D00120AF
:10312000ECE7002038612120B860FEF769F90190D2
:10313000264640360598B0820598F0820120A168A5
:103140000003814202D12069002802D002950025A7
:1031500015E00020029012E000228021204601F0BC
:10316000BFFE002818D10298002817D021680078E7
:1031700088620298401C0290F08A401EF082F08A19
:10318000019B002806980090E6D1002240212046AD
:1031900001F0A6FE002808D00320AFE728882168A8
:1031A000C005C00D8862AD1CE6E72020B860002095
:1031B000A4E77047FEE700000A48094901600021C2
:1031C00041608160C160084A0262C161074A42628F
:1031D000074A02617F22D205426181617047000087
:1031E0000000A042A41E00200000C84200007F434F
:1031F0000000204110B50648006880694005400F76
:10320000034802D0FEF74DF910BDFEF779F910BD65
:10321000A801002010B50648006880694005400FED
:10322000034802D0FEF73DF910BDFEF769F910BD65
:10323000FC01002010B5806A0021826B002A00D0BA
:103240009163C26B002A00D0916300F037FD10BD7E
:1032500010B5806A01684A680123DB031A434A609B
:10326000102100F0D7F810BD10B5846A20680168FD
:103270000122D20391430160608D002808D0218D86
:10328000606A42186262608DFF2803D9FF2002E065
:1032900020210FE0608D2085216883B22431E06B0E
:1032A000FDF766FF002804D01021204600F0B2F898
:1032B00010BD4021204600F02BF810BDF0B50446AB
:1032C0000022CE0740342823B025002E05D0667892
:1032D00042221F46B74300D0F2228E0705D544266E
:1032E00064783243A34300D02A43CB0B01D0B823E8
:1032F0001A43102908D0202907D0402905D000689A
:10330000016891430160F0BD90210A43F7E7000096
:1033100030B5164D446B00229023AC4202D0144DC0
:10332000AC420BD1CC0B00D0B822102916D02029EA
:1033300002D0402914D014E0602111E0CC0B00D061
:10334000B822CC0701D0F22422438C0701D5F42403
:103350002243102902D0202902D002E01A4300E0C3
:103360000A43006801681143016030BD313800082C
:103370004D3A000801688A69D243920701D40022BD
:103380008A6200688169C943C90703D08169012243
:10339000114381617047F8B50546044640356878A9
:1033A00028218143206804D00821C16100202870B1
:1033B000F8BD8169C903CF0F8169FE230E0C8168B6
:1033C0001E408A05C168920D19408C46E1680229A9
:1033D00016D10621D3090E400B409E420FD1A16C9D
:1033E000491CA164A16C0229E2D10021A164082337
:1033F000C361297039462046FEF752F8F8BD66468B
:103400000121C9032046FFF759FF002028703246EA
:10341000F0E70000F8B50546044640356878002618
:10342000AE70334AE2626685626C0A4362642828A1
:103430001ED029281CD02A281AD02E492046FFF752
:103440003DFF6878602801D0202068706663206B9B
:10345000A16B294F002903D0112812D0212810D0A8
:10346000E16B002925D0122827D0222825D020E082
:1034700003212046FFF722FF282068701F48606361
:10348000E5E720680168490404D501680122920338
:1034900091430160A06BFDF7B9FD012809D0A06B35
:1034A00087632E70A06BFDF773FD002804D0A06B1E
:1034B0001AE0204600F002FCF8BD2068016809040B
:1034C00004D501680122D20391430160E06BFDF74E
:1034D0009DFD0128EDD0E06B87632E70E06BFDF75A
:1034E00057FD0028E8D0E06B816B8847F8BD0000ED
:1034F0000000FFFF0380000035320008613B000838
:1035000070B504461648E062002525632022204657
:103510004030064642708570C8436563400712D448
:103520002068406A616A0870606A401C6062208D91
:10353000002808D0401E2085608D401E6085606C8C
:1035400004210843606407492046FFF7B7FE21685D
:103550001020C86135702046FEF736F870BD0000B7
:103560000000FFFF03800000F8B5054600910068E9
:103570002027C7612C4640346078212803D060782A
:10358000222806D00BE001212846FFF797FE1120E4
:1035900004E002212846FFF791FE122028632868E4
:1035A0004168254A11404160002624486E63E86264
:1035B0000098C043C10606D42A681021D161696C05
:1035C0000422114369646178602905D1400703D45E
:1035D0002868406AC0B200902846FFF7CBFE686CAE
:1035E0006178602901D0002804D0696C2846FFF773
:1035F00011FFF8BD607821280DD060782228F8D11D
:1036000067702E63A078A67040282670284610D0D8
:10361000FDF7DBFFF8BD67702E63A078A670402829
:103620002670284602D0FDF7D1FFF8BDFDF7D0FF88
:10363000F8BDFDF7CCFFF8BD00E800FE0000FFFF7D
:1036400070B50025064640360446B57071782020D6
:10365000212970700BD0122020630221204665635F
:10366000FFF72CFE35702046FDF7AFFF70BD11202F
:103670002063012120466563FFF720FE3570204658
:10368000FDF7A4FF70BD0000F8B502680446166897
:103690000546403568780F462021D161212806D0A3
:1036A000292804D0222808D02A2806D00CE0424934
:1036B0002046FFF703FE212005E03F492046491C34
:1036C000FFF7FCFD22202063206841680122D2031D
:1036D0001143416020684168384A114041602046EA
:1036E000FFF748FEF043410407D420680168012237
:1036F000920391430160A06B08E000040BD42068A2
:1037000002680121C9038A430260E06B002802D0ED
:10371000006840686085F8434007042100280FDBFB
:1037200020688F43406A626A1070606A401C606261
:10373000208D002804D0401E2085608D401E6085AD
:10374000608D002802D0606C084360640026AE7073
:103750006663606C00280BD0616C2046FFF75AFE50
:103760006878282803D139462046FFF7C9FEF8BDFE
:10377000E06A134FB8420BD0204600F023F8E7620E
:103780002020687026632E702046FDF71DFFF8BDCF
:103790006878222807D02020687026632E70204683
:1037A000FEF737F8F8BD2020687026632E7020469B
:1037B000FEF72EF8F8BD00000180000000E800FED2
:1037C0000000FFFF70B505460068016800262C4622
:1037D0004034A670C9434A0403D40168012292030D
:1037E00004E0090404D401680122D203914301607A
:1037F0006178282029290ED061782A290AD16070A1
:103800002220286302212846FFF758FD267028460B
:10381000FDF7FEFF70BD607021202863012128465E
:10382000FFF74CFD26702846FDF7F3FF70BD000042
:10383000F8B50546044640352878012817D0012000
:103840002870CB43DE06D043002E12DBC20610D414
:1038500021681020C861606C042108436064202145
:103860002046FFF755FD2046FFF784FD5FE002206C
:10387000F8BD304A304E1F0637D4470635D420688D
:103880000168402399430160608D002820684068EA
:1038900028D08105608D890DFF2803D9FF20208560
:1038A0009B0408E0608D2085E06A904201D0E36AC5
:1038B00001E001235B0600200090208DC2B220466B
:1038C00000F0E6F9608D218D401A60856878222825
:1038D0002068016802D03143016028E00122D20350
:1038E0001143F9E7800117D506E05F0618D44706B3
:1038F00016D4608D002804D040212046FFF78AFDB1
:1039000015E020684168890111D4E16A914203D130
:103910004168314341600AE02046FFF791FE06E02E
:103920009A0604D4800602D42046FFF71DFE00202C
:103930002870F8BD0000FFFF00400000F8B5054604
:103940000446403528783F4B012818D001202870C4
:10395000C843C7060026D243002F12DBD70610D477
:1039600021681020C861606C042108436064202134
:103970002046FFF7CDFC2046FFF7FCFC5FE002206D
:10398000F8BD870708D4970706D4206D21688862A0
:103990000020C043206552E007062CD457062AD4E5
:1039A00010212046FFF7B4FC608D00281ED0608DEA
:1039B000FF2803D9FF22228500962AE0608D20850A
:1039C00000962EE0204600F063F9608D218D401AAC
:1039D0006085687822282068016802D0012292035D
:1039E00001E00122D2031143016028E0402120467A
:1039F000FFF710FD23E047061AD4570618D468785D
:103A0000222800D1104B608DFF2807D9FF22228584
:103A10000093E06C012381B21B06D3E7608D208503
:103A20000093208DC2B2E06C012381B25B06C9E72E
:103A3000800604D4900602D42046FFF795FD2E7030
:103A40000020F8BD0020008000240080F7B5C76A80
:103A500082B0044600202646403601903078012886
:103A600023D0012030700398D543C04300908006D6
:103A7000002805DBA80603D420460399FFF704FEBF
:103A80000098C0065FD4E8065DD4690410200029C0
:103A900001DA290454D4E16B00290BD02A0409D49B
:103AA00009684968002903D004E0022005B0F0BD90
:103AB00001210191A16B002905D06A0403D4096892
:103AC0004968002902D0019900291BD07178282962
:103AD00008D1012149068F4204D120460399FFF7FE
:103AE0000FFD39E0717829292AD101210904CF423B
:103AF00026D02168C8612046FFF73CFC2046FFF72E
:103B000061FE29E02168C861606C0421084360649B
:103B10007078002F02D089058F421DD1212806D050
:103B2000292804D0222804D02A2802D003E021200A
:103B300000E022202063616C2046FFF76BFC0BE065
:103B40002168C86108E00098000705D4280703D45D
:103B500020460399FFF71FFC00203070A6E7000005
:103B6000FEB5C56A04460646403601913078012804
:103B700028D0012030700198D743C04300908006C0
:103B8000002805DBB80603D420460199FFF77CFD29
:103B900000983D493D4AC00630D4F8062ED4638DC6
:103BA0001020002B10D02168C861606C04210843EC
:103BB0006064002D01D0954262D1616C2046FFF710
:103BC00029FC5DE00220FEBD7278282A08D101227E
:103BD0005206954204D120460199FFF791FC4FE02F
:103BE0007278292A07D18D4205D02168C861204604
:103BF000FFF7C0FB41E02168C86141E00098400741
:103C000017D4780715D4608D00280CD02068406A3E
:103C1000626A1070606A401C6062208D401E2085C0
:103C2000608D401E6085608D002829D18D4224D191
:103C300026E00098000706D4380704D420460199EE
:103C4000FFF7A9FB1CE00098800719D4B80717D428
:103C5000608D00280DD0606A216800788862606AF3
:103C6000401C6062608D401E6085208D401E208556
:103C700006E0954201D0002D02D12046FFF7A2FDBB
:103C800000203070FEBD00000000FFFF00000001BA
:103C9000890510B5890D12041143029C194302686D
:103CA0002143490050684908630D034C234398435E
:103CB0000843506010BD0000FF63FF0310B50146CC
:103CC00040314B780022602B04D002630A70FDF76C
:103CD0001FFC10BD20234B7002630A70FDF7DFFB51
:103CE00010BD8068C007C00F704780684007C00FD4
:103CF0007047C0680005800F01D000207047012088
:103D00007047026807239B059A430A430260704785
:103D100010B543690424214007248C40A3438A4002
:103D20001343436110BD0000FEB5002427480094F2
:103D30000194254902940160012149058460416094
:103D400008264661C46001610476012544768576C3
:103D5000446203218462C161014620310D734463D2
:103D60002A03846302630D771C210164846480212B
:103D7000C4644164FCF75EFF002801D0FCF797FDA6
:103D800001946946114800950294FCF797FD0028BC
:103D900001D0FCF78CFD0E4800900420019069468C
:103DA0000A48FCF78BFD002801D0FCF780FD09488C
:103DB0000090694601960548FCF780FD002801D077
:103DC000FCF775FDFEBD000000240140E800002066
:103DD000040000080800000C08B50C48816B0122A3
:103DE00011438163806B03211040009000220A2060
:103DF000FDF7A4FD0A20FDF795FD002211460B20DA
:103E0000FDF79CFD0B20FDF78DFD08BD0010024065
:103E100010B5114A34210A2001F042FC0F4C0E4A21
:103E200020616C3A00210E4801F06FFC0A4A606084
:103E3000483A00210B4801F068FC074AA060243A88
:103E40000021094801F061FCE0600348183001F0EE
:103E5000DCFB606110BD0000746E000800000020F3
:103E6000A9060008E505000879070008F0B587B045
:103E700014216846FCF7A5F96248416B04273943D1
:103E80004163416B39400591426B20210A434263F3
:103E9000426B0A400592416B012529434163416B06
:103EA00029400591416B022631434163416B31400A
:103EB0000591426B08210A434263406B002208408F
:103EC000059089025048FDF794FA052000224F49D9
:103ED0000007FDF78EFA0521002249034C48FDF743
:103EE00088FA0122C0214848FDF783FA21210520E4
:103EF000012289020007FDF77CFA012209214548C9
:103F0000FDF777FA8320800100240090029469462F
:103F1000019503943C48FDF7B1F93F480090052016
:103F200002946946019503940007FDF7A7F9102054
:103F30006A4651C2052069460007FDF79FF98020B7
:103F400000900520049002940196039469460007AE
:103F5000FDF794F90294009569462D480196049561
:103F60000394FDF78BF92120000401906946009726
:103F700002942748FDF782F905204003009002943F
:103F80006946019503942248FDF778F9A80300904B
:103F90000194694602941E48FDF770F928020090CA
:103FA00005200194694602940007FDF767F909208E
:103FB000009002946946019503941648FDF75EF956
:103FC00011252D0469461348009601950294FDF7CA
:103FD00055F9019469460F4800970294FDF74EF990
:103FE000302000906946019502940948FDF746F992
:103FF000002203210620FDF7A1FC0620FDF792FC1C
:1040000007B0F0BD0010024000080050020200009E
:1040100000040050000C00500286000010B5134848
:1040200011490160124941600021816001614161D3
:1040300081610122C161C2600162FDF76BFA002853
:1040400001D0FCF734FC00210848FDF7DFF9002817
:1040500001D0FCF72CFC00210448FDF7FCF90028F6
:1040600001D0FCF724FC10BD00540040A801002042
:10407000BC7D701010B513481149016012494160B0
:10408000002181600161416181610122C161C260E1
:104090000162FDF73FFA002801D0FCF708FC00217F
:1040A0000848FDF7B3F9002801D0FCF700FC002117
:1040B0000448FDF7D0F9002801D0FCF7F8FB10BD4B
:1040C00000580040FC010020BC7D701010B5114864
:1040D0000F490160FF210531416007221202C260D1
:1040E000002181600222026101224261520282614A
:1040F000016218224162C261816207220163C262C9
:104100004163FDF7FBFF002801D0FCF7D0FB10BD99
:10411000003001400803002010B588B01C2168461B
:10412000FCF74FF816481549016000243F218460D0
:1041300041600461FF218461C160FEF7ADF9002890
:1041400001D0FCF7B4FB0E48FEF7D1FB002801D0EC
:10415000FCF7ADFB602000900194029400226946B8
:1041600004940748FEF72FFB002801D0FCF79FFBC3
:104170000348FEF7EBFA08B010BD00000020004035
:104180006C03002010B594B01C210DA8FCF719F8A1
:1041900034216846FCF715F81F492048002412C056
:1041A00004608460C460A021046141600838FEF7A7
:1041B00073F9002801D0FCF77AFB1848FEF797FB4B
:1041C000002801D0FCF773FB602012940E940D9030
:1041D0000F941094119400220DA913940F48FEF728
:1041E000F2FA002801D0FCF762FB012000944003A2
:1041F00001940294059003940494069469460C94E7
:104200000648FEF7F3F8002801D0FCF750FB0348FE
:10421000FEF79CFA14B010BD00440140B803002022
:1042200010B51E4C1C482060E12040026060002058
:10423000A060E0602061A061E06120620C2160620A
:104240006161A0622046FEF7B9FE002801D0FCF7AC
:104250002EFB00211148FEF712FD002801D0FCF7CB
:1042600026FB00210D48FEF7E6FC002801D0FCF7F4
:104270001EFB0A48FEF7BFFC002801D0FCF717FB25
:104280002068016810221143016020680168202223
:104290001143016010BD000000380140600400209F
:1042A000FEE7F8B504460125ED070068FBF7E5FFDA
:1042B000A060E26901461046FBF78EFF0146E0610F
:1042C000206A6840FCF778F802D8266A6E4007E05A
:1042D000216AE069FCF770F801D8266A00E0E66917
:1042E000E661A768E1683846FBF7C7FFA169FBF7FD
:1042F000CCFF009031466069FBF7C7FF06463946A0
:104300002069FBF7C2FF3146FBF766FF0099FBF718
:1043100063FF01466060606A6840FCF74DF802D8B0
:10432000606A684007E0616A6068FCF745F801D898
:10433000606A00E060686060A168E160FCF70CF80A
:10434000C0B2F8BDF8B50F460B46154600920321E2
:1043500004460022C90200F01BF82026002812D1D2
:104360003B46002280212046009500F07DF8002881
:1043700009D103213B46002249022046009500F066
:1043800007F8002803D0206E304320660320F8BDD4
:10439000FFB585B00E460446002069460E9D1746BF
:1043A0000871FDF72DF8411B0898451AFDF728F80C
:1043B0000390206823210C3002902A48006848436B
:1043C000000D684346E003204002864206D1002FDC
:1043D00004D1029801786846017100790898401C60
:1043E00039D0FDF70DF80399401AA84205D2002DE7
:1043F00003D0009800282BD02BE020684168E022F1
:10440000914341606068C11FFD390CD10121A06852
:10441000C903884202D04911884204D1206801684A
:104420004022914301600120A16A4003814207D1EB
:1044300021680A6882430A6021680A6802430A60A8
:1044400001204034607700202077032009B0F0BDC0
:104450000025401E0090206880683040B842B2D1EC
:104460000020F3E728000020FFB581B01E46044677
:104470000A9DFCF7C5FF401B351AFCF7C1FF074634
:10448000264800684001000D684339E0701C38D0B0
:10449000FCF7B6FFC01BA84205D2002D03D0009840
:1044A00000282BD02BE020684168E0229143416036
:1044B0006068C11FFD390CD10121A068C903884281
:1044C00002D04911884204D12068016840229143FA
:1044D00001600120A16A4003814207D121680A6876
:1044E00082430A6021680A6802430A60012040345E
:1044F000607700202077032005B0F0BD0025401E26
:104500000090206881680298884305D000210398B4
:104510008142BBD10020EFE70121F8E7280000200D
:104520007047000010B50448006902F0D3FA012872
:1045300001D002F07FF810BD00E000E030B591B08E
:1045400034216846FBF73DFE002401200D940E94B3
:104550000F9440021094FDF7F5F90120009000043B
:1045600001900320089008200A90800302250B90F8
:10457000079500030C9009946846FDF7D3FB0028CB
:1045800001D072B6FEE707200D900F9402210E9520
:1045900010940DA8FDF7ACFA002801D072B6FEE722
:1045A00011B030BD7047000010B50248FEF70CF89E
:1045B00010BD000084050020F0B502681A4B1B4CAA
:1045C000984201D0A04203D17025AA434D682A43E6
:1045D000174D184E184F98420AD0A04208D0174CD9
:1045E000A04205D0A84203D0B04201D0B84205D1C4
:1045F0001446032212029443CA6822438024A24331
:104600004C69224302608A68C2620A6882629842E8
:1046100005D0A84203D0B04201D0B84201D1096907
:10462000016301214161F0BD002C01400004004004
:10463000004001400044014000480140002000408B
:1046400010B5CB06DB0E0121046A99408C4304624D
:10465000016A9A401143016210BD10B5846A0121BC
:10466000626A824206D12177C069002822D13E20A9
:1046700001551FE0A26A824207D102222277C06957
:10468000002817D13F20015514E0E26A824207D189
:1046900004222277C06900280CD14020015509E08E
:1046A000226B824206D108222277C069002801D1FC
:1046B000412001552046FEF741F90020207710BD2A
:1046C00010B5846A616A814201D101200DE0A16ABE
:1046D000814201D1022008E0E16A814201D1042037
:1046E00003E0216B814201D1082020772046FEF7AC
:1046F00026F90020207710BD10B5846A0121626A76
:10470000824203D121773E20015519E0A26A8242FC
:1047100004D1022020773F20015511E0E26A824255
:1047200004D1042020774020015509E0226B824209
:1047300004D1082020774120015501E03D2001559A
:104740002046FDF73FFF0020207710BDF0B5026A3C
:10475000520852000262056A43688269194C1B4E76
:10476000224092080C6892001443022295438A6802
:104770002A43154DA84207D0B04205D0144FB84285
:1047800002D0144FB84206D10827BA43CF68174366
:10479000042297433A46A84207D0B04205D00C4DB8
:1047A000A84202D00B4DA84206D103252D02AB43EF
:1047B0004D691D438B692B434360846149684163A4
:1047C0000262F0BD8FFFFEFF002C0140004001405F
:1047D000004401400048014070B5026A10239A432A
:1047E0000262046A43688269174D2A4003252D023C
:1047F000AA430D682D021543202294438A681201B2
:104800002243124CA04207D18024A243CC68402608
:1048100024012243B24308E00D4CA04205D00D4CC8
:10482000A04202D00C4CA04208D10324A402A3430E
:104830004C69A4001C438B699B0023434360856142
:1048400049688163026270BDFF8FFFFE002C01404A
:1048500000400140004401400048014070B5026A38
:10486000FF2301339A430262046A4368C269184D08
:104870002A4092080D689200154301225202944387
:104880008A6812022243134CA04208D11446CA6817
:10489000C614B443120222430415A24308E00E4C8E
:1048A000A04205D00D4CA04202D00D4CA04208D130
:1048B00003242403A3434C6924011C438B691B017B
:1048C00023434360C5614968C163026270BD000053
:1048D0008FFFFEFF002C01400040014000440140DA
:1048E0000048014030B5026A01231B039A4302626B
:1048F000046A4368C269134D2A4003252D02AA4366
:104900000D682D0215430122520394438A68120355
:1049100022430D4CA04208D00C4CA04205D00C4CB8
:10492000A04202D00B4CA04205D10124A403A34312
:104930004C69A40123434360C56149680164026274
:1049400030BD0000FF8FFFFE002C01400040014001
:10495000004401400048014070B5026A0126360457
:10496000B2430262046A4268436D0F4D2B400D68EA
:104970001D4373009C430B891B0423430B4CA04233
:1049800008D00B4CA04205D00A4CA04202D00A4CE1
:10499000A04203D14C69B2432402224342604565E0
:1049A00049688165036270BD8FFFFEFF002C0140E6
:1049B00000400140004401400048014030B5026A17
:1049C00001231B059A430262046A4268436D114D3C
:1049D0002B400D682D021D4301235B059C430B8971
:1049E0001B0523430C4CA04208D00C4CA04205D020
:1049F0000B4CA04202D00B4CA04205D10124A404D0
:104A0000A2434C69A4022243426045654968C165DE
:104A1000036230BDFF8FFFFE002C014000400140CB
:104A2000004401400048014010B5C82001F0F6FBE9
:104A30000121812000F054F82349EC2000F050F8C7
:104A400001210903902000F04BF80A21912000F089
:104A500047F80421802000F043F8FF21F53193202E
:104A600000F03EF81949F02000F03AF8112109034E
:104A7000A42000F035F815210903A52000F030F836
:104A80001349A62000F02CF812480168A72000F076
:104A900027F81149A82000F023F80121C903AA2012
:104AA00000F01EF80A21AB2000F01AF80021AC201B
:104AB00000F016F80949B42000F012F80021A020F7
:104AC00000F00EF810BD0000C3000300C80107008D
:104AD000FF8F0100A4000020FF1F00005F070000FF
:104AE0007CB56A461070080E5070080C9070080A69
:104AF000D070117101240525E4032D070022214601
:104B00002846FCF776FC6423052269460448FDF735
:104B1000AFFB012221462846FCF76BFC7CBD000060
:104B200008030020704700001CB50222019200918A
:104B30000246012390210248FCF74CFD1CBD0000F9
:104B4000FC01002010B5417802780802104340BAF9
:104B500000B2FBF7EDFB0622D243FBF7D3FBFBF7DA
:104B60000FFC10BDF8B50446416E4034002915D045
:104B700000688168806809014D0F0A4E400F374672
:104B8000315C083F385CC000FBF7ECFA6085785D6B
:104B9000715DC000FBF7E6FA2085F8BD0120608555
:104BA000FAE70000BC6E000810B5018DC90707D0F8
:104BB00001684A6801235B049A43C36A1A434A6046
:104BC000018D890707D501684A6801231B049A43B0
:104BD000036B1A434A60018D490707D501684A688B
:104BE00001239B049A43436B1A434A60018D0907D2
:104BF00007D501684A680123DB039A43836B1A4394
:104C00004A60018DC90607D50268916801231B031C
:104C10009943C36B19439160018D890607D50168DB
:104C20008A6801235B039A43036C1A438A60018DEF
:104C3000490612D503685A6801210905446C8A4364
:104C400022435A60426C8A4207D1026851680323AA
:104C50005B059943836C19435160018D090607D5A3
:104C600001684A680123DB04C06C9A4302434A602E
:104C700010BD0000FEB506460025803604463561AD
:104C8000FCF7BEFB019020680068124F000709D5B1
:104C900001210097002249052046019B00F020F9E0
:104CA00000280DD12068006840070BD5012100972E
:104CB000002289052046019B00F012F9002801D04E
:104CC0000320FEBD2020B060F060E56625673571E9
:104CD0000020FEBDFFFFFF0110B5806A00220146E3
:104CE0004031CA83CA82FDF7EFFF10BD10B5EFF364
:104CF0001081012282F3108802681368FF24213496
:104D0000A343136081F31088EFF31081012282F333
:104D10001088026893680D4C2340936081F31088DB
:104D2000C16E01290BD1EFF31081012282F31088AB
:104D3000026813681024A343136081F310882022B3
:104D40008C210A500021C166416710BDFEFFFFEFB4
:104D5000F8B5044680682169E26908436169002565
:104D60001143226808431168534B194001431160F5
:104D700021684868032212039043E26810434860A8
:104D8000A169206A2268084391684C4B194001438D
:104D900091602068C16A626A090909011143C16210
:104DA000474A2068474990420AD148698007800FE6
:104DB00020D0012814D0022810D003281CD111E0E3
:104DC000414A904210D148690C21084012D0042871
:104DD00006D0082802D00C280ED103E002210CE0F6
:104DE00004210AE0082108E03849884202D0384905
:104DF000884201D1002100E010210122E369D203A1
:104E00003448354E354F934227D1002906D0022928
:104E10000BD0042905D008293DD11CE0FCF730FF58
:104E200001E0FCF741FF00283CD0616A4900715A5B
:104E3000FBF798F9616840004A088018FBF792F97F
:104E400001461039B94226D82449491C01400007BF
:104E5000400F084324E01046E7E7002906D0022966
:104E60000BD0042905D0082915D116E0FCF708FF5E
:104E700001E0FCF719FF002814D0616A4900715A5B
:104E8000FBF770F961684A088018FBF76BF9014677
:104E90001039B94203D9012504E01046EDE780B28C
:104EA0002168C860204601214030418501850020ED
:104EB0006067A0672846F8BDF369FFCFFFF4FF11D4
:104EC00000380140401002400044004000480040CB
:104ED000004C00400024F4009C6E0008EFFF00002E
:104EE000FFB581B005461746044680350A9E54E05A
:104EF000701C52D0FCF784FA0499401AB0422FD8A3
:104F0000002E2DD020680168490746D5C069C043EE
:104F1000000542D401202168C0020862EFF310802E
:104F2000012181F3108821680B68FF22A13293438D
:104F30000B6080F31088EFF31080012181F310885B
:104F400021688A68520852008A6080F31088202005
:104F5000A860E860286100202871032005B0F0BD3A
:104F6000EFF31080012181F3108821680A68FF2384
:104F7000A1339A430A6080F31088EFF31080012177
:104F800081F3108821688A68520852008A6080F391
:104F900010882020A860E860DDE72068C1690298D9
:104FA000884304D00020B842A2D00020D6E70120D8
:104FB000F9E7000010B59023024A00210248FDF7EE
:104FC00027FD10BDCC1E0020B803002010B51048EE
:104FD0000168C8690F4B104C800604D54A6A2078D6
:104FE0001A54401C2070C869C0060CD510200862F5
:104FF00020785886094800231A460649006801F0BF
:1050000027FC002020700248FDF760FE10BD000064
:10501000600400205005002018000020100000202F
:105020000FB410B503A9044B044A029800F07AF8B3
:1050300010BC08BC04B01847B1550008B0000020EF
:105040000FB47CB50C0009AD01D0611E00E0002159
:1050500001910090074B6A462946089800F062F8D3
:10506000002C02D0009A002111707CBC08BC04B056
:1050700018470000995500082021020C01D010218A
:105080001046020A01D010460839020901D0104624
:10509000091F820801D01046891E420801D0881ECF
:1050A0007047081A704730B47446641E2578641C33
:1050B000AB4200D21D46635D5B00E31830BC18476D
:1050C0008307FF22DB0E9A408907090E99400028CA
:1050D00008DB830809489B001B18186890430843A5
:1050E000186070470007000F0838830804489B00C9
:1050F0001B18D86990430843D861704700E400E06A
:1051000000ED00E002E008C8121F08C1002AFAD131
:1051100070477047002001E001C1121F002AFBD137
:1051200070470000FFB591B00F460546002606E027
:1051300025280AD0149A139990476D1C761C28785C
:105140000028F5D1304615B0F0BD002400940121AF
:10515000F34A029400E004436D1C2B780846203B80
:1051600098401042F7D128782A280ED002222878B9
:1051700001463039092915D800990A235943303995
:10518000401814436D1C0090F1E701CF00900028F7
:1051900005DA0120400304430098404200900220B9
:1051A00004436D1C28782E2815D104200443687808
:1051B0006D1C2A280AD101CF6D1C02900BE00299C8
:1051C0000A225143303940186D1C0290287801465C
:1051D00030390929F3D928786C2810D006DC4C28FE
:1051E0001AD068280ED06A2817D104E0742813D08A
:1051F0007A2812D110E00120400504430CE001217F
:10520000090501E0032109050C436978814203D1B6
:105210000120000524186D1C6D1C28786E281ED0F6
:105220000CDC632831D004DC00288BD0582811D145
:10523000B2E064287BD069280CD178E073282DD0A7
:1052400004DC6F2870D0702804D1A7E075286CD0DA
:1052500078286BD0149A13999047761C62E060020C
:10526000400F022807D003280AD0042838680AD043
:1052700006603F1D56E03868F11706604160F8E7A8
:1052800038680680F5E70670F3E7387869460874F1
:105290000020487404A80390012003E038680390BC
:1052A0000020C0433F1D61070FD5002101E0019997
:1052B000491C029A0191914213DA8142F7DB019A6B
:1052C0000399895C0029F2D10BE0002101E00199EA
:1052D000491C01918142FADB019A0399895C0029FA
:1052E000F5D101990098139A401A00902146149B19
:1052F00000F03CF901998019461807E003980399DA
:105300000078491C0391149A139990470198401E04
:105310000190401CF2D12146149B139A009800F092
:1053200015F986196D1C0AE741E033E034E00A20E4
:105330000021049005916002410F022905D001CFA0
:10534000C2179446032905D007E0FF1DFF08FF00A0
:1053500003CF06E000B2C2179446042902D140B23E
:10536000C1178C4600226146944506DA0A460021A0
:10537000404291418C462D2102E0210504D52B218C
:105380006A461176012103E0E10701D02021F7E709
:10539000019155E00A200BE0102009E01020049054
:1053A00000210420044308200591029003E0082016
:1053B0000021059104906002410F022905D001CF20
:1053C00000229446032906D006E0FF1DFF08FF00D7
:1053D00003CF8C4603E080B2042900D1C0B2002183
:1053E000019121072CD529780391702906D0049AC0
:1053F0001021059B4A401A4305D00EE040216A4621
:105400001176012108E06146014306D030216A4649
:1054100011760399517602210191049A0821059B86
:105420004A401A430CD16146014301D1610707D5B7
:1054300030216A461176012101910299491E02919B
:105440002978582904D037A103910FA90F910DE0B5
:1054500039A1F9E76146059B049AFAF7B7FF039B68
:105460008C469B5C0F9A521E0F921370614601434B
:10547000F0D10F9807A9081A20300390600704D5CF
:10548000012000048443029801E001200290039966
:10549000884201DD401A00E0002041180290019886
:1054A00009180098401A0090E00306D42146149B86
:1054B000139A009800F05AF886190020049008E02A
:1054C00006A9085C149A139990470498401C761C0E
:1054D000049001998842F3DBE0030CD52146149B2C
:1054E000139A009800F042F8861904E0149A3020CC
:1054F00013999047761C0299481E02900029F5DC0A
:1055000008E00F980F990078491C0F91149A13998D
:105510009047761C0399481E03900029F1DCFAE6B7
:105520000928010030313233343536373839616279
:10553000636465660000000030313233343536373D
:10554000383941424344454600000000F8B504465E
:1055500000251E461746880404D405E0394620205D
:10556000B0476D1C641EF9D52846F8BDFFB504464A
:10557000002581B01E46C80301D5302700E0202752
:10558000880404D505E038460399B0476D1C641EB5
:10559000F9D5284605B0F0BD4A68002A06D00A6849
:1055A000531C0B6010704868401E48607047000034
:1055B00038B5044668460470034B01226946034827
:1055C000FDF792FD204638BDFFFF0000600400207B
:1055D000FCF728F9FEF7B2FFFEF748FCFEF7FCFBEC
:1055E000FEF7A2FBFEF71AFDFEF744FDFEF76EFD87
:1055F000FEF716FEFEF790FDFEF7C4FD00F01EF864
:10560000FEF706FC00F02EF8FEE710B50021EFF3E0
:105610000582002A10D100280BD08268C068002AB9
:1056200005D0202808D3104600F028FF03E000280A
:1056300002D100F015FF0146084610BDEFF30580CA
:10564000002802D00520C0437047054801680029A2
:1056500002D00020C0437047012101600020704744
:105660007C00002010B5EFF30580002802D0052053
:10567000C04310BD08480168012902D00020C04382
:1056800010BD0649CA691202120ACA6102210160EC
:1056900000F060FE002010BD7C00002000ED00E066
:1056A000F8B514460025EFF30582002A2BD1002817
:1056B00029D0002927D0002C19D0A368E268002B3C
:1056C0000DD0502A1FD32269002A1CD007466669D4
:1056D0004F43BE4217D3009500F0D8FF0AE0002ADE
:1056E00011D12269002A0ED16269002A0BD1002251
:1056F00000F0B2FF050006D0002C01D0216800E0C8
:10570000002100F057FD2846F8BDF0B58C4685B065
:1057100000210391EFF3058100293FD100283DD0FE
:10572000802518210024002A2CD01368002B00D0DB
:105730001C469369002B03D019465B1E382B02D2FE
:105740001379DB0702D0002005B0F0BD5669002EAA
:1057500000D0B5089768D368002F0ED05C2B1DD3FE
:105760001269002A1AD0002E18D06E4686C66346EB
:105770002A46214601F08BF90FE0002B0ED1126969
:10578000002A0BD103AA01920091AAB263462146D6
:1057900001F054F9012801D0002003900398D3E7C9
:1057A00010B580880F4940BA0F4C4118206814D0BA
:1057B0002B290ED03C290BD1FDF7FEFCFFF7B2F9E7
:1057C0000121206800F074FE00210848FDF7B8F8B8
:1057D00010BD012100F026FE10BD042100F068FE7E
:1057E00010BD0000FBEFFFFF140000206C03002041
:1057F000F8B5134C0F46E66805462068001D00F01A
:105800000BFC681C07D1002F05D021680D48091D2D
:1058100000F066FCF8BD2068751945602168B54246
:1058200004D2A06B091D00F043FCF8BD606B091D9C
:1058300000F03EFCA06A8542F7D2A562F8BD0000E8
:105840002C000020C00A0020F8B5054600F054FCEA
:10585000294CA068401CA0602068284F002803D075
:105860006069002825D02AE02560A068012826D19B
:10587000002614207043C01900F00CFC761C382E52
:10588000F7D31F4800F006FC1D48143000F002FC5E
:105890001B48283000F0FEFB19483C3000F0FAFBB2
:1058A0001748503000F0F6FB154860631430A063D1
:1058B00005E02068E96AC06A884200D82560606A0D
:1058C000401C60626864E86A2169884200D92061EE
:1058D00014214843C019291D00F002FC00F018FCF7
:1058E0006069002806D02068E96AC06A884201D24F
:1058F00000F054FCF8BD00002C0000201006002031
:10590000700A002038B500F0F7FB114C2068002821
:105910001AD1104800F0BEFB0E48143000F0BAFB5C
:105920000C48E06014300B4B20610020F03B1A461D
:105930000090503210210A2000F0A8FE20600028BC
:1059400002D005A100F036FC00F0E2FB38BD0000FB
:1059500068000020C40B0020546D7251000000004C
:1059600010B5026C0C46002A0CD0C1688B18C360BD
:1059700081688B4201D2194601E00168C16020466E
:10598000FAF706FC10BDF8B5856B174604460026ED
:10599000026C002A11D0002F19D0E068FAF7F8FB4A
:1059A000E168206C091AE1602268914202D2A16884
:1059B000081AE060022F17D019E02068002816D1DD
:1059C000A06801F0FBF806460020A0600FE06068C8
:1059D000FAF7DEFB216C606840186060A1688842BD
:1059E00005D32068606002E0002D00D06D1E6D1CA4
:1059F000A5633046F8BD10B504464030407E00280F
:105A000005D0012806D0022807D072B6FEE7206B29
:105A100000F08CFB204600F089FB10BD03210E48EE
:105A20008902420705D0C01DC0080B4AC000821A77
:105A3000891A0A4A0023411809C20839C908C9004D
:105A4000203A11604B600B600B1A0AC09360012072
:105A5000C007536050617047A412002098000020D6
:105A60000F4E104C104F11E000F046FBF068C56877
:105A7000281D00F0D1FAA068401EA0606068401E9A
:105A8000606000F045FB2846FFF7B5FF606800281E
:105A9000EAD138680128F9D900F080FBF6E7000068
:105AA000AC0A00202C0000201006002070B5049CD9
:105AB0001D46002909D022602164E06301212046AF
:105AC00000F004FE4034257370BD2460F4E7FFB598
:105AD00081B097000C9C0D460A9EA5223946206B8A
